{
  "_format": "hh-sol-artifact-1",
  "contractName": "SiddhiCred",
  "sourceName": "contracts/SiddhiCred.sol",
  "abi": [
    {
      "inputs": [],
      "stateMutability": "nonpayable",
      "type": "constructor"
    },
    {
      "inputs": [
        {
          "internalType": "address",
          "name": "issuerWalletAddress",
          "type": "address"
        }
      ],
      "name": "IssuerNotFound",
      "type": "error"
    },
    {
      "inputs": [
        {
          "internalType": "address",
          "name": "issuerWalletAddress",
          "type": "address"
        }
      ],
      "name": "IssuerRoleAlreadyAssigned",
      "type": "error"
    },
    {
      "inputs": [
        {
          "internalType": "uint256",
          "name": "tokenId",
          "type": "uint256"
        }
      ],
      "name": "TokenNotFound",
      "type": "error"
    },
    {
      "anonymous": false,
      "inputs": [
        {
          "indexed": true,
          "internalType": "address",
          "name": "owner",
          "type": "address"
        },
        {
          "indexed": true,
          "internalType": "address",
          "name": "approved",
          "type": "address"
        },
        {
          "indexed": true,
          "internalType": "uint256",
          "name": "tokenId",
          "type": "uint256"
        }
      ],
      "name": "Approval",
      "type": "event"
    },
    {
      "anonymous": false,
      "inputs": [
        {
          "indexed": true,
          "internalType": "address",
          "name": "owner",
          "type": "address"
        },
        {
          "indexed": true,
          "internalType": "address",
          "name": "operator",
          "type": "address"
        },
        {
          "indexed": false,
          "internalType": "bool",
          "name": "approved",
          "type": "bool"
        }
      ],
      "name": "ApprovalForAll",
      "type": "event"
    },
    {
      "anonymous": false,
      "inputs": [
        {
          "indexed": false,
          "internalType": "uint256",
          "name": "_fromTokenId",
          "type": "uint256"
        },
        {
          "indexed": false,
          "internalType": "uint256",
          "name": "_toTokenId",
          "type": "uint256"
        }
      ],
      "name": "BatchMetadataUpdate",
      "type": "event"
    },
    {
      "anonymous": false,
      "inputs": [
        {
          "indexed": false,
          "internalType": "address",
          "name": "issuerWalletAddress",
          "type": "address"
        },
        {
          "indexed": false,
          "internalType": "address",
          "name": "recipient",
          "type": "address"
        },
        {
          "indexed": false,
          "internalType": "uint256",
          "name": "tokenId",
          "type": "uint256"
        }
      ],
      "name": "CertificateIssued",
      "type": "event"
    },
    {
      "anonymous": false,
      "inputs": [
        {
          "indexed": false,
          "internalType": "address",
          "name": "issuerWalletAddress",
          "type": "address"
        },
        {
          "indexed": false,
          "internalType": "address",
          "name": "owner",
          "type": "address"
        },
        {
          "indexed": false,
          "internalType": "uint256",
          "name": "tokenId",
          "type": "uint256"
        }
      ],
      "name": "CertificateRevoked",
      "type": "event"
    },
    {
      "anonymous": false,
      "inputs": [
        {
          "indexed": false,
          "internalType": "address",
          "name": "issuerWalletAddress",
          "type": "address"
        },
        {
          "indexed": false,
          "internalType": "string",
          "name": "issuerContentHash",
          "type": "string"
        }
      ],
      "name": "IssuerCreated",
      "type": "event"
    },
    {
      "anonymous": false,
      "inputs": [
        {
          "indexed": false,
          "internalType": "address",
          "name": "issuerWalletAddress",
          "type": "address"
        },
        {
          "indexed": false,
          "internalType": "string",
          "name": "issuerContentHash",
          "type": "string"
        }
      ],
      "name": "IssuerRemoved",
      "type": "event"
    },
    {
      "anonymous": false,
      "inputs": [
        {
          "indexed": false,
          "internalType": "address",
          "name": "issuerWalletAddress",
          "type": "address"
        },
        {
          "indexed": false,
          "internalType": "string",
          "name": "issuerContentHash",
          "type": "string"
        }
      ],
      "name": "IssuerUpdated",
      "type": "event"
    },
    {
      "anonymous": false,
      "inputs": [
        {
          "indexed": false,
          "internalType": "uint256",
          "name": "_tokenId",
          "type": "uint256"
        }
      ],
      "name": "MetadataUpdate",
      "type": "event"
    },
    {
      "anonymous": false,
      "inputs": [
        {
          "indexed": true,
          "internalType": "bytes32",
          "name": "role",
          "type": "bytes32"
        },
        {
          "indexed": true,
          "internalType": "bytes32",
          "name": "previousAdminRole",
          "type": "bytes32"
        },
        {
          "indexed": true,
          "internalType": "bytes32",
          "name": "newAdminRole",
          "type": "bytes32"
        }
      ],
      "name": "RoleAdminChanged",
      "type": "event"
    },
    {
      "anonymous": false,
      "inputs": [
        {
          "indexed": true,
          "internalType": "bytes32",
          "name": "role",
          "type": "bytes32"
        },
        {
          "indexed": true,
          "internalType": "address",
          "name": "account",
          "type": "address"
        },
        {
          "indexed": true,
          "internalType": "address",
          "name": "sender",
          "type": "address"
        }
      ],
      "name": "RoleGranted",
      "type": "event"
    },
    {
      "anonymous": false,
      "inputs": [
        {
          "indexed": true,
          "internalType": "bytes32",
          "name": "role",
          "type": "bytes32"
        },
        {
          "indexed": true,
          "internalType": "address",
          "name": "account",
          "type": "address"
        },
        {
          "indexed": true,
          "internalType": "address",
          "name": "sender",
          "type": "address"
        }
      ],
      "name": "RoleRevoked",
      "type": "event"
    },
    {
      "anonymous": false,
      "inputs": [
        {
          "indexed": true,
          "internalType": "address",
          "name": "from",
          "type": "address"
        },
        {
          "indexed": true,
          "internalType": "address",
          "name": "to",
          "type": "address"
        },
        {
          "indexed": true,
          "internalType": "uint256",
          "name": "tokenId",
          "type": "uint256"
        }
      ],
      "name": "Transfer",
      "type": "event"
    },
    {
      "inputs": [],
      "name": "DEFAULT_ADMIN_ROLE",
      "outputs": [
        {
          "internalType": "bytes32",
          "name": "",
          "type": "bytes32"
        }
      ],
      "stateMutability": "view",
      "type": "function"
    },
    {
      "inputs": [],
      "name": "ISSUER_ROLE",
      "outputs": [
        {
          "internalType": "bytes32",
          "name": "",
          "type": "bytes32"
        }
      ],
      "stateMutability": "view",
      "type": "function"
    },
    {
      "inputs": [],
      "name": "admin",
      "outputs": [
        {
          "internalType": "address",
          "name": "",
          "type": "address"
        }
      ],
      "stateMutability": "view",
      "type": "function"
    },
    {
      "inputs": [
        {
          "internalType": "address",
          "name": "to",
          "type": "address"
        },
        {
          "internalType": "uint256",
          "name": "tokenId",
          "type": "uint256"
        }
      ],
      "name": "approve",
      "outputs": [],
      "stateMutability": "nonpayable",
      "type": "function"
    },
    {
      "inputs": [
        {
          "internalType": "address",
          "name": "owner",
          "type": "address"
        }
      ],
      "name": "balanceOf",
      "outputs": [
        {
          "internalType": "uint256",
          "name": "",
          "type": "uint256"
        }
      ],
      "stateMutability": "view",
      "type": "function"
    },
    {
      "inputs": [
        {
          "internalType": "uint256",
          "name": "tokenId",
          "type": "uint256"
        }
      ],
      "name": "burnCertificate",
      "outputs": [],
      "stateMutability": "nonpayable",
      "type": "function"
    },
    {
      "inputs": [
        {
          "internalType": "address",
          "name": "issuerWalletAddress",
          "type": "address"
        },
        {
          "internalType": "string",
          "name": "contentHash",
          "type": "string"
        }
      ],
      "name": "createIssuer",
      "outputs": [],
      "stateMutability": "nonpayable",
      "type": "function"
    },
    {
      "inputs": [
        {
          "internalType": "uint256",
          "name": "tokenId",
          "type": "uint256"
        }
      ],
      "name": "getApproved",
      "outputs": [
        {
          "internalType": "address",
          "name": "",
          "type": "address"
        }
      ],
      "stateMutability": "view",
      "type": "function"
    },
    {
      "inputs": [
        {
          "internalType": "address",
          "name": "issuerWalletAddress",
          "type": "address"
        }
      ],
      "name": "getIssuerInfo",
      "outputs": [
        {
          "internalType": "string",
          "name": "contentHash",
          "type": "string"
        }
      ],
      "stateMutability": "view",
      "type": "function"
    },
    {
      "inputs": [
        {
          "internalType": "bytes32",
          "name": "role",
          "type": "bytes32"
        }
      ],
      "name": "getRoleAdmin",
      "outputs": [
        {
          "internalType": "bytes32",
          "name": "",
          "type": "bytes32"
        }
      ],
      "stateMutability": "view",
      "type": "function"
    },
    {
      "inputs": [
        {
          "internalType": "address",
          "name": "walletAddress",
          "type": "address"
        }
      ],
      "name": "getWalletAddressRole",
      "outputs": [
        {
          "internalType": "string",
          "name": "role",
          "type": "string"
        }
      ],
      "stateMutability": "view",
      "type": "function"
    },
    {
      "inputs": [
        {
          "internalType": "bytes32",
          "name": "role",
          "type": "bytes32"
        },
        {
          "internalType": "address",
          "name": "account",
          "type": "address"
        }
      ],
      "name": "grantRole",
      "outputs": [],
      "stateMutability": "nonpayable",
      "type": "function"
    },
    {
      "inputs": [
        {
          "internalType": "bytes32",
          "name": "role",
          "type": "bytes32"
        },
        {
          "internalType": "address",
          "name": "account",
          "type": "address"
        }
      ],
      "name": "hasRole",
      "outputs": [
        {
          "internalType": "bool",
          "name": "",
          "type": "bool"
        }
      ],
      "stateMutability": "view",
      "type": "function"
    },
    {
      "inputs": [
        {
          "internalType": "address",
          "name": "owner",
          "type": "address"
        },
        {
          "internalType": "address",
          "name": "operator",
          "type": "address"
        }
      ],
      "name": "isApprovedForAll",
      "outputs": [
        {
          "internalType": "bool",
          "name": "",
          "type": "bool"
        }
      ],
      "stateMutability": "view",
      "type": "function"
    },
    {
      "inputs": [
        {
          "internalType": "address",
          "name": "to",
          "type": "address"
        },
        {
          "internalType": "string",
          "name": "contentHash",
          "type": "string"
        }
      ],
      "name": "issueCertificate",
      "outputs": [],
      "stateMutability": "nonpayable",
      "type": "function"
    },
    {
      "inputs": [],
      "name": "name",
      "outputs": [
        {
          "internalType": "string",
          "name": "",
          "type": "string"
        }
      ],
      "stateMutability": "view",
      "type": "function"
    },
    {
      "inputs": [
        {
          "internalType": "uint256",
          "name": "tokenId",
          "type": "uint256"
        }
      ],
      "name": "ownerOf",
      "outputs": [
        {
          "internalType": "address",
          "name": "",
          "type": "address"
        }
      ],
      "stateMutability": "view",
      "type": "function"
    },
    {
      "inputs": [
        {
          "internalType": "address",
          "name": "issuerWalletAddress",
          "type": "address"
        }
      ],
      "name": "removeIssuer",
      "outputs": [],
      "stateMutability": "nonpayable",
      "type": "function"
    },
    {
      "inputs": [
        {
          "internalType": "bytes32",
          "name": "role",
          "type": "bytes32"
        },
        {
          "internalType": "address",
          "name": "account",
          "type": "address"
        }
      ],
      "name": "renounceRole",
      "outputs": [],
      "stateMutability": "nonpayable",
      "type": "function"
    },
    {
      "inputs": [
        {
          "internalType": "bytes32",
          "name": "role",
          "type": "bytes32"
        },
        {
          "internalType": "address",
          "name": "account",
          "type": "address"
        }
      ],
      "name": "revokeRole",
      "outputs": [],
      "stateMutability": "nonpayable",
      "type": "function"
    },
    {
      "inputs": [
        {
          "internalType": "address",
          "name": "from",
          "type": "address"
        },
        {
          "internalType": "address",
          "name": "to",
          "type": "address"
        },
        {
          "internalType": "uint256",
          "name": "tokenId",
          "type": "uint256"
        }
      ],
      "name": "safeTransferFrom",
      "outputs": [],
      "stateMutability": "nonpayable",
      "type": "function"
    },
    {
      "inputs": [
        {
          "internalType": "address",
          "name": "from",
          "type": "address"
        },
        {
          "internalType": "address",
          "name": "to",
          "type": "address"
        },
        {
          "internalType": "uint256",
          "name": "tokenId",
          "type": "uint256"
        },
        {
          "internalType": "bytes",
          "name": "data",
          "type": "bytes"
        }
      ],
      "name": "safeTransferFrom",
      "outputs": [],
      "stateMutability": "nonpayable",
      "type": "function"
    },
    {
      "inputs": [
        {
          "internalType": "address",
          "name": "operator",
          "type": "address"
        },
        {
          "internalType": "bool",
          "name": "approved",
          "type": "bool"
        }
      ],
      "name": "setApprovalForAll",
      "outputs": [],
      "stateMutability": "nonpayable",
      "type": "function"
    },
    {
      "inputs": [
        {
          "internalType": "bytes4",
          "name": "interfaceId",
          "type": "bytes4"
        }
      ],
      "name": "supportsInterface",
      "outputs": [
        {
          "internalType": "bool",
          "name": "",
          "type": "bool"
        }
      ],
      "stateMutability": "view",
      "type": "function"
    },
    {
      "inputs": [],
      "name": "symbol",
      "outputs": [
        {
          "internalType": "string",
          "name": "",
          "type": "string"
        }
      ],
      "stateMutability": "view",
      "type": "function"
    },
    {
      "inputs": [
        {
          "internalType": "uint256",
          "name": "tokenId",
          "type": "uint256"
        }
      ],
      "name": "tokenURI",
      "outputs": [
        {
          "internalType": "string",
          "name": "",
          "type": "string"
        }
      ],
      "stateMutability": "view",
      "type": "function"
    },
    {
      "inputs": [
        {
          "internalType": "address",
          "name": "from",
          "type": "address"
        },
        {
          "internalType": "address",
          "name": "to",
          "type": "address"
        },
        {
          "internalType": "uint256",
          "name": "tokenId",
          "type": "uint256"
        }
      ],
      "name": "transferFrom",
      "outputs": [],
      "stateMutability": "nonpayable",
      "type": "function"
    },
    {
      "inputs": [
        {
          "internalType": "address",
          "name": "issuerWalletAddress",
          "type": "address"
        },
        {
          "internalType": "string",
          "name": "contentHash",
          "type": "string"
        }
      ],
      "name": "updateIssuer",
      "outputs": [],
      "stateMutability": "nonpayable",
      "type": "function"
    }
  ],
  "bytecode": "0x60806040523480156200001157600080fd5b506040518060400160405280601f81526020017f5369646468692043726564656e7469616c20536f756c626f756e64204e4654008152506040518060400160405280600781526020017f534353424e46540000000000000000000000000000000000000000000000000081525081600090816200008f9190620004df565b508060019081620000a19190620004df565b505050620000b96000801b336200010060201b60201c565b33600860006101000a81548173ffffffffffffffffffffffffffffffffffffffff021916908373ffffffffffffffffffffffffffffffffffffffff160217905550620005c6565b620001128282620001f260201b60201c565b620001ee5760016007600084815260200190815260200160002060000160008373ffffffffffffffffffffffffffffffffffffffff1673ffffffffffffffffffffffffffffffffffffffff16815260200190815260200160002060006101000a81548160ff021916908315150217905550620001936200025d60201b60201c565b73ffffffffffffffffffffffffffffffffffffffff168173ffffffffffffffffffffffffffffffffffffffff16837f2f8788117e7eff1d82e926ec794901d17c78024a50270940304540a733656f0d60405160405180910390a45b5050565b60006007600084815260200190815260200160002060000160008373ffffffffffffffffffffffffffffffffffffffff1673ffffffffffffffffffffffffffffffffffffffff16815260200190815260200160002060009054906101000a900460ff16905092915050565b600033905090565b600081519050919050565b7f4e487b7100000000000000000000000000000000000000000000000000000000600052604160045260246000fd5b7f4e487b7100000000000000000000000000000000000000000000000000000000600052602260045260246000fd5b60006002820490506001821680620002e757607f821691505b602082108103620002fd57620002fc6200029f565b5b50919050565b60008190508160005260206000209050919050565b60006020601f8301049050919050565b600082821b905092915050565b600060088302620003677fffffffffffffffffffffffffffffffffffffffffffffffffffffffffffffffff8262000328565b62000373868362000328565b95508019841693508086168417925050509392505050565b6000819050919050565b6000819050919050565b6000620003c0620003ba620003b4846200038b565b62000395565b6200038b565b9050919050565b6000819050919050565b620003dc836200039f565b620003f4620003eb82620003c7565b84845462000335565b825550505050565b600090565b6200040b620003fc565b62000418818484620003d1565b505050565b5b8181101562000440576200043460008262000401565b6001810190506200041e565b5050565b601f8211156200048f57620004598162000303565b620004648462000318565b8101602085101562000474578190505b6200048c620004838562000318565b8301826200041d565b50505b505050565b600082821c905092915050565b6000620004b46000198460080262000494565b1980831691505092915050565b6000620004cf8383620004a1565b9150826002028217905092915050565b620004ea8262000265565b67ffffffffffffffff81111562000506576200050562000270565b5b620005128254620002ce565b6200051f82828562000444565b600060209050601f83116001811462000557576000841562000542578287015190505b6200054e8582620004c1565b865550620005be565b601f198416620005678662000303565b60005b8281101562000591578489015182556001820191506020850194506020810190506200056a565b86831015620005b15784890151620005ad601f891682620004a1565b8355505b6001600288020188555050505b505050505050565b6143f480620005d66000396000f3fe608060405234801561001057600080fd5b50600436106101c45760003560e01c806382aefa24116100f9578063bb721aab11610097578063e985e9c511610071578063e985e9c514610511578063f6a03f5914610541578063f851a4401461055d578063fa36512f1461057b576101c4565b8063bb721aab146104a9578063c87b56dd146104c5578063d547741f146104f5576101c4565b806395d89b41116100d357806395d89b4114610435578063a217fddf14610453578063a22cb46514610471578063b88d4fde1461048d576101c4565b806382aefa24146103cb57806391d14854146103e957806393b16b4514610419576101c4565b80632f2ff15d1161016657806347bc70931161014057806347bc70931461031f5780635e9aab701461033b5780636352211e1461036b57806370a082311461039b576101c4565b80632f2ff15d146102cb57806336568abe146102e757806342842e0e14610303576101c4565b8063095ea7b3116101a2578063095ea7b3146102475780631a9699441461026357806323b872dd1461027f578063248a9ca31461029b576101c4565b806301ffc9a7146101c957806306fdde03146101f9578063081812fc14610217575b600080fd5b6101e360048036038101906101de9190612e2a565b6105ab565b6040516101f09190612e72565b60405180910390f35b6102016105bd565b60405161020e9190612f1d565b60405180910390f35b610231600480360381019061022c9190612f75565b61064f565b60405161023e9190612fe3565b60405180910390f35b610261600480360381019061025c919061302a565b610695565b005b61027d6004803603810190610278919061319f565b6107ac565b005b610299600480360381019061029491906131fb565b6108da565b005b6102b560048036038101906102b09190613284565b61093a565b6040516102c291906132c0565b60405180910390f35b6102e560048036038101906102e091906132db565b61095a565b005b61030160048036038101906102fc91906132db565b61097b565b005b61031d600480360381019061031891906131fb565b6109fe565b005b6103396004803603810190610334919061331b565b610a1e565b005b6103556004803603810190610350919061331b565b610c15565b6040516103629190612f1d565b60405180910390f35b61038560048036038101906103809190612f75565b610d51565b6040516103929190612fe3565b60405180910390f35b6103b560048036038101906103b0919061331b565b610dd7565b6040516103c29190613357565b60405180910390f35b6103d3610e8e565b6040516103e091906132c0565b60405180910390f35b61040360048036038101906103fe91906132db565b610eb2565b6040516104109190612e72565b60405180910390f35b610433600480360381019061042e9190612f75565b610f1d565b005b61043d61100e565b60405161044a9190612f1d565b60405180910390f35b61045b6110a0565b60405161046891906132c0565b60405180910390f35b61048b6004803603810190610486919061339e565b6110a7565b005b6104a760048036038101906104a2919061347f565b6110bd565b005b6104c360048036038101906104be919061319f565b61111f565b005b6104df60048036038101906104da9190612f75565b6111b6565b6040516104ec9190612f1d565b60405180910390f35b61050f600480360381019061050a91906132db565b6111c8565b005b61052b60048036038101906105269190613502565b6111e9565b6040516105389190612e72565b60405180910390f35b61055b6004803603810190610556919061319f565b61127d565b005b610565611380565b6040516105729190612fe3565b60405180910390f35b6105956004803603810190610590919061331b565b6113a6565b6040516105a29190612f1d565b60405180910390f35b60006105b6826114a1565b9050919050565b6060600080546105cc90613571565b80601f01602080910402602001604051908101604052809291908181526020018280546105f890613571565b80156106455780601f1061061a57610100808354040283529160200191610645565b820191906000526020600020905b81548152906001019060200180831161062857829003601f168201915b5050505050905090565b600061065a8261151b565b6004600083815260200190815260200160002060009054906101000a900473ffffffffffffffffffffffffffffffffffffffff169050919050565b60006106a082610d51565b90508073ffffffffffffffffffffffffffffffffffffffff168373ffffffffffffffffffffffffffffffffffffffff1603610710576040517f08c379a000000000000000000000000000000000000000000000000000000000815260040161070790613614565b60405180910390fd5b8073ffffffffffffffffffffffffffffffffffffffff1661072f611566565b73ffffffffffffffffffffffffffffffffffffffff16148061075e575061075d81610758611566565b6111e9565b5b61079d576040517f08c379a0000000000000000000000000000000000000000000000000000000008152600401610794906136a6565b60405180910390fd5b6107a7838361156e565b505050565b6000801b6107b981611627565b6107e37f76afa8a5929fef1b4c03674b2152ae5aaad1d974b8a4021c59477bcc846ccc1e84610eb2565b1561082557826040517fb1d3f1bc00000000000000000000000000000000000000000000000000000000815260040161081c9190612fe3565b60405180910390fd5b81600960008573ffffffffffffffffffffffffffffffffffffffff1673ffffffffffffffffffffffffffffffffffffffff16815260200190815260200160002090816108719190613872565b5061089c7f76afa8a5929fef1b4c03674b2152ae5aaad1d974b8a4021c59477bcc846ccc1e8461163b565b7f6bb73a24fe81dad9bcb96ff68bb44f5f3725eac06578ae43b30e1636a0b72f1183836040516108cd929190613944565b60405180910390a1505050565b6108eb6108e5611566565b8261171c565b61092a576040517f08c379a0000000000000000000000000000000000000000000000000000000008152600401610921906139e6565b60405180910390fd5b6109358383836117b1565b505050565b600060076000838152602001908152602001600020600101549050919050565b6109638261093a565b61096c81611627565b610976838361163b565b505050565b610983611566565b73ffffffffffffffffffffffffffffffffffffffff168173ffffffffffffffffffffffffffffffffffffffff16146109f0576040517f08c379a00000000000000000000000000000000000000000000000000000000081526004016109e790613a78565b60405180910390fd5b6109fa8282611aaa565b5050565b610a19838383604051806020016040528060008152506110bd565b505050565b6000801b610a2b81611627565b610a557f76afa8a5929fef1b4c03674b2152ae5aaad1d974b8a4021c59477bcc846ccc1e83610eb2565b610a9657816040517f6ec3bc85000000000000000000000000000000000000000000000000000000008152600401610a8d9190612fe3565b60405180910390fd5b6000600960008473ffffffffffffffffffffffffffffffffffffffff1673ffffffffffffffffffffffffffffffffffffffff1681526020019081526020016000208054610ae290613571565b80601f0160208091040260200160405190810160405280929190818152602001828054610b0e90613571565b8015610b5b5780601f10610b3057610100808354040283529160200191610b5b565b820191906000526020600020905b815481529060010190602001808311610b3e57829003601f168201915b50505050509050610b8c7f76afa8a5929fef1b4c03674b2152ae5aaad1d974b8a4021c59477bcc846ccc1e84611aaa565b7f2d87004a9f2eb39dc280c5cec7e8a334a43871940fb3e3ff72839f70cebff6668382604051610bbd929190613944565b60405180910390a1600960008473ffffffffffffffffffffffffffffffffffffffff1673ffffffffffffffffffffffffffffffffffffffff1681526020019081526020016000206000610c109190612d61565b505050565b6060610c417f76afa8a5929fef1b4c03674b2152ae5aaad1d974b8a4021c59477bcc846ccc1e83610eb2565b610c8257816040517f6ec3bc85000000000000000000000000000000000000000000000000000000008152600401610c799190612fe3565b60405180910390fd5b600960008373ffffffffffffffffffffffffffffffffffffffff1673ffffffffffffffffffffffffffffffffffffffff1681526020019081526020016000208054610ccc90613571565b80601f0160208091040260200160405190810160405280929190818152602001828054610cf890613571565b8015610d455780601f10610d1a57610100808354040283529160200191610d45565b820191906000526020600020905b815481529060010190602001808311610d2857829003601f168201915b50505050509050919050565b600080610d5d83611b8c565b9050600073ffffffffffffffffffffffffffffffffffffffff168173ffffffffffffffffffffffffffffffffffffffff1603610dce576040517f08c379a0000000000000000000000000000000000000000000000000000000008152600401610dc590613ae4565b60405180910390fd5b80915050919050565b60008073ffffffffffffffffffffffffffffffffffffffff168273ffffffffffffffffffffffffffffffffffffffff1603610e47576040517f08c379a0000000000000000000000000000000000000000000000000000000008152600401610e3e90613b76565b60405180910390fd5b600360008373ffffffffffffffffffffffffffffffffffffffff1673ffffffffffffffffffffffffffffffffffffffff168152602001908152602001600020549050919050565b7f76afa8a5929fef1b4c03674b2152ae5aaad1d974b8a4021c59477bcc846ccc1e81565b60006007600084815260200190815260200160002060000160008373ffffffffffffffffffffffffffffffffffffffff1673ffffffffffffffffffffffffffffffffffffffff16815260200190815260200160002060009054906101000a900460ff16905092915050565b7f76afa8a5929fef1b4c03674b2152ae5aaad1d974b8a4021c59477bcc846ccc1e610f4781611627565b6000610f5283610d51565b9050600073ffffffffffffffffffffffffffffffffffffffff168173ffffffffffffffffffffffffffffffffffffffff1603610fc557826040517f6caeb130000000000000000000000000000000000000000000000000000000008152600401610fbc9190613357565b60405180910390fd5b7f172277909bd1a01a852cbc3f739956f79822e367c309debfefb68db3396a8913338285604051610ff893929190613b96565b60405180910390a161100983611bc9565b505050565b60606001805461101d90613571565b80601f016020809104026020016040519081016040528092919081815260200182805461104990613571565b80156110965780601f1061106b57610100808354040283529160200191611096565b820191906000526020600020905b81548152906001019060200180831161107957829003601f168201915b5050505050905090565b6000801b81565b6110b96110b2611566565b8383611bd5565b5050565b6110ce6110c8611566565b8361171c565b61110d576040517f08c379a0000000000000000000000000000000000000000000000000000000008152600401611104906139e6565b60405180910390fd5b61111984848484611d41565b50505050565b7f76afa8a5929fef1b4c03674b2152ae5aaad1d974b8a4021c59477bcc846ccc1e61114981611627565b6000611155600a611d9d565b9050611161600a611dab565b61116b8482611dc1565b6111758184611ddf565b7f38852d3790cecf8789b659b361b1b912c0376598019c00c87b8ce9142f3c34533385836040516111a893929190613b96565b60405180910390a150505050565b60606111c182611e83565b9050919050565b6111d18261093a565b6111da81611627565b6111e48383611aaa565b505050565b6000600560008473ffffffffffffffffffffffffffffffffffffffff1673ffffffffffffffffffffffffffffffffffffffff16815260200190815260200160002060008373ffffffffffffffffffffffffffffffffffffffff1673ffffffffffffffffffffffffffffffffffffffff16815260200190815260200160002060009054906101000a900460ff16905092915050565b6000801b61128a81611627565b6112b47f76afa8a5929fef1b4c03674b2152ae5aaad1d974b8a4021c59477bcc846ccc1e84610eb2565b6112f557826040517f6ec3bc850000000000000000000000000000000000000000000000000000000081526004016112ec9190612fe3565b60405180910390fd5b81600960008573ffffffffffffffffffffffffffffffffffffffff1673ffffffffffffffffffffffffffffffffffffffff16815260200190815260200160002090816113419190613872565b507f1befe08676699a216ff0efeb784db78fcfaee01d0217bc3efeefa305fb97cbb98383604051611373929190613944565b60405180910390a1505050565b600860009054906101000a900473ffffffffffffffffffffffffffffffffffffffff1681565b60606113b56000801b83610eb2565b156113f7576040518060400160405280600581526020017f41444d494e000000000000000000000000000000000000000000000000000000815250905061149c565b6114217f76afa8a5929fef1b4c03674b2152ae5aaad1d974b8a4021c59477bcc846ccc1e83610eb2565b15611463576040518060400160405280600681526020017f4953535545520000000000000000000000000000000000000000000000000000815250905061149c565b6040518060400160405280600481526020017f555345520000000000000000000000000000000000000000000000000000000081525090505b919050565b60007f7965db0b000000000000000000000000000000000000000000000000000000007bffffffffffffffffffffffffffffffffffffffffffffffffffffffff1916827bffffffffffffffffffffffffffffffffffffffffffffffffffffffff19161480611514575061151382611f95565b5b9050919050565b61152481611ff6565b611563576040517f08c379a000000000000000000000000000000000000000000000000000000000815260040161155a90613ae4565b60405180910390fd5b50565b600033905090565b816004600083815260200190815260200160002060006101000a81548173ffffffffffffffffffffffffffffffffffffffff021916908373ffffffffffffffffffffffffffffffffffffffff160217905550808273ffffffffffffffffffffffffffffffffffffffff166115e183610d51565b73ffffffffffffffffffffffffffffffffffffffff167f8c5be1e5ebec7d5bd14f71427d1e84f3dd0314c0f7b2291e5b200ac8c7c3b92560405160405180910390a45050565b61163881611633611566565b612037565b50565b6116458282610eb2565b6117185760016007600084815260200190815260200160002060000160008373ffffffffffffffffffffffffffffffffffffffff1673ffffffffffffffffffffffffffffffffffffffff16815260200190815260200160002060006101000a81548160ff0219169083151502179055506116bd611566565b73ffffffffffffffffffffffffffffffffffffffff168173ffffffffffffffffffffffffffffffffffffffff16837f2f8788117e7eff1d82e926ec794901d17c78024a50270940304540a733656f0d60405160405180910390a45b5050565b60008061172883610d51565b90508073ffffffffffffffffffffffffffffffffffffffff168473ffffffffffffffffffffffffffffffffffffffff16148061176a575061176981856111e9565b5b806117a857508373ffffffffffffffffffffffffffffffffffffffff166117908461064f565b73ffffffffffffffffffffffffffffffffffffffff16145b91505092915050565b8273ffffffffffffffffffffffffffffffffffffffff166117d182610d51565b73ffffffffffffffffffffffffffffffffffffffff1614611827576040517f08c379a000000000000000000000000000000000000000000000000000000000815260040161181e90613c3f565b60405180910390fd5b600073ffffffffffffffffffffffffffffffffffffffff168273ffffffffffffffffffffffffffffffffffffffff1603611896576040517f08c379a000000000000000000000000000000000000000000000000000000000815260040161188d90613cd1565b60405180910390fd5b6118a383838360016120bc565b8273ffffffffffffffffffffffffffffffffffffffff166118c382610d51565b73ffffffffffffffffffffffffffffffffffffffff1614611919576040517f08c379a000000000000000000000000000000000000000000000000000000000815260040161191090613c3f565b60405180910390fd5b6004600082815260200190815260200160002060006101000a81549073ffffffffffffffffffffffffffffffffffffffff02191690556001600360008573ffffffffffffffffffffffffffffffffffffffff1673ffffffffffffffffffffffffffffffffffffffff168152602001908152602001600020600082825403925050819055506001600360008473ffffffffffffffffffffffffffffffffffffffff1673ffffffffffffffffffffffffffffffffffffffff16815260200190815260200160002060008282540192505081905550816002600083815260200190815260200160002060006101000a81548173ffffffffffffffffffffffffffffffffffffffff021916908373ffffffffffffffffffffffffffffffffffffffff160217905550808273ffffffffffffffffffffffffffffffffffffffff168473ffffffffffffffffffffffffffffffffffffffff167fddf252ad1be2c89b69c2b068fc378daa952ba7f163c4a11628f55a4df523b3ef60405160405180910390a4611aa5838383600161213d565b505050565b611ab48282610eb2565b15611b885760006007600084815260200190815260200160002060000160008373ffffffffffffffffffffffffffffffffffffffff1673ffffffffffffffffffffffffffffffffffffffff16815260200190815260200160002060006101000a81548160ff021916908315150217905550611b2d611566565b73ffffffffffffffffffffffffffffffffffffffff168173ffffffffffffffffffffffffffffffffffffffff16837ff6391f5c32d9c69d2a47ea670b442974b53935d1edc7fd64eb21e047a839171b60405160405180910390a45b5050565b60006002600083815260200190815260200160002060009054906101000a900473ffffffffffffffffffffffffffffffffffffffff169050919050565b611bd281612143565b50565b8173ffffffffffffffffffffffffffffffffffffffff168373ffffffffffffffffffffffffffffffffffffffff1603611c43576040517f08c379a0000000000000000000000000000000000000000000000000000000008152600401611c3a90613d3d565b60405180910390fd5b80600560008573ffffffffffffffffffffffffffffffffffffffff1673ffffffffffffffffffffffffffffffffffffffff16815260200190815260200160002060008473ffffffffffffffffffffffffffffffffffffffff1673ffffffffffffffffffffffffffffffffffffffff16815260200190815260200160002060006101000a81548160ff0219169083151502179055508173ffffffffffffffffffffffffffffffffffffffff168373ffffffffffffffffffffffffffffffffffffffff167f17307eab39ab6107e8899845ad3d59bd9653f200f220920489ca2b5937696c3183604051611d349190612e72565b60405180910390a3505050565b611d4c8484846117b1565b611d5884848484612196565b611d97576040517f08c379a0000000000000000000000000000000000000000000000000000000008152600401611d8e90613dcf565b60405180910390fd5b50505050565b600081600001549050919050565b6001816000016000828254019250508190555050565b611ddb82826040518060200160405280600081525061231d565b5050565b611de882611ff6565b611e27576040517f08c379a0000000000000000000000000000000000000000000000000000000008152600401611e1e90613e61565b60405180910390fd5b80600660008481526020019081526020016000209081611e479190613872565b507ff8e1a15aba9398e019f0b49df1a4fde98ee17ae345cb5f6b5e2c27f5033e8ce782604051611e779190613357565b60405180910390a15050565b6060611e8e8261151b565b6000600660008481526020019081526020016000208054611eae90613571565b80601f0160208091040260200160405190810160405280929190818152602001828054611eda90613571565b8015611f275780601f10611efc57610100808354040283529160200191611f27565b820191906000526020600020905b815481529060010190602001808311611f0a57829003601f168201915b505050505090506000611f38612378565b90506000815103611f4d578192505050611f90565b600082511115611f82578082604051602001611f6a929190613ebd565b60405160208183030381529060405292505050611f90565b611f8b8461238f565b925050505b919050565b6000634906490660e01b7bffffffffffffffffffffffffffffffffffffffffffffffffffffffff1916827bffffffffffffffffffffffffffffffffffffffffffffffffffffffff19161480611fef5750611fee826123f7565b5b9050919050565b60008073ffffffffffffffffffffffffffffffffffffffff1661201883611b8c565b73ffffffffffffffffffffffffffffffffffffffff1614159050919050565b6120418282610eb2565b6120b85761204e816124d9565b61205c8360001c6020612506565b60405160200161206d929190613f79565b6040516020818303038152906040526040517f08c379a00000000000000000000000000000000000000000000000000000000081526004016120af9190612f1d565b60405180910390fd5b5050565b600073ffffffffffffffffffffffffffffffffffffffff168473ffffffffffffffffffffffffffffffffffffffff161461212b576040517f08c379a00000000000000000000000000000000000000000000000000000000081526004016121229061404b565b60405180910390fd5b61213784848484612742565b50505050565b50505050565b61214c81612748565b600060066000838152602001908152602001600020805461216c90613571565b905014612193576006600082815260200190815260200160002060006121929190612d61565b5b50565b60006121b78473ffffffffffffffffffffffffffffffffffffffff16612896565b15612310578373ffffffffffffffffffffffffffffffffffffffff1663150b7a026121e0611566565b8786866040518563ffffffff1660e01b815260040161220294939291906140c0565b6020604051808303816000875af192505050801561223e57506040513d601f19601f8201168201806040525081019061223b9190614121565b60015b6122c0573d806000811461226e576040519150601f19603f3d011682016040523d82523d6000602084013e612273565b606091505b5060008151036122b8576040517f08c379a00000000000000000000000000000000000000000000000000000000081526004016122af90613dcf565b60405180910390fd5b805181602001fd5b63150b7a0260e01b7bffffffffffffffffffffffffffffffffffffffffffffffffffffffff1916817bffffffffffffffffffffffffffffffffffffffffffffffffffffffff191614915050612315565b600190505b949350505050565b61232783836128b9565b6123346000848484612196565b612373576040517f08c379a000000000000000000000000000000000000000000000000000000000815260040161236a90613dcf565b60405180910390fd5b505050565b606060405180602001604052806000815250905090565b606061239a8261151b565b60006123a4612378565b905060008151116123c457604051806020016040528060008152506123ef565b806123ce84612ad6565b6040516020016123df929190613ebd565b6040516020818303038152906040525b915050919050565b60007f80ac58cd000000000000000000000000000000000000000000000000000000007bffffffffffffffffffffffffffffffffffffffffffffffffffffffff1916827bffffffffffffffffffffffffffffffffffffffffffffffffffffffff191614806124c257507f5b5e139f000000000000000000000000000000000000000000000000000000007bffffffffffffffffffffffffffffffffffffffffffffffffffffffff1916827bffffffffffffffffffffffffffffffffffffffffffffffffffffffff1916145b806124d257506124d182612ba4565b5b9050919050565b60606124ff8273ffffffffffffffffffffffffffffffffffffffff16601460ff16612506565b9050919050565b606060006002836002612519919061417d565b61252391906141bf565b67ffffffffffffffff81111561253c5761253b613074565b5b6040519080825280601f01601f19166020018201604052801561256e5781602001600182028036833780820191505090505b5090507f3000000000000000000000000000000000000000000000000000000000000000816000815181106125a6576125a56141f3565b5b60200101907effffffffffffffffffffffffffffffffffffffffffffffffffffffffffffff1916908160001a9053507f78000000000000000000000000000000000000000000000000000000000000008160018151811061260a576126096141f3565b5b60200101907effffffffffffffffffffffffffffffffffffffffffffffffffffffffffffff1916908160001a9053506000600184600261264a919061417d565b61265491906141bf565b90505b60018111156126f4577f3031323334353637383961626364656600000000000000000000000000000000600f861660108110612696576126956141f3565b5b1a60f81b8282815181106126ad576126ac6141f3565b5b60200101907effffffffffffffffffffffffffffffffffffffffffffffffffffffffffffff1916908160001a905350600485901c9450806126ed90614222565b9050612657565b5060008414612738576040517f08c379a000000000000000000000000000000000000000000000000000000000815260040161272f90614297565b60405180910390fd5b8091505092915050565b50505050565b600061275382610d51565b90506127638160008460016120bc565b61276c82610d51565b90506004600083815260200190815260200160002060006101000a81549073ffffffffffffffffffffffffffffffffffffffff02191690556001600360008373ffffffffffffffffffffffffffffffffffffffff1673ffffffffffffffffffffffffffffffffffffffff168152602001908152602001600020600082825403925050819055506002600083815260200190815260200160002060006101000a81549073ffffffffffffffffffffffffffffffffffffffff021916905581600073ffffffffffffffffffffffffffffffffffffffff168273ffffffffffffffffffffffffffffffffffffffff167fddf252ad1be2c89b69c2b068fc378daa952ba7f163c4a11628f55a4df523b3ef60405160405180910390a461289281600084600161213d565b5050565b6000808273ffffffffffffffffffffffffffffffffffffffff163b119050919050565b600073ffffffffffffffffffffffffffffffffffffffff168273ffffffffffffffffffffffffffffffffffffffff1603612928576040517f08c379a000000000000000000000000000000000000000000000000000000000815260040161291f90614303565b60405180910390fd5b61293181611ff6565b15612971576040517f08c379a00000000000000000000000000000000000000000000000000000000081526004016129689061436f565b60405180910390fd5b61297f6000838360016120bc565b61298881611ff6565b156129c8576040517f08c379a00000000000000000000000000000000000000000000000000000000081526004016129bf9061436f565b60405180910390fd5b6001600360008473ffffffffffffffffffffffffffffffffffffffff1673ffffffffffffffffffffffffffffffffffffffff16815260200190815260200160002060008282540192505081905550816002600083815260200190815260200160002060006101000a81548173ffffffffffffffffffffffffffffffffffffffff021916908373ffffffffffffffffffffffffffffffffffffffff160217905550808273ffffffffffffffffffffffffffffffffffffffff16600073ffffffffffffffffffffffffffffffffffffffff167fddf252ad1be2c89b69c2b068fc378daa952ba7f163c4a11628f55a4df523b3ef60405160405180910390a4612ad260008383600161213d565b5050565b606060006001612ae584612c0e565b01905060008167ffffffffffffffff811115612b0457612b03613074565b5b6040519080825280601f01601f191660200182016040528015612b365781602001600182028036833780820191505090505b509050600082602001820190505b600115612b99578080600190039150507f3031323334353637383961626364656600000000000000000000000000000000600a86061a8153600a8581612b8d57612b8c61438f565b5b04945060008503612b44575b819350505050919050565b60007f01ffc9a7000000000000000000000000000000000000000000000000000000007bffffffffffffffffffffffffffffffffffffffffffffffffffffffff1916827bffffffffffffffffffffffffffffffffffffffffffffffffffffffff1916149050919050565b600080600090507a184f03e93ff9f4daa797ed6e38ed64bf6a1f0100000000000000008310612c6c577a184f03e93ff9f4daa797ed6e38ed64bf6a1f0100000000000000008381612c6257612c6161438f565b5b0492506040810190505b6d04ee2d6d415b85acef81000000008310612ca9576d04ee2d6d415b85acef81000000008381612c9f57612c9e61438f565b5b0492506020810190505b662386f26fc100008310612cd857662386f26fc100008381612cce57612ccd61438f565b5b0492506010810190505b6305f5e1008310612d01576305f5e1008381612cf757612cf661438f565b5b0492506008810190505b6127108310612d26576127108381612d1c57612d1b61438f565b5b0492506004810190505b60648310612d495760648381612d3f57612d3e61438f565b5b0492506002810190505b600a8310612d58576001810190505b80915050919050565b508054612d6d90613571565b6000825580601f10612d7f5750612d9e565b601f016020900490600052602060002090810190612d9d9190612da1565b5b50565b5b80821115612dba576000816000905550600101612da2565b5090565b6000604051905090565b600080fd5b600080fd5b60007fffffffff0000000000000000000000000000000000000000000000000000000082169050919050565b612e0781612dd2565b8114612e1257600080fd5b50565b600081359050612e2481612dfe565b92915050565b600060208284031215612e4057612e3f612dc8565b5b6000612e4e84828501612e15565b91505092915050565b60008115159050919050565b612e6c81612e57565b82525050565b6000602082019050612e876000830184612e63565b92915050565b600081519050919050565b600082825260208201905092915050565b60005b83811015612ec7578082015181840152602081019050612eac565b60008484015250505050565b6000601f19601f8301169050919050565b6000612eef82612e8d565b612ef98185612e98565b9350612f09818560208601612ea9565b612f1281612ed3565b840191505092915050565b60006020820190508181036000830152612f378184612ee4565b905092915050565b6000819050919050565b612f5281612f3f565b8114612f5d57600080fd5b50565b600081359050612f6f81612f49565b92915050565b600060208284031215612f8b57612f8a612dc8565b5b6000612f9984828501612f60565b91505092915050565b600073ffffffffffffffffffffffffffffffffffffffff82169050919050565b6000612fcd82612fa2565b9050919050565b612fdd81612fc2565b82525050565b6000602082019050612ff86000830184612fd4565b92915050565b61300781612fc2565b811461301257600080fd5b50565b60008135905061302481612ffe565b92915050565b6000806040838503121561304157613040612dc8565b5b600061304f85828601613015565b925050602061306085828601612f60565b9150509250929050565b600080fd5b600080fd5b7f4e487b7100000000000000000000000000000000000000000000000000000000600052604160045260246000fd5b6130ac82612ed3565b810181811067ffffffffffffffff821117156130cb576130ca613074565b5b80604052505050565b60006130de612dbe565b90506130ea82826130a3565b919050565b600067ffffffffffffffff82111561310a57613109613074565b5b61311382612ed3565b9050602081019050919050565b82818337600083830152505050565b600061314261313d846130ef565b6130d4565b90508281526020810184848401111561315e5761315d61306f565b5b613169848285613120565b509392505050565b600082601f8301126131865761318561306a565b5b813561319684826020860161312f565b91505092915050565b600080604083850312156131b6576131b5612dc8565b5b60006131c485828601613015565b925050602083013567ffffffffffffffff8111156131e5576131e4612dcd565b5b6131f185828601613171565b9150509250929050565b60008060006060848603121561321457613213612dc8565b5b600061322286828701613015565b935050602061323386828701613015565b925050604061324486828701612f60565b9150509250925092565b6000819050919050565b6132618161324e565b811461326c57600080fd5b50565b60008135905061327e81613258565b92915050565b60006020828403121561329a57613299612dc8565b5b60006132a88482850161326f565b91505092915050565b6132ba8161324e565b82525050565b60006020820190506132d560008301846132b1565b92915050565b600080604083850312156132f2576132f1612dc8565b5b60006133008582860161326f565b925050602061331185828601613015565b9150509250929050565b60006020828403121561333157613330612dc8565b5b600061333f84828501613015565b91505092915050565b61335181612f3f565b82525050565b600060208201905061336c6000830184613348565b92915050565b61337b81612e57565b811461338657600080fd5b50565b60008135905061339881613372565b92915050565b600080604083850312156133b5576133b4612dc8565b5b60006133c385828601613015565b92505060206133d485828601613389565b9150509250929050565b600067ffffffffffffffff8211156133f9576133f8613074565b5b61340282612ed3565b9050602081019050919050565b600061342261341d846133de565b6130d4565b90508281526020810184848401111561343e5761343d61306f565b5b613449848285613120565b509392505050565b600082601f8301126134665761346561306a565b5b813561347684826020860161340f565b91505092915050565b6000806000806080858703121561349957613498612dc8565b5b60006134a787828801613015565b94505060206134b887828801613015565b93505060406134c987828801612f60565b925050606085013567ffffffffffffffff8111156134ea576134e9612dcd565b5b6134f687828801613451565b91505092959194509250565b6000806040838503121561351957613518612dc8565b5b600061352785828601613015565b925050602061353885828601613015565b9150509250929050565b7f4e487b7100000000000000000000000000000000000000000000000000000000600052602260045260246000fd5b6000600282049050600182168061358957607f821691505b60208210810361359c5761359b613542565b5b50919050565b7f4552433732313a20617070726f76616c20746f2063757272656e74206f776e6560008201527f7200000000000000000000000000000000000000000000000000000000000000602082015250565b60006135fe602183612e98565b9150613609826135a2565b604082019050919050565b6000602082019050818103600083015261362d816135f1565b9050919050565b7f4552433732313a20617070726f76652063616c6c6572206973206e6f7420746f60008201527f6b656e206f776e6572206f7220617070726f76656420666f7220616c6c000000602082015250565b6000613690603d83612e98565b915061369b82613634565b604082019050919050565b600060208201905081810360008301526136bf81613683565b9050919050565b60008190508160005260206000209050919050565b60006020601f8301049050919050565b600082821b905092915050565b6000600883026137287fffffffffffffffffffffffffffffffffffffffffffffffffffffffffffffffff826136eb565b61373286836136eb565b95508019841693508086168417925050509392505050565b6000819050919050565b600061376f61376a61376584612f3f565b61374a565b612f3f565b9050919050565b6000819050919050565b61378983613754565b61379d61379582613776565b8484546136f8565b825550505050565b600090565b6137b26137a5565b6137bd818484613780565b505050565b5b818110156137e1576137d66000826137aa565b6001810190506137c3565b5050565b601f821115613826576137f7816136c6565b613800846136db565b8101602085101561380f578190505b61382361381b856136db565b8301826137c2565b50505b505050565b600082821c905092915050565b60006138496000198460080261382b565b1980831691505092915050565b60006138628383613838565b9150826002028217905092915050565b61387b82612e8d565b67ffffffffffffffff81111561389457613893613074565b5b61389e8254613571565b6138a98282856137e5565b600060209050601f8311600181146138dc57600084156138ca578287015190505b6138d48582613856565b86555061393c565b601f1984166138ea866136c6565b60005b82811015613912578489015182556001820191506020850194506020810190506138ed565b8683101561392f578489015161392b601f891682613838565b8355505b6001600288020188555050505b505050505050565b60006040820190506139596000830185612fd4565b818103602083015261396b8184612ee4565b90509392505050565b7f4552433732313a2063616c6c6572206973206e6f7420746f6b656e206f776e6560008201527f72206f7220617070726f76656400000000000000000000000000000000000000602082015250565b60006139d0602d83612e98565b91506139db82613974565b604082019050919050565b600060208201905081810360008301526139ff816139c3565b9050919050565b7f416363657373436f6e74726f6c3a2063616e206f6e6c792072656e6f756e636560008201527f20726f6c657320666f722073656c660000000000000000000000000000000000602082015250565b6000613a62602f83612e98565b9150613a6d82613a06565b604082019050919050565b60006020820190508181036000830152613a9181613a55565b9050919050565b7f4552433732313a20696e76616c696420746f6b656e2049440000000000000000600082015250565b6000613ace601883612e98565b9150613ad982613a98565b602082019050919050565b60006020820190508181036000830152613afd81613ac1565b9050919050565b7f4552433732313a2061646472657373207a65726f206973206e6f74206120766160008201527f6c6964206f776e65720000000000000000000000000000000000000000000000602082015250565b6000613b60602983612e98565b9150613b6b82613b04565b604082019050919050565b60006020820190508181036000830152613b8f81613b53565b9050919050565b6000606082019050613bab6000830186612fd4565b613bb86020830185612fd4565b613bc56040830184613348565b949350505050565b7f4552433732313a207472616e736665722066726f6d20696e636f72726563742060008201527f6f776e6572000000000000000000000000000000000000000000000000000000602082015250565b6000613c29602583612e98565b9150613c3482613bcd565b604082019050919050565b60006020820190508181036000830152613c5881613c1c565b9050919050565b7f4552433732313a207472616e7366657220746f20746865207a65726f2061646460008201527f7265737300000000000000000000000000000000000000000000000000000000602082015250565b6000613cbb602483612e98565b9150613cc682613c5f565b604082019050919050565b60006020820190508181036000830152613cea81613cae565b9050919050565b7f4552433732313a20617070726f766520746f2063616c6c657200000000000000600082015250565b6000613d27601983612e98565b9150613d3282613cf1565b602082019050919050565b60006020820190508181036000830152613d5681613d1a565b9050919050565b7f4552433732313a207472616e7366657220746f206e6f6e20455243373231526560008201527f63656976657220696d706c656d656e7465720000000000000000000000000000602082015250565b6000613db9603283612e98565b9150613dc482613d5d565b604082019050919050565b60006020820190508181036000830152613de881613dac565b9050919050565b7f45524337323155524953746f726167653a2055524920736574206f66206e6f6e60008201527f6578697374656e7420746f6b656e000000000000000000000000000000000000602082015250565b6000613e4b602e83612e98565b9150613e5682613def565b604082019050919050565b60006020820190508181036000830152613e7a81613e3e565b9050919050565b600081905092915050565b6000613e9782612e8d565b613ea18185613e81565b9350613eb1818560208601612ea9565b80840191505092915050565b6000613ec98285613e8c565b9150613ed58284613e8c565b91508190509392505050565b7f416363657373436f6e74726f6c3a206163636f756e7420000000000000000000600082015250565b6000613f17601783613e81565b9150613f2282613ee1565b601782019050919050565b7f206973206d697373696e6720726f6c6520000000000000000000000000000000600082015250565b6000613f63601183613e81565b9150613f6e82613f2d565b601182019050919050565b6000613f8482613f0a565b9150613f908285613e8c565b9150613f9b82613f56565b9150613fa78284613e8c565b91508190509392505050565b7f536f756c626f756e6420746f6b656e732063616e6e6f74206265207472616e7360008201527f6665727265642c20546f6b656e207472616e7366657220697320424c4f434b4560208201527f4400000000000000000000000000000000000000000000000000000000000000604082015250565b6000614035604183612e98565b915061404082613fb3565b606082019050919050565b6000602082019050818103600083015261406481614028565b9050919050565b600081519050919050565b600082825260208201905092915050565b60006140928261406b565b61409c8185614076565b93506140ac818560208601612ea9565b6140b581612ed3565b840191505092915050565b60006080820190506140d56000830187612fd4565b6140e26020830186612fd4565b6140ef6040830185613348565b81810360608301526141018184614087565b905095945050505050565b60008151905061411b81612dfe565b92915050565b60006020828403121561413757614136612dc8565b5b60006141458482850161410c565b91505092915050565b7f4e487b7100000000000000000000000000000000000000000000000000000000600052601160045260246000fd5b600061418882612f3f565b915061419383612f3f565b92508282026141a181612f3f565b915082820484148315176141b8576141b761414e565b5b5092915050565b60006141ca82612f3f565b91506141d583612f3f565b92508282019050808211156141ed576141ec61414e565b5b92915050565b7f4e487b7100000000000000000000000000000000000000000000000000000000600052603260045260246000fd5b600061422d82612f3f565b9150600082036142405761423f61414e565b5b600182039050919050565b7f537472696e67733a20686578206c656e67746820696e73756666696369656e74600082015250565b6000614281602083612e98565b915061428c8261424b565b602082019050919050565b600060208201905081810360008301526142b081614274565b9050919050565b7f4552433732313a206d696e7420746f20746865207a65726f2061646472657373600082015250565b60006142ed602083612e98565b91506142f8826142b7565b602082019050919050565b6000602082019050818103600083015261431c816142e0565b9050919050565b7f4552433732313a20746f6b656e20616c7265616479206d696e74656400000000600082015250565b6000614359601c83612e98565b915061436482614323565b602082019050919050565b600060208201905081810360008301526143888161434c565b9050919050565b7f4e487b7100000000000000000000000000000000000000000000000000000000600052601260045260246000fdfea26469706673582212209194606dedbe311b70f485b7f7200e986a807454602af69752b0030b6439a0d064736f6c63430008120033",
  "linkReferences": {},
  "deployedLinkReferences": {}
}