{
  "_format": "hh-sol-artifact-1",
  "contractName": "SiddhiCred",
  "sourceName": "contracts/SiddhiCred.sol",
  "abi": [
    {
      "inputs": [],
      "stateMutability": "nonpayable",
      "type": "constructor"
    },
    {
      "inputs": [
        {
          "internalType": "address",
          "name": "issuerWalletAddress",
          "type": "address"
        }
      ],
      "name": "IssuerNotFound",
      "type": "error"
    },
    {
      "inputs": [
        {
          "internalType": "address",
          "name": "issuerWalletAddress",
          "type": "address"
        }
      ],
      "name": "IssuerRoleAlreadyAssigned",
      "type": "error"
    },
    {
      "inputs": [
        {
          "internalType": "address",
          "name": "walletAddress",
          "type": "address"
        }
      ],
      "name": "ProvidedPublicAddressIsIssueRole",
      "type": "error"
    },
    {
      "inputs": [
        {
          "internalType": "address",
          "name": "walletAddress",
          "type": "address"
        }
      ],
      "name": "ProvidedPublicAddressIsUserRole",
      "type": "error"
    },
    {
      "inputs": [
        {
          "internalType": "uint256",
          "name": "tokenId",
          "type": "uint256"
        }
      ],
      "name": "TokenNotFound",
      "type": "error"
    },
    {
      "inputs": [
        {
          "internalType": "address",
          "name": "walletAddress",
          "type": "address"
        }
      ],
      "name": "UserAlreadyOwnsTokens",
      "type": "error"
    },
    {
      "anonymous": false,
      "inputs": [
        {
          "indexed": true,
          "internalType": "address",
          "name": "owner",
          "type": "address"
        },
        {
          "indexed": true,
          "internalType": "address",
          "name": "approved",
          "type": "address"
        },
        {
          "indexed": true,
          "internalType": "uint256",
          "name": "tokenId",
          "type": "uint256"
        }
      ],
      "name": "Approval",
      "type": "event"
    },
    {
      "anonymous": false,
      "inputs": [
        {
          "indexed": true,
          "internalType": "address",
          "name": "owner",
          "type": "address"
        },
        {
          "indexed": true,
          "internalType": "address",
          "name": "operator",
          "type": "address"
        },
        {
          "indexed": false,
          "internalType": "bool",
          "name": "approved",
          "type": "bool"
        }
      ],
      "name": "ApprovalForAll",
      "type": "event"
    },
    {
      "anonymous": false,
      "inputs": [
        {
          "indexed": false,
          "internalType": "uint256",
          "name": "_fromTokenId",
          "type": "uint256"
        },
        {
          "indexed": false,
          "internalType": "uint256",
          "name": "_toTokenId",
          "type": "uint256"
        }
      ],
      "name": "BatchMetadataUpdate",
      "type": "event"
    },
    {
      "anonymous": false,
      "inputs": [
        {
          "indexed": false,
          "internalType": "address",
          "name": "issuerWalletAddress",
          "type": "address"
        },
        {
          "indexed": false,
          "internalType": "address",
          "name": "recipient",
          "type": "address"
        },
        {
          "indexed": false,
          "internalType": "uint256",
          "name": "tokenId",
          "type": "uint256"
        }
      ],
      "name": "CertificateIssued",
      "type": "event"
    },
    {
      "anonymous": false,
      "inputs": [
        {
          "indexed": false,
          "internalType": "address",
          "name": "issuerWalletAddress",
          "type": "address"
        },
        {
          "indexed": false,
          "internalType": "address",
          "name": "owner",
          "type": "address"
        },
        {
          "indexed": false,
          "internalType": "uint256",
          "name": "tokenId",
          "type": "uint256"
        }
      ],
      "name": "CertificateRevoked",
      "type": "event"
    },
    {
      "anonymous": false,
      "inputs": [
        {
          "indexed": false,
          "internalType": "address",
          "name": "issuerWalletAddress",
          "type": "address"
        },
        {
          "indexed": false,
          "internalType": "string",
          "name": "issuerContentHash",
          "type": "string"
        }
      ],
      "name": "IssuerCreated",
      "type": "event"
    },
    {
      "anonymous": false,
      "inputs": [
        {
          "indexed": false,
          "internalType": "address",
          "name": "issuerWalletAddress",
          "type": "address"
        },
        {
          "indexed": false,
          "internalType": "string",
          "name": "issuerContentHash",
          "type": "string"
        }
      ],
      "name": "IssuerRemoved",
      "type": "event"
    },
    {
      "anonymous": false,
      "inputs": [
        {
          "indexed": false,
          "internalType": "address",
          "name": "issuerWalletAddress",
          "type": "address"
        },
        {
          "indexed": false,
          "internalType": "string",
          "name": "issuerContentHash",
          "type": "string"
        }
      ],
      "name": "IssuerUpdated",
      "type": "event"
    },
    {
      "anonymous": false,
      "inputs": [
        {
          "indexed": false,
          "internalType": "uint256",
          "name": "_tokenId",
          "type": "uint256"
        }
      ],
      "name": "MetadataUpdate",
      "type": "event"
    },
    {
      "anonymous": false,
      "inputs": [
        {
          "indexed": true,
          "internalType": "bytes32",
          "name": "role",
          "type": "bytes32"
        },
        {
          "indexed": true,
          "internalType": "bytes32",
          "name": "previousAdminRole",
          "type": "bytes32"
        },
        {
          "indexed": true,
          "internalType": "bytes32",
          "name": "newAdminRole",
          "type": "bytes32"
        }
      ],
      "name": "RoleAdminChanged",
      "type": "event"
    },
    {
      "anonymous": false,
      "inputs": [
        {
          "indexed": true,
          "internalType": "bytes32",
          "name": "role",
          "type": "bytes32"
        },
        {
          "indexed": true,
          "internalType": "address",
          "name": "account",
          "type": "address"
        },
        {
          "indexed": true,
          "internalType": "address",
          "name": "sender",
          "type": "address"
        }
      ],
      "name": "RoleGranted",
      "type": "event"
    },
    {
      "anonymous": false,
      "inputs": [
        {
          "indexed": true,
          "internalType": "bytes32",
          "name": "role",
          "type": "bytes32"
        },
        {
          "indexed": true,
          "internalType": "address",
          "name": "account",
          "type": "address"
        },
        {
          "indexed": true,
          "internalType": "address",
          "name": "sender",
          "type": "address"
        }
      ],
      "name": "RoleRevoked",
      "type": "event"
    },
    {
      "anonymous": false,
      "inputs": [
        {
          "indexed": true,
          "internalType": "address",
          "name": "from",
          "type": "address"
        },
        {
          "indexed": true,
          "internalType": "address",
          "name": "to",
          "type": "address"
        },
        {
          "indexed": true,
          "internalType": "uint256",
          "name": "tokenId",
          "type": "uint256"
        }
      ],
      "name": "Transfer",
      "type": "event"
    },
    {
      "inputs": [],
      "name": "DEFAULT_ADMIN_ROLE",
      "outputs": [
        {
          "internalType": "bytes32",
          "name": "",
          "type": "bytes32"
        }
      ],
      "stateMutability": "view",
      "type": "function"
    },
    {
      "inputs": [],
      "name": "EARNER_ROLE",
      "outputs": [
        {
          "internalType": "bytes32",
          "name": "",
          "type": "bytes32"
        }
      ],
      "stateMutability": "view",
      "type": "function"
    },
    {
      "inputs": [],
      "name": "ISSUER_ROLE",
      "outputs": [
        {
          "internalType": "bytes32",
          "name": "",
          "type": "bytes32"
        }
      ],
      "stateMutability": "view",
      "type": "function"
    },
    {
      "inputs": [
        {
          "internalType": "address",
          "name": "",
          "type": "address"
        }
      ],
      "name": "aboutEarner",
      "outputs": [
        {
          "internalType": "string",
          "name": "",
          "type": "string"
        }
      ],
      "stateMutability": "view",
      "type": "function"
    },
    {
      "inputs": [
        {
          "internalType": "address",
          "name": "",
          "type": "address"
        }
      ],
      "name": "aboutIssuer",
      "outputs": [
        {
          "internalType": "string",
          "name": "",
          "type": "string"
        }
      ],
      "stateMutability": "view",
      "type": "function"
    },
    {
      "inputs": [],
      "name": "admin",
      "outputs": [
        {
          "internalType": "address",
          "name": "",
          "type": "address"
        }
      ],
      "stateMutability": "view",
      "type": "function"
    },
    {
      "inputs": [
        {
          "internalType": "address",
          "name": "to",
          "type": "address"
        },
        {
          "internalType": "uint256",
          "name": "tokenId",
          "type": "uint256"
        }
      ],
      "name": "approve",
      "outputs": [],
      "stateMutability": "nonpayable",
      "type": "function"
    },
    {
      "inputs": [
        {
          "internalType": "address",
          "name": "owner",
          "type": "address"
        }
      ],
      "name": "balanceOf",
      "outputs": [
        {
          "internalType": "uint256",
          "name": "",
          "type": "uint256"
        }
      ],
      "stateMutability": "view",
      "type": "function"
    },
    {
      "inputs": [
        {
          "internalType": "uint256",
          "name": "tokenId",
          "type": "uint256"
        }
      ],
      "name": "burnCertificate",
      "outputs": [],
      "stateMutability": "nonpayable",
      "type": "function"
    },
    {
      "inputs": [
        {
          "internalType": "address",
          "name": "issuerWalletAddress",
          "type": "address"
        },
        {
          "internalType": "string",
          "name": "contentHash",
          "type": "string"
        }
      ],
      "name": "createIssuer",
      "outputs": [],
      "stateMutability": "nonpayable",
      "type": "function"
    },
    {
      "inputs": [
        {
          "internalType": "uint256",
          "name": "tokenId",
          "type": "uint256"
        }
      ],
      "name": "getApproved",
      "outputs": [
        {
          "internalType": "address",
          "name": "",
          "type": "address"
        }
      ],
      "stateMutability": "view",
      "type": "function"
    },
    {
      "inputs": [
        {
          "internalType": "address",
          "name": "earnerAddress",
          "type": "address"
        }
      ],
      "name": "getEarnerAccountInfo",
      "outputs": [
        {
          "internalType": "string",
          "name": "cid",
          "type": "string"
        }
      ],
      "stateMutability": "view",
      "type": "function"
    },
    {
      "inputs": [
        {
          "internalType": "address",
          "name": "to",
          "type": "address"
        },
        {
          "internalType": "string",
          "name": "contentHash",
          "type": "string"
        }
      ],
      "name": "getFirstToken",
      "outputs": [
        {
          "internalType": "uint256",
          "name": "NFTTokenId",
          "type": "uint256"
        }
      ],
      "stateMutability": "nonpayable",
      "type": "function"
    },
    {
      "inputs": [],
      "name": "getIssuedTokenList",
      "outputs": [
        {
          "internalType": "uint256[]",
          "name": "",
          "type": "uint256[]"
        }
      ],
      "stateMutability": "view",
      "type": "function"
    },
    {
      "inputs": [
        {
          "internalType": "address",
          "name": "issuerWalletAddress",
          "type": "address"
        }
      ],
      "name": "getIssuerInfo",
      "outputs": [
        {
          "internalType": "string",
          "name": "contentHash",
          "type": "string"
        }
      ],
      "stateMutability": "view",
      "type": "function"
    },
    {
      "inputs": [],
      "name": "getIssuersList",
      "outputs": [
        {
          "internalType": "address[]",
          "name": "",
          "type": "address[]"
        }
      ],
      "stateMutability": "view",
      "type": "function"
    },
    {
      "inputs": [
        {
          "internalType": "bytes32",
          "name": "role",
          "type": "bytes32"
        }
      ],
      "name": "getRoleAdmin",
      "outputs": [
        {
          "internalType": "bytes32",
          "name": "",
          "type": "bytes32"
        }
      ],
      "stateMutability": "view",
      "type": "function"
    },
    {
      "inputs": [
        {
          "internalType": "address",
          "name": "walletAddress",
          "type": "address"
        }
      ],
      "name": "getWalletAddressRole",
      "outputs": [
        {
          "internalType": "string",
          "name": "role",
          "type": "string"
        }
      ],
      "stateMutability": "view",
      "type": "function"
    },
    {
      "inputs": [
        {
          "internalType": "bytes32",
          "name": "role",
          "type": "bytes32"
        },
        {
          "internalType": "address",
          "name": "account",
          "type": "address"
        }
      ],
      "name": "grantRole",
      "outputs": [],
      "stateMutability": "nonpayable",
      "type": "function"
    },
    {
      "inputs": [
        {
          "internalType": "bytes32",
          "name": "role",
          "type": "bytes32"
        },
        {
          "internalType": "address",
          "name": "account",
          "type": "address"
        }
      ],
      "name": "hasRole",
      "outputs": [
        {
          "internalType": "bool",
          "name": "",
          "type": "bool"
        }
      ],
      "stateMutability": "view",
      "type": "function"
    },
    {
      "inputs": [
        {
          "internalType": "address",
          "name": "owner",
          "type": "address"
        },
        {
          "internalType": "address",
          "name": "operator",
          "type": "address"
        }
      ],
      "name": "isApprovedForAll",
      "outputs": [
        {
          "internalType": "bool",
          "name": "",
          "type": "bool"
        }
      ],
      "stateMutability": "view",
      "type": "function"
    },
    {
      "inputs": [
        {
          "internalType": "address",
          "name": "to",
          "type": "address"
        },
        {
          "internalType": "string",
          "name": "contentHash",
          "type": "string"
        }
      ],
      "name": "issueCertificate",
      "outputs": [
        {
          "internalType": "uint256",
          "name": "NFTTokenId",
          "type": "uint256"
        }
      ],
      "stateMutability": "nonpayable",
      "type": "function"
    },
    {
      "inputs": [],
      "name": "name",
      "outputs": [
        {
          "internalType": "string",
          "name": "",
          "type": "string"
        }
      ],
      "stateMutability": "view",
      "type": "function"
    },
    {
      "inputs": [
        {
          "internalType": "uint256",
          "name": "tokenId",
          "type": "uint256"
        }
      ],
      "name": "ownerOf",
      "outputs": [
        {
          "internalType": "address",
          "name": "",
          "type": "address"
        }
      ],
      "stateMutability": "view",
      "type": "function"
    },
    {
      "inputs": [
        {
          "internalType": "string",
          "name": "cid",
          "type": "string"
        }
      ],
      "name": "registerEarner",
      "outputs": [],
      "stateMutability": "nonpayable",
      "type": "function"
    },
    {
      "inputs": [
        {
          "internalType": "address",
          "name": "issuerWalletAddress",
          "type": "address"
        }
      ],
      "name": "removeIssuer",
      "outputs": [],
      "stateMutability": "nonpayable",
      "type": "function"
    },
    {
      "inputs": [
        {
          "internalType": "bytes32",
          "name": "role",
          "type": "bytes32"
        },
        {
          "internalType": "address",
          "name": "account",
          "type": "address"
        }
      ],
      "name": "renounceRole",
      "outputs": [],
      "stateMutability": "nonpayable",
      "type": "function"
    },
    {
      "inputs": [
        {
          "internalType": "bytes32",
          "name": "role",
          "type": "bytes32"
        },
        {
          "internalType": "address",
          "name": "account",
          "type": "address"
        }
      ],
      "name": "revokeRole",
      "outputs": [],
      "stateMutability": "nonpayable",
      "type": "function"
    },
    {
      "inputs": [
        {
          "internalType": "address",
          "name": "from",
          "type": "address"
        },
        {
          "internalType": "address",
          "name": "to",
          "type": "address"
        },
        {
          "internalType": "uint256",
          "name": "tokenId",
          "type": "uint256"
        }
      ],
      "name": "safeTransferFrom",
      "outputs": [],
      "stateMutability": "nonpayable",
      "type": "function"
    },
    {
      "inputs": [
        {
          "internalType": "address",
          "name": "from",
          "type": "address"
        },
        {
          "internalType": "address",
          "name": "to",
          "type": "address"
        },
        {
          "internalType": "uint256",
          "name": "tokenId",
          "type": "uint256"
        },
        {
          "internalType": "bytes",
          "name": "data",
          "type": "bytes"
        }
      ],
      "name": "safeTransferFrom",
      "outputs": [],
      "stateMutability": "nonpayable",
      "type": "function"
    },
    {
      "inputs": [
        {
          "internalType": "address",
          "name": "operator",
          "type": "address"
        },
        {
          "internalType": "bool",
          "name": "approved",
          "type": "bool"
        }
      ],
      "name": "setApprovalForAll",
      "outputs": [],
      "stateMutability": "nonpayable",
      "type": "function"
    },
    {
      "inputs": [
        {
          "internalType": "bytes4",
          "name": "interfaceId",
          "type": "bytes4"
        }
      ],
      "name": "supportsInterface",
      "outputs": [
        {
          "internalType": "bool",
          "name": "",
          "type": "bool"
        }
      ],
      "stateMutability": "view",
      "type": "function"
    },
    {
      "inputs": [],
      "name": "symbol",
      "outputs": [
        {
          "internalType": "string",
          "name": "",
          "type": "string"
        }
      ],
      "stateMutability": "view",
      "type": "function"
    },
    {
      "inputs": [
        {
          "internalType": "uint256",
          "name": "index",
          "type": "uint256"
        }
      ],
      "name": "tokenByIndex",
      "outputs": [
        {
          "internalType": "uint256",
          "name": "",
          "type": "uint256"
        }
      ],
      "stateMutability": "view",
      "type": "function"
    },
    {
      "inputs": [
        {
          "internalType": "address",
          "name": "owner",
          "type": "address"
        },
        {
          "internalType": "uint256",
          "name": "index",
          "type": "uint256"
        }
      ],
      "name": "tokenOfOwnerByIndex",
      "outputs": [
        {
          "internalType": "uint256",
          "name": "",
          "type": "uint256"
        }
      ],
      "stateMutability": "view",
      "type": "function"
    },
    {
      "inputs": [
        {
          "internalType": "uint256",
          "name": "tokenId",
          "type": "uint256"
        }
      ],
      "name": "tokenURI",
      "outputs": [
        {
          "internalType": "string",
          "name": "",
          "type": "string"
        }
      ],
      "stateMutability": "view",
      "type": "function"
    },
    {
      "inputs": [],
      "name": "tokensOfOwner",
      "outputs": [
        {
          "internalType": "uint256[]",
          "name": "tokenId",
          "type": "uint256[]"
        }
      ],
      "stateMutability": "view",
      "type": "function"
    },
    {
      "inputs": [],
      "name": "totalSupply",
      "outputs": [
        {
          "internalType": "uint256",
          "name": "",
          "type": "uint256"
        }
      ],
      "stateMutability": "view",
      "type": "function"
    },
    {
      "inputs": [
        {
          "internalType": "address",
          "name": "from",
          "type": "address"
        },
        {
          "internalType": "address",
          "name": "to",
          "type": "address"
        },
        {
          "internalType": "uint256",
          "name": "tokenId",
          "type": "uint256"
        }
      ],
      "name": "transferFrom",
      "outputs": [],
      "stateMutability": "nonpayable",
      "type": "function"
    },
    {
      "inputs": [
        {
          "internalType": "string",
          "name": "newCid",
          "type": "string"
        }
      ],
      "name": "updateEarnerInfo",
      "outputs": [],
      "stateMutability": "nonpayable",
      "type": "function"
    },
    {
      "inputs": [
        {
          "internalType": "address",
          "name": "issuerWalletAddress",
          "type": "address"
        },
        {
          "internalType": "string",
          "name": "contentHash",
          "type": "string"
        }
      ],
      "name": "updateIssuer",
      "outputs": [],
      "stateMutability": "nonpayable",
      "type": "function"
    }
  ],
  "bytecode": "0x60806040523480156200001157600080fd5b506040518060400160405280601f81526020017f5369646468692043726564656e7469616c20536f756c626f756e64204e4654008152506040518060400160405280600781526020016614d0d4d093919560ca1b8152508160009081620000799190620001fc565b506001620000888282620001fc565b506200009a91506000905033620000b2565b600c80546001600160a01b03191633179055620002c8565b6000828152600b602090815260408083206001600160a01b038516845290915290205460ff1662000153576000828152600b602090815260408083206001600160a01b03851684529091529020805460ff19166001179055620001123390565b6001600160a01b0316816001600160a01b0316837f2f8788117e7eff1d82e926ec794901d17c78024a50270940304540a733656f0d60405160405180910390a45b5050565b634e487b7160e01b600052604160045260246000fd5b600181811c908216806200018257607f821691505b602082108103620001a357634e487b7160e01b600052602260045260246000fd5b50919050565b601f821115620001f757600081815260208120601f850160051c81016020861015620001d25750805b601f850160051c820191505b81811015620001f357828155600101620001de565b5050505b505050565b81516001600160401b0381111562000218576200021862000157565b62000230816200022984546200016d565b84620001a9565b602080601f8311600181146200026857600084156200024f5750858301515b600019600386901b1c1916600185901b178555620001f3565b600085815260208120601f198616915b82811015620002995788860151825594840194600190910190840162000278565b5085821015620002b85787850151600019600388901b60f8161c191681555b5050505050600190811b01905550565b6137ad80620002d86000396000f3fe608060405234801561001057600080fd5b50600436106102535760003560e01c806382aefa2411610146578063bb721aab116100c3578063dcdbb63211610087578063dcdbb63214610518578063e985e9c51461052b578063ed9cc1ce14610567578063f6a03f591461057a578063f851a4401461058d578063fa36512f146105a057600080fd5b8063bb721aab146104c4578063c66941d9146104d7578063c87b56dd146104df578063d314078b146104f2578063d547741f1461050557600080fd5b8063993e63391161010a578063993e63391461046e578063a217fddf14610483578063a22cb4651461048b578063b36c4e0d1461049e578063b88d4fde146104b157600080fd5b806382aefa241461041657806391d148541461042b57806393b16b451461043e57806395d89b411461045157806395ea0f121461045957600080fd5b80632f2ff15d116101d457806347bc70931161019857806347bc7093146103b75780634f6ccce7146103ca5780635e9aab70146103dd5780636352211e146103f057806370a082311461040357600080fd5b80632f2ff15d146103565780632f745c591461036957806336568abe1461037c57806342842e0e1461038f578063477ffce5146103a257600080fd5b80631a9699441161021b5780631a969944146102e75780631d12fb08146102fa57806323b872dd1461030d578063248a9ca31461032057806329ad9c221461034357600080fd5b806301ffc9a71461025857806306fdde0314610280578063081812fc14610295578063095ea7b3146102c057806318160ddd146102d5575b600080fd5b61026b610266366004612ed6565b6105b3565b60405190151581526020015b60405180910390f35b6102886105c4565b6040516102779190612f43565b6102a86102a3366004612f56565b610656565b6040516001600160a01b039091168152602001610277565b6102d36102ce366004612f8b565b61067d565b005b6009545b604051908152602001610277565b6102d36102f5366004613061565b610797565b6102886103083660046130af565b610911565b6102d361031b3660046130ca565b6109ab565b6102d961032e366004612f56565b6000908152600b602052604090206001015490565b6102d9610351366004613061565b6109dc565b6102d3610364366004613106565b610be6565b6102d9610377366004612f8b565b610c0b565b6102d361038a366004613106565b610ca1565b6102d361039d3660046130ca565b610d1f565b6103aa610d3a565b6040516102779190613132565b6102d36103c53660046130af565b610da9565b6102d96103d8366004612f56565b611021565b6102886103eb3660046130af565b6110b4565b6102a86103fe366004612f56565b61119e565b6102d96104113660046130af565b6111fe565b6102d960008051602061375883398151915281565b61026b610439366004613106565b611284565b6102d361044c366004612f56565b6112af565b610288611533565b610461611542565b604051610277919061317f565b6102d960008051602061373883398151915281565b6102d9600081565b6102d36104993660046131b7565b6115e3565b6102d36104ac3660046131f3565b6115ee565b6102d36104bf366004613228565b611686565b6102d96104d2366004613061565b6116be565b610461611876565b6102886104ed366004612f56565b6118ef565b6102886105003660046130af565b6118fa565b6102d3610513366004613106565b611921565b6102d36105263660046131f3565b611946565b61026b6105393660046132a4565b6001600160a01b03918216600090815260056020908152604080832093909416825291909152205460ff1690565b6102886105753660046130af565b611a83565b6102d3610588366004613061565b611a9c565b600c546102a8906001600160a01b031681565b6102886105ae3660046130af565b611b3b565b60006105be82611c0d565b92915050565b6060600080546105d3906132ce565b80601f01602080910402602001604051908101604052809291908181526020018280546105ff906132ce565b801561064c5780601f106106215761010080835404028352916020019161064c565b820191906000526020600020905b81548152906001019060200180831161062f57829003601f168201915b5050505050905090565b600061066182611c32565b506000908152600460205260409020546001600160a01b031690565b60006106888261119e565b9050806001600160a01b0316836001600160a01b0316036106fa5760405162461bcd60e51b815260206004820152602160248201527f4552433732313a20617070726f76616c20746f2063757272656e74206f776e656044820152603960f91b60648201526084015b60405180910390fd5b336001600160a01b038216148061071657506107168133610539565b6107885760405162461bcd60e51b815260206004820152603d60248201527f4552433732313a20617070726f76652063616c6c6572206973206e6f7420746f60448201527f6b656e206f776e6572206f7220617070726f76656420666f7220616c6c00000060648201526084016106f1565b6107928383611c91565b505050565b60006107a281611cff565b6107ba60008051602061375883398151915284611284565b156107e357604051632c74fc6f60e21b81526001600160a01b03841660048201526024016106f1565b6107fb60008051602061373883398151915284611284565b15610824576040516303d69b0d60e01b81526001600160a01b03841660048201526024016106f1565b600061082f846111fe565b1115610859576040516303d69b0d60e01b81526001600160a01b03841660048201526024016106f1565b61087160008051602061375883398151915284611d09565b60118054600181019091557f31ecc21a745e3968a04e9570e4425bc18fa8019c68028196b546d1669c200c680180546001600160a01b0319166001600160a01b0385169081179091556000908152600e602052604090206108d2838261334e565b507f6bb73a24fe81dad9bcb96ff68bb44f5f3725eac06578ae43b30e1636a0b72f11838360405161090492919061340e565b60405180910390a1505050565b600f602052600090815260409020805461092a906132ce565b80601f0160208091040260200160405190810160405280929190818152602001828054610956906132ce565b80156109a35780601f10610978576101008083540402835291602001916109a3565b820191906000526020600020905b81548152906001019060200180831161098657829003601f168201915b505050505081565b6109b53382611d8f565b6109d15760405162461bcd60e51b81526004016106f190613432565b610792838383611e0e565b60006109e7836111fe565b15610a715760405162461bcd60e51b815260206004820152604e60248201527f43616e6e6f74206d696e7420746f6b656e2120557365722062616c616e63652060448201527f6973206d6f7265207468616e205a65726f2028302920616e6420616c7265616460648201526d3c9037bbb739903a37b5b2b7399760911b608482015260a4016106f1565b610a8960008051602061375883398151915284611284565b15610aa65760405162461bcd60e51b81526004016106f19061347f565b610abe60008051602061373883398151915284611284565b610b445760405162461bcd60e51b815260206004820152604b60248201527f50726f7669646564207075626c69632061646472657373206d7573742072656760448201527f697374657220617320612075736572206265666f72652067657474696e67206660648201526a34b939ba103a37b5b2b71760a91b608482015260a4016106f1565b6000610b4f600d5490565b9050610b5f600d80546001019055565b610b698482611f7f565b610b738184611f99565b33600081815260106020908152604080832080546001810182559084529282902090920184905581519283526001600160a01b0387169083015281018290527f38852d3790cecf8789b659b361b1b912c0376598019c00c87b8ce9142f3c34539060600160405180910390a19392505050565b6000828152600b6020526040902060010154610c0181611cff565b6107928383611d09565b6000610c16836111fe565b8210610c785760405162461bcd60e51b815260206004820152602b60248201527f455243373231456e756d657261626c653a206f776e657220696e646578206f7560448201526a74206f6620626f756e647360a81b60648201526084016106f1565b506001600160a01b03919091166000908152600760209081526040808320938352929052205490565b6001600160a01b0381163314610d115760405162461bcd60e51b815260206004820152602f60248201527f416363657373436f6e74726f6c3a2063616e206f6e6c792072656e6f756e636560448201526e103937b632b9903337b91039b2b63360891b60648201526084016106f1565b610d1b8282612064565b5050565b61079283838360405180602001604052806000815250611686565b60606000610d4781611cff565b6011805480602002602001604051908101604052809291908181526020018280548015610d9d57602002820191906000526020600020905b81546001600160a01b03168152600190910190602001808311610d7f575b505050505091505b5090565b6000610db481611cff565b610dcc60008051602061375883398151915283611284565b610df457604051636ec3bc8560e01b81526001600160a01b03831660048201526024016106f1565b610e0c60008051602061375883398151915283612064565b601180546000918290610e20600184613509565b81548110610e3057610e3061351c565b60009182526020822001546001600160a01b031691505b82811015610ee157856001600160a01b031660118281548110610e6c57610e6c61351c565b6000918252602090912001546001600160a01b031603610ed1578160118281548110610e9a57610e9a61351c565b9060005260206000200160006101000a8154816001600160a01b0302191690836001600160a01b0316021790555060019350610ee1565b610eda81613532565b9050610e47565b508215610f1c576011805480610ef957610ef961354b565b600082815260209020810160001990810180546001600160a01b03191690550190555b6001600160a01b0385166000908152600e602052604081208054610f3f906132ce565b80601f0160208091040260200160405190810160405280929190818152602001828054610f6b906132ce565b8015610fb85780601f10610f8d57610100808354040283529160200191610fb8565b820191906000526020600020905b815481529060010190602001808311610f9b57829003601f168201915b505050505090507f2d87004a9f2eb39dc280c5cec7e8a334a43871940fb3e3ff72839f70cebff6668682604051610ff092919061340e565b60405180910390a16001600160a01b0386166000908152600e6020526040812061101991612e76565b505050505050565b600061102c60095490565b821061108f5760405162461bcd60e51b815260206004820152602c60248201527f455243373231456e756d657261626c653a20676c6f62616c20696e646578206f60448201526b7574206f6620626f756e647360a01b60648201526084016106f1565b600982815481106110a2576110a261351c565b90600052602060002001549050919050565b60606110ce60008051602061375883398151915283611284565b6110f657604051636ec3bc8560e01b81526001600160a01b03831660048201526024016106f1565b6001600160a01b0382166000908152600e602052604090208054611119906132ce565b80601f0160208091040260200160405190810160405280929190818152602001828054611145906132ce565b80156111925780601f1061116757610100808354040283529160200191611192565b820191906000526020600020905b81548152906001019060200180831161117557829003601f168201915b50505050509050919050565b6000818152600260205260408120546001600160a01b0316806105be5760405162461bcd60e51b8152602060048201526018602482015277115490cdcc8c4e881a5b9d985b1a59081d1bdad95b88125160421b60448201526064016106f1565b60006001600160a01b0382166112685760405162461bcd60e51b815260206004820152602960248201527f4552433732313a2061646472657373207a65726f206973206e6f7420612076616044820152683634b21037bbb732b960b91b60648201526084016106f1565b506001600160a01b031660009081526003602052604090205490565b6000918252600b602090815260408084206001600160a01b0393909316845291905290205460ff1690565b6000805160206137588339815191526112c781611cff565b33600090815260106020526040812054839190815b81811015611334573360009081526010602052604081208054839081106113055761130561351c565b90600052602060002001549050848103611323576001935050611334565b5061132d81613532565b90506112dc565b508161139c5760405162461bcd60e51b815260206004820152603160248201527f54686973206365727469666963617465206973206e6f742069737375656420626044820152703c9031bab93932b73a1034b9b9bab2b91760791b60648201526084016106f1565b60006113a78661119e565b90506001600160a01b0381166113d3576040516306caeb1360e41b8152600481018790526024016106f1565b33600090815260106020526040812080549082906113f2600184613509565b815481106114025761140261351c565b9060005260206000200154905060005b8281101561149a5733600090815260106020526040812080548390811061143b5761143b61351c565b906000526020600020015490508a8103611489573360009081526010602052604090208054849190849081106114735761147361351c565b600091825260209091200155506001935061149a565b5061149381613532565b9050611412565b5082156114d6573360009081526010602052604090208054806114bf576114bf61354b565b600190038181906000526020600020016000905590555b604080513381526001600160a01b03861660208201529081018a90527f172277909bd1a01a852cbc3f739956f79822e367c309debfefb68db3396a89139060600160405180910390a1611528896120cb565b505050505050505050565b6060600180546105d3906132ce565b6060600061154f336111fe565b905060008167ffffffffffffffff81111561156c5761156c612fb5565b604051908082528060200260200182016040528015611595578160200160208202803683370190505b50905060005b828110156115dc576115ad3382610c0b565b8282815181106115bf576115bf61351c565b6020908102919091010152806115d481613532565b91505061159b565b5092915050565b610d1b3383836120d4565b61160660008051602061373883398151915233611284565b61166d5760405162461bcd60e51b815260206004820152603260248201527f4f6e6c79206561726e6572207468656d73656c662063616e20757064617465206044820152713a3432b4b91034b73337b936b0ba34b7b71760711b60648201526084016106f1565b336000908152600f60205260409020610d1b828261334e565b6116903383611d8f565b6116ac5760405162461bcd60e51b81526004016106f190613432565b6116b8848484846121a2565b50505050565b60006000805160206137588339815191526116d881611cff565b6116f060008051602061375883398151915285611284565b1561170d5760405162461bcd60e51b81526004016106f19061347f565b61172560008051602061373883398151915285611284565b6117d35760405162461bcd60e51b815260206004820152606d60248201527f50726f7669646564207075626c69632061646472657373206973204e4f54205260448201527f454749535445524544206173206561726e65722c2068652f736865206d75737460648201527f2072656769737465722061732061206561726e657220746f207265636569766560848201526c1031b2b93a34b334b1b0ba329760991b60a482015260c4016106f1565b60006117de600d5490565b90506117ee600d80546001019055565b6117f88582611f7f565b6118028185611f99565b33600081815260106020908152604080832080546001810182559084529282902090920184905581519283526001600160a01b0388169083015281018290527f38852d3790cecf8789b659b361b1b912c0376598019c00c87b8ce9142f3c34539060600160405180910390a1949350505050565b606060008051602061375883398151915261189081611cff565b3360009081526010602090815260409182902080548351818402810184019094528084529091830182828015610d9d57602002820191906000526020600020905b8154815260200190600101908083116118d157505050505091505090565b60606105be826121d5565b6001600160a01b0381166000908152600f60205260409020805460609190611119906132ce565b6000828152600b602052604090206001015461193c81611cff565b6107928383612064565b61195e60008051602061375883398151915233611284565b156119b55760405162461bcd60e51b815260206004820152602160248201527f4973737565722063616e6e6f74207265676973746572206173206561726e65726044820152601760f91b60648201526084016106f1565b6119cd60008051602061373883398151915233611284565b15611a4e5760405162461bcd60e51b8152602060048201526044602482018190527f54686973206163636f756e7420697320616c7265616479207265676973746572908201527f6564206173206561726e65722c2063616e6e6f742072652d72656769737465726064820152631034ba1760e11b608482015260a4016106f1565b336000908152600f60205260409020611a67828261334e565b50611a8060008051602061373883398151915233611d09565b50565b600e602052600090815260409020805461092a906132ce565b6000611aa781611cff565b611abf60008051602061375883398151915284611284565b611ae757604051636ec3bc8560e01b81526001600160a01b03841660048201526024016106f1565b6001600160a01b0383166000908152600e60205260409020611b09838261334e565b507f1befe08676699a216ff0efeb784db78fcfaee01d0217bc3efeefa305fb97cbb9838360405161090492919061340e565b6060611b48600083611284565b15611b6e57505060408051808201909152600581526420a226a4a760d91b602082015290565b611b8660008051602061375883398151915283611284565b15611bad57505060408051808201909152600681526524a9a9aaa2a960d11b602082015290565b611bc560008051602061373883398151915283611284565b15611bec57505060408051808201909152600681526522a0a92722a960d11b602082015290565b505060408051808201909152600581526411d55154d560da1b602082015290565b60006001600160e01b03198216637965db0b60e01b14806105be57506105be826122dd565b6000818152600260205260409020546001600160a01b0316611a805760405162461bcd60e51b8152602060048201526018602482015277115490cdcc8c4e881a5b9d985b1a59081d1bdad95b88125160421b60448201526064016106f1565b600081815260046020526040902080546001600160a01b0319166001600160a01b0384169081179091558190611cc68261119e565b6001600160a01b03167f8c5be1e5ebec7d5bd14f71427d1e84f3dd0314c0f7b2291e5b200ac8c7c3b92560405160405180910390a45050565b611a808133612302565b611d138282611284565b610d1b576000828152600b602090815260408083206001600160a01b03851684529091529020805460ff19166001179055611d4b3390565b6001600160a01b0316816001600160a01b0316837f2f8788117e7eff1d82e926ec794901d17c78024a50270940304540a733656f0d60405160405180910390a45050565b600080611d9b8361119e565b9050806001600160a01b0316846001600160a01b03161480611de257506001600160a01b0380821660009081526005602090815260408083209388168352929052205460ff165b80611e065750836001600160a01b0316611dfb84610656565b6001600160a01b0316145b949350505050565b826001600160a01b0316611e218261119e565b6001600160a01b031614611e475760405162461bcd60e51b81526004016106f190613561565b6001600160a01b038216611ea95760405162461bcd60e51b8152602060048201526024808201527f4552433732313a207472616e7366657220746f20746865207a65726f206164646044820152637265737360e01b60648201526084016106f1565b611eb6838383600161235b565b826001600160a01b0316611ec98261119e565b6001600160a01b031614611eef5760405162461bcd60e51b81526004016106f190613561565b600081815260046020908152604080832080546001600160a01b03199081169091556001600160a01b0387811680865260038552838620805460001901905590871680865283862080546001019055868652600290945282852080549092168417909155905184937fddf252ad1be2c89b69c2b068fc378daa952ba7f163c4a11628f55a4df523b3ef91a4505050565b610d1b828260405180602001604052806000815250612400565b6000828152600260205260409020546001600160a01b03166120145760405162461bcd60e51b815260206004820152602e60248201527f45524337323155524953746f726167653a2055524920736574206f66206e6f6e60448201526d32bc34b9ba32b73a103a37b5b2b760911b60648201526084016106f1565b600082815260066020526040902061202c828261334e565b506040518281527ff8e1a15aba9398e019f0b49df1a4fde98ee17ae345cb5f6b5e2c27f5033e8ce79060200160405180910390a15050565b61206e8282611284565b15610d1b576000828152600b602090815260408083206001600160a01b0385168085529252808320805460ff1916905551339285917ff6391f5c32d9c69d2a47ea670b442974b53935d1edc7fd64eb21e047a839171b9190a45050565b611a8081612433565b816001600160a01b0316836001600160a01b0316036121355760405162461bcd60e51b815260206004820152601960248201527f4552433732313a20617070726f766520746f2063616c6c65720000000000000060448201526064016106f1565b6001600160a01b03838116600081815260056020908152604080832094871680845294825291829020805460ff191686151590811790915591519182527f17307eab39ab6107e8899845ad3d59bd9653f200f220920489ca2b5937696c31910160405180910390a3505050565b6121ad848484611e0e565b6121b984848484612473565b6116b85760405162461bcd60e51b81526004016106f1906135a6565b60606121e082611c32565b600082815260066020526040812080546121f9906132ce565b80601f0160208091040260200160405190810160405280929190818152602001828054612225906132ce565b80156122725780601f1061224757610100808354040283529160200191612272565b820191906000526020600020905b81548152906001019060200180831161225557829003601f168201915b50505050509050600061229060408051602081019091526000815290565b905080516000036122a2575092915050565b8151156122d45780826040516020016122bc9291906135f8565b60405160208183030381529060405292505050919050565b611e0684612574565b60006001600160e01b0319821663780e9d6360e01b14806105be57506105be826125e8565b61230c8282611284565b610d1b576123198161260d565b61232483602061261f565b604051602001612335929190613627565b60408051601f198184030181529082905262461bcd60e51b82526106f191600401612f43565b6001600160a01b038416158061237857506001600160a01b038316155b6123f45760405162461bcd60e51b815260206004820152604160248201527f536f756c626f756e6420746f6b656e732063616e6e6f74206265207472616e7360448201527f6665727265642c20546f6b656e207472616e7366657220697320424c4f434b456064820152601160fa1b608482015260a4016106f1565b6116b8848484846127bb565b61240a83836128ef565b6124176000848484612473565b6107925760405162461bcd60e51b81526004016106f1906135a6565b61243c81612a88565b60008181526006602052604090208054612455906132ce565b159050611a80576000818152600660205260408120611a8091612e76565b60006001600160a01b0384163b1561256957604051630a85bd0160e11b81526001600160a01b0385169063150b7a02906124b790339089908890889060040161369c565b6020604051808303816000875af19250505080156124f2575060408051601f3d908101601f191682019092526124ef918101906136d9565b60015b61254f573d808015612520576040519150601f19603f3d011682016040523d82523d6000602084013e612525565b606091505b5080516000036125475760405162461bcd60e51b81526004016106f1906135a6565b805181602001fd5b6001600160e01b031916630a85bd0160e11b149050611e06565b506001949350505050565b606061257f82611c32565b600061259660408051602081019091526000815290565b905060008151116125b657604051806020016040528060008152506125e1565b806125c084612b2b565b6040516020016125d19291906135f8565b6040516020818303038152906040525b9392505050565b60006001600160e01b03198216632483248360e11b14806105be57506105be82612bbe565b60606105be6001600160a01b03831660145b6060600061262e8360026136f6565b61263990600261370d565b67ffffffffffffffff81111561265157612651612fb5565b6040519080825280601f01601f19166020018201604052801561267b576020820181803683370190505b509050600360fc1b816000815181106126965761269661351c565b60200101906001600160f81b031916908160001a905350600f60fb1b816001815181106126c5576126c561351c565b60200101906001600160f81b031916908160001a90535060006126e98460026136f6565b6126f490600161370d565b90505b600181111561276c576f181899199a1a9b1b9c1cb0b131b232b360811b85600f16601081106127285761272861351c565b1a60f81b82828151811061273e5761273e61351c565b60200101906001600160f81b031916908160001a90535060049490941c9361276581613720565b90506126f7565b5083156125e15760405162461bcd60e51b815260206004820181905260248201527f537472696e67733a20686578206c656e67746820696e73756666696369656e7460448201526064016106f1565b600181111561282a5760405162461bcd60e51b815260206004820152603560248201527f455243373231456e756d657261626c653a20636f6e7365637574697665207472604482015274185b9cd9995c9cc81b9bdd081cdd5c1c1bdc9d1959605a1b60648201526084016106f1565b816001600160a01b0385166128865761288181600980546000838152600a60205260408120829055600182018355919091527f6e1540171b6c0c960b71a7020d9f60077f6af931a8bbf590da0223dacf75c7af0155565b6128a9565b836001600160a01b0316856001600160a01b0316146128a9576128a98582612c0e565b6001600160a01b0384166128c5576128c081612cab565b6128e8565b846001600160a01b0316846001600160a01b0316146128e8576128e88482612d5a565b5050505050565b6001600160a01b0382166129455760405162461bcd60e51b815260206004820181905260248201527f4552433732313a206d696e7420746f20746865207a65726f206164647265737360448201526064016106f1565b6000818152600260205260409020546001600160a01b0316156129aa5760405162461bcd60e51b815260206004820152601c60248201527f4552433732313a20746f6b656e20616c7265616479206d696e7465640000000060448201526064016106f1565b6129b860008383600161235b565b6000818152600260205260409020546001600160a01b031615612a1d5760405162461bcd60e51b815260206004820152601c60248201527f4552433732313a20746f6b656e20616c7265616479206d696e7465640000000060448201526064016106f1565b6001600160a01b038216600081815260036020908152604080832080546001019055848352600290915280822080546001600160a01b0319168417905551839291907fddf252ad1be2c89b69c2b068fc378daa952ba7f163c4a11628f55a4df523b3ef908290a45050565b6000612a938261119e565b9050612aa381600084600161235b565b612aac8261119e565b600083815260046020908152604080832080546001600160a01b03199081169091556001600160a01b0385168085526003845282852080546000190190558785526002909352818420805490911690555192935084927fddf252ad1be2c89b69c2b068fc378daa952ba7f163c4a11628f55a4df523b3ef908390a45050565b60606000612b3883612d9e565b600101905060008167ffffffffffffffff811115612b5857612b58612fb5565b6040519080825280601f01601f191660200182016040528015612b82576020820181803683370190505b5090508181016020015b600019016f181899199a1a9b1b9c1cb0b131b232b360811b600a86061a8153600a8504945084612b8c57509392505050565b60006001600160e01b031982166380ac58cd60e01b1480612bef57506001600160e01b03198216635b5e139f60e01b145b806105be57506301ffc9a760e01b6001600160e01b03198316146105be565b60006001612c1b846111fe565b612c259190613509565b600083815260086020526040902054909150808214612c78576001600160a01b03841660009081526007602090815260408083208584528252808320548484528184208190558352600890915290208190555b5060009182526008602090815260408084208490556001600160a01b039094168352600781528383209183525290812055565b600954600090612cbd90600190613509565b6000838152600a602052604081205460098054939450909284908110612ce557612ce561351c565b906000526020600020015490508060098381548110612d0657612d0661351c565b6000918252602080832090910192909255828152600a90915260408082208490558582528120556009805480612d3e57612d3e61354b565b6001900381819060005260206000200160009055905550505050565b6000612d65836111fe565b6001600160a01b039093166000908152600760209081526040808320868452825280832085905593825260089052919091209190915550565b60008072184f03e93ff9f4daa797ed6e38ed64bf6a1f0160401b8310612ddd5772184f03e93ff9f4daa797ed6e38ed64bf6a1f0160401b830492506040015b6d04ee2d6d415b85acef81000000008310612e09576d04ee2d6d415b85acef8100000000830492506020015b662386f26fc100008310612e2757662386f26fc10000830492506010015b6305f5e1008310612e3f576305f5e100830492506008015b6127108310612e5357612710830492506004015b60648310612e65576064830492506002015b600a83106105be5760010192915050565b508054612e82906132ce565b6000825580601f10612e92575050565b601f016020900490600052602060002090810190611a8091905b80821115610da55760008155600101612eac565b6001600160e01b031981168114611a8057600080fd5b600060208284031215612ee857600080fd5b81356125e181612ec0565b60005b83811015612f0e578181015183820152602001612ef6565b50506000910152565b60008151808452612f2f816020860160208601612ef3565b601f01601f19169290920160200192915050565b6020815260006125e16020830184612f17565b600060208284031215612f6857600080fd5b5035919050565b80356001600160a01b0381168114612f8657600080fd5b919050565b60008060408385031215612f9e57600080fd5b612fa783612f6f565b946020939093013593505050565b634e487b7160e01b600052604160045260246000fd5b600067ffffffffffffffff80841115612fe657612fe6612fb5565b604051601f8501601f19908116603f0116810190828211818310171561300e5761300e612fb5565b8160405280935085815286868601111561302757600080fd5b858560208301376000602087830101525050509392505050565b600082601f83011261305257600080fd5b6125e183833560208501612fcb565b6000806040838503121561307457600080fd5b61307d83612f6f565b9150602083013567ffffffffffffffff81111561309957600080fd5b6130a585828601613041565b9150509250929050565b6000602082840312156130c157600080fd5b6125e182612f6f565b6000806000606084860312156130df57600080fd5b6130e884612f6f565b92506130f660208501612f6f565b9150604084013590509250925092565b6000806040838503121561311957600080fd5b8235915061312960208401612f6f565b90509250929050565b6020808252825182820181905260009190848201906040850190845b818110156131735783516001600160a01b03168352928401929184019160010161314e565b50909695505050505050565b6020808252825182820181905260009190848201906040850190845b818110156131735783518352928401929184019160010161319b565b600080604083850312156131ca57600080fd5b6131d383612f6f565b9150602083013580151581146131e857600080fd5b809150509250929050565b60006020828403121561320557600080fd5b813567ffffffffffffffff81111561321c57600080fd5b611e0684828501613041565b6000806000806080858703121561323e57600080fd5b61324785612f6f565b935061325560208601612f6f565b925060408501359150606085013567ffffffffffffffff81111561327857600080fd5b8501601f8101871361328957600080fd5b61329887823560208401612fcb565b91505092959194509250565b600080604083850312156132b757600080fd5b6132c083612f6f565b915061312960208401612f6f565b600181811c908216806132e257607f821691505b60208210810361330257634e487b7160e01b600052602260045260246000fd5b50919050565b601f82111561079257600081815260208120601f850160051c8101602086101561332f5750805b601f850160051c820191505b818110156110195782815560010161333b565b815167ffffffffffffffff81111561336857613368612fb5565b61337c8161337684546132ce565b84613308565b602080601f8311600181146133b157600084156133995750858301515b600019600386901b1c1916600185901b178555611019565b600085815260208120601f198616915b828110156133e0578886015182559484019460019091019084016133c1565b50858210156133fe5787850151600019600388901b60f8161c191681555b5050505050600190811b01905550565b6001600160a01b0383168152604060208201819052600090611e0690830184612f17565b6020808252602d908201527f4552433732313a2063616c6c6572206973206e6f7420746f6b656e206f776e6560408201526c1c881bdc88185c1c1c9bdd9959609a1b606082015260800190565b6020808252604e908201527f50726f7669646564207075626c6963206164647265737320697320616c72656160408201527f647920697373756572212043616e6e6f7420697373756520636572746966696360608201526d30ba32903a379034b9b9bab2b91760911b608082015260a00190565b634e487b7160e01b600052601160045260246000fd5b818103818111156105be576105be6134f3565b634e487b7160e01b600052603260045260246000fd5b600060018201613544576135446134f3565b5060010190565b634e487b7160e01b600052603160045260246000fd5b60208082526025908201527f4552433732313a207472616e736665722066726f6d20696e636f72726563742060408201526437bbb732b960d91b606082015260800190565b60208082526032908201527f4552433732313a207472616e7366657220746f206e6f6e20455243373231526560408201527131b2b4bb32b91034b6b83632b6b2b73a32b960711b606082015260800190565b6000835161360a818460208801612ef3565b83519083019061361e818360208801612ef3565b01949350505050565b7f416363657373436f6e74726f6c3a206163636f756e742000000000000000000081526000835161365f816017850160208801612ef3565b7001034b99036b4b9b9b4b733903937b6329607d1b6017918401918201528351613690816028840160208801612ef3565b01602801949350505050565b6001600160a01b03858116825284166020820152604081018390526080606082018190526000906136cf90830184612f17565b9695505050505050565b6000602082840312156136eb57600080fd5b81516125e181612ec0565b80820281158282048414176105be576105be6134f3565b808201808211156105be576105be6134f3565b60008161372f5761372f6134f3565b50600019019056fe02b4ac8ec2c1b44298510d751d3d3831509e217ba2ee0efc93e45044c79103f176afa8a5929fef1b4c03674b2152ae5aaad1d974b8a4021c59477bcc846ccc1ea26469706673582212202bea1acaa2eff7e130494af66f86fa7554c6714cabb9172497310a2592e8976164736f6c63430008120033",
  "linkReferences": {},
  "deployedLinkReferences": {}
}