{
  "_format": "hh-sol-artifact-1",
  "contractName": "SiddhiCred",
  "sourceName": "contracts/SiddhiCred.sol",
  "abi": [
    {
      "inputs": [],
      "stateMutability": "nonpayable",
      "type": "constructor"
    },
    {
      "inputs": [
        {
          "internalType": "address",
          "name": "issuerWalletAddress",
          "type": "address"
        }
      ],
      "name": "IssuerNotFound",
      "type": "error"
    },
    {
      "inputs": [
        {
          "internalType": "address",
          "name": "issuerWalletAddress",
          "type": "address"
        }
      ],
      "name": "IssuerRoleAlreadyAssigned",
      "type": "error"
    },
    {
      "inputs": [
        {
          "internalType": "uint256",
          "name": "tokenId",
          "type": "uint256"
        }
      ],
      "name": "TokenNotFound",
      "type": "error"
    },
    {
      "anonymous": false,
      "inputs": [
        {
          "indexed": true,
          "internalType": "address",
          "name": "owner",
          "type": "address"
        },
        {
          "indexed": true,
          "internalType": "address",
          "name": "approved",
          "type": "address"
        },
        {
          "indexed": true,
          "internalType": "uint256",
          "name": "tokenId",
          "type": "uint256"
        }
      ],
      "name": "Approval",
      "type": "event"
    },
    {
      "anonymous": false,
      "inputs": [
        {
          "indexed": true,
          "internalType": "address",
          "name": "owner",
          "type": "address"
        },
        {
          "indexed": true,
          "internalType": "address",
          "name": "operator",
          "type": "address"
        },
        {
          "indexed": false,
          "internalType": "bool",
          "name": "approved",
          "type": "bool"
        }
      ],
      "name": "ApprovalForAll",
      "type": "event"
    },
    {
      "anonymous": false,
      "inputs": [
        {
          "indexed": false,
          "internalType": "uint256",
          "name": "_fromTokenId",
          "type": "uint256"
        },
        {
          "indexed": false,
          "internalType": "uint256",
          "name": "_toTokenId",
          "type": "uint256"
        }
      ],
      "name": "BatchMetadataUpdate",
      "type": "event"
    },
    {
      "anonymous": false,
      "inputs": [
        {
          "indexed": false,
          "internalType": "address",
          "name": "issuerWalletAddress",
          "type": "address"
        },
        {
          "indexed": false,
          "internalType": "address",
          "name": "recipient",
          "type": "address"
        },
        {
          "indexed": false,
          "internalType": "uint256",
          "name": "tokenId",
          "type": "uint256"
        }
      ],
      "name": "CertificateIssued",
      "type": "event"
    },
    {
      "anonymous": false,
      "inputs": [
        {
          "indexed": false,
          "internalType": "address",
          "name": "issuerWalletAddress",
          "type": "address"
        },
        {
          "indexed": false,
          "internalType": "address",
          "name": "owner",
          "type": "address"
        },
        {
          "indexed": false,
          "internalType": "uint256",
          "name": "tokenId",
          "type": "uint256"
        }
      ],
      "name": "CertificateRevoked",
      "type": "event"
    },
    {
      "anonymous": false,
      "inputs": [
        {
          "indexed": false,
          "internalType": "address",
          "name": "issuerWalletAddress",
          "type": "address"
        },
        {
          "indexed": false,
          "internalType": "string",
          "name": "issuerContentHash",
          "type": "string"
        }
      ],
      "name": "IssuerCreated",
      "type": "event"
    },
    {
      "anonymous": false,
      "inputs": [
        {
          "indexed": false,
          "internalType": "address",
          "name": "issuerWalletAddress",
          "type": "address"
        },
        {
          "indexed": false,
          "internalType": "string",
          "name": "issuerContentHash",
          "type": "string"
        }
      ],
      "name": "IssuerRemoved",
      "type": "event"
    },
    {
      "anonymous": false,
      "inputs": [
        {
          "indexed": false,
          "internalType": "address",
          "name": "issuerWalletAddress",
          "type": "address"
        },
        {
          "indexed": false,
          "internalType": "string",
          "name": "issuerContentHash",
          "type": "string"
        }
      ],
      "name": "IssuerUpdated",
      "type": "event"
    },
    {
      "anonymous": false,
      "inputs": [
        {
          "indexed": false,
          "internalType": "uint256",
          "name": "_tokenId",
          "type": "uint256"
        }
      ],
      "name": "MetadataUpdate",
      "type": "event"
    },
    {
      "anonymous": false,
      "inputs": [
        {
          "indexed": true,
          "internalType": "bytes32",
          "name": "role",
          "type": "bytes32"
        },
        {
          "indexed": true,
          "internalType": "bytes32",
          "name": "previousAdminRole",
          "type": "bytes32"
        },
        {
          "indexed": true,
          "internalType": "bytes32",
          "name": "newAdminRole",
          "type": "bytes32"
        }
      ],
      "name": "RoleAdminChanged",
      "type": "event"
    },
    {
      "anonymous": false,
      "inputs": [
        {
          "indexed": true,
          "internalType": "bytes32",
          "name": "role",
          "type": "bytes32"
        },
        {
          "indexed": true,
          "internalType": "address",
          "name": "account",
          "type": "address"
        },
        {
          "indexed": true,
          "internalType": "address",
          "name": "sender",
          "type": "address"
        }
      ],
      "name": "RoleGranted",
      "type": "event"
    },
    {
      "anonymous": false,
      "inputs": [
        {
          "indexed": true,
          "internalType": "bytes32",
          "name": "role",
          "type": "bytes32"
        },
        {
          "indexed": true,
          "internalType": "address",
          "name": "account",
          "type": "address"
        },
        {
          "indexed": true,
          "internalType": "address",
          "name": "sender",
          "type": "address"
        }
      ],
      "name": "RoleRevoked",
      "type": "event"
    },
    {
      "anonymous": false,
      "inputs": [
        {
          "indexed": true,
          "internalType": "address",
          "name": "from",
          "type": "address"
        },
        {
          "indexed": true,
          "internalType": "address",
          "name": "to",
          "type": "address"
        },
        {
          "indexed": true,
          "internalType": "uint256",
          "name": "tokenId",
          "type": "uint256"
        }
      ],
      "name": "Transfer",
      "type": "event"
    },
    {
      "inputs": [],
      "name": "DEFAULT_ADMIN_ROLE",
      "outputs": [
        {
          "internalType": "bytes32",
          "name": "",
          "type": "bytes32"
        }
      ],
      "stateMutability": "view",
      "type": "function"
    },
    {
      "inputs": [],
      "name": "ISSUER_ROLE",
      "outputs": [
        {
          "internalType": "bytes32",
          "name": "",
          "type": "bytes32"
        }
      ],
      "stateMutability": "view",
      "type": "function"
    },
    {
      "inputs": [],
      "name": "admin",
      "outputs": [
        {
          "internalType": "address",
          "name": "",
          "type": "address"
        }
      ],
      "stateMutability": "view",
      "type": "function"
    },
    {
      "inputs": [
        {
          "internalType": "address",
          "name": "to",
          "type": "address"
        },
        {
          "internalType": "uint256",
          "name": "tokenId",
          "type": "uint256"
        }
      ],
      "name": "approve",
      "outputs": [],
      "stateMutability": "nonpayable",
      "type": "function"
    },
    {
      "inputs": [
        {
          "internalType": "address",
          "name": "owner",
          "type": "address"
        }
      ],
      "name": "balanceOf",
      "outputs": [
        {
          "internalType": "uint256",
          "name": "",
          "type": "uint256"
        }
      ],
      "stateMutability": "view",
      "type": "function"
    },
    {
      "inputs": [
        {
          "internalType": "uint256",
          "name": "tokenId",
          "type": "uint256"
        }
      ],
      "name": "burnCertificate",
      "outputs": [],
      "stateMutability": "nonpayable",
      "type": "function"
    },
    {
      "inputs": [
        {
          "internalType": "address",
          "name": "issuerWalletAddress",
          "type": "address"
        },
        {
          "internalType": "string",
          "name": "contentHash",
          "type": "string"
        }
      ],
      "name": "createIssuer",
      "outputs": [],
      "stateMutability": "nonpayable",
      "type": "function"
    },
    {
      "inputs": [
        {
          "internalType": "uint256",
          "name": "tokenId",
          "type": "uint256"
        }
      ],
      "name": "getApproved",
      "outputs": [
        {
          "internalType": "address",
          "name": "",
          "type": "address"
        }
      ],
      "stateMutability": "view",
      "type": "function"
    },
    {
      "inputs": [
        {
          "internalType": "address",
          "name": "issuerWalletAddress",
          "type": "address"
        }
      ],
      "name": "getIssuerInfo",
      "outputs": [
        {
          "internalType": "string",
          "name": "contentHash",
          "type": "string"
        }
      ],
      "stateMutability": "view",
      "type": "function"
    },
    {
      "inputs": [
        {
          "internalType": "bytes32",
          "name": "role",
          "type": "bytes32"
        }
      ],
      "name": "getRoleAdmin",
      "outputs": [
        {
          "internalType": "bytes32",
          "name": "",
          "type": "bytes32"
        }
      ],
      "stateMutability": "view",
      "type": "function"
    },
    {
      "inputs": [
        {
          "internalType": "address",
          "name": "walletAddress",
          "type": "address"
        }
      ],
      "name": "getWalletAddressRole",
      "outputs": [
        {
          "internalType": "string",
          "name": "role",
          "type": "string"
        }
      ],
      "stateMutability": "view",
      "type": "function"
    },
    {
      "inputs": [
        {
          "internalType": "bytes32",
          "name": "role",
          "type": "bytes32"
        },
        {
          "internalType": "address",
          "name": "account",
          "type": "address"
        }
      ],
      "name": "grantRole",
      "outputs": [],
      "stateMutability": "nonpayable",
      "type": "function"
    },
    {
      "inputs": [
        {
          "internalType": "bytes32",
          "name": "role",
          "type": "bytes32"
        },
        {
          "internalType": "address",
          "name": "account",
          "type": "address"
        }
      ],
      "name": "hasRole",
      "outputs": [
        {
          "internalType": "bool",
          "name": "",
          "type": "bool"
        }
      ],
      "stateMutability": "view",
      "type": "function"
    },
    {
      "inputs": [
        {
          "internalType": "address",
          "name": "owner",
          "type": "address"
        },
        {
          "internalType": "address",
          "name": "operator",
          "type": "address"
        }
      ],
      "name": "isApprovedForAll",
      "outputs": [
        {
          "internalType": "bool",
          "name": "",
          "type": "bool"
        }
      ],
      "stateMutability": "view",
      "type": "function"
    },
    {
      "inputs": [
        {
          "internalType": "address",
          "name": "to",
          "type": "address"
        },
        {
          "internalType": "string",
          "name": "contentHash",
          "type": "string"
        }
      ],
      "name": "issueCertificate",
      "outputs": [
        {
          "internalType": "uint256",
          "name": "NFTTokenId",
          "type": "uint256"
        }
      ],
      "stateMutability": "nonpayable",
      "type": "function"
    },
    {
      "inputs": [],
      "name": "name",
      "outputs": [
        {
          "internalType": "string",
          "name": "",
          "type": "string"
        }
      ],
      "stateMutability": "view",
      "type": "function"
    },
    {
      "inputs": [
        {
          "internalType": "uint256",
          "name": "tokenId",
          "type": "uint256"
        }
      ],
      "name": "ownerOf",
      "outputs": [
        {
          "internalType": "address",
          "name": "",
          "type": "address"
        }
      ],
      "stateMutability": "view",
      "type": "function"
    },
    {
      "inputs": [
        {
          "internalType": "address",
          "name": "issuerWalletAddress",
          "type": "address"
        }
      ],
      "name": "removeIssuer",
      "outputs": [],
      "stateMutability": "nonpayable",
      "type": "function"
    },
    {
      "inputs": [
        {
          "internalType": "bytes32",
          "name": "role",
          "type": "bytes32"
        },
        {
          "internalType": "address",
          "name": "account",
          "type": "address"
        }
      ],
      "name": "renounceRole",
      "outputs": [],
      "stateMutability": "nonpayable",
      "type": "function"
    },
    {
      "inputs": [
        {
          "internalType": "bytes32",
          "name": "role",
          "type": "bytes32"
        },
        {
          "internalType": "address",
          "name": "account",
          "type": "address"
        }
      ],
      "name": "revokeRole",
      "outputs": [],
      "stateMutability": "nonpayable",
      "type": "function"
    },
    {
      "inputs": [
        {
          "internalType": "address",
          "name": "from",
          "type": "address"
        },
        {
          "internalType": "address",
          "name": "to",
          "type": "address"
        },
        {
          "internalType": "uint256",
          "name": "tokenId",
          "type": "uint256"
        }
      ],
      "name": "safeTransferFrom",
      "outputs": [],
      "stateMutability": "nonpayable",
      "type": "function"
    },
    {
      "inputs": [
        {
          "internalType": "address",
          "name": "from",
          "type": "address"
        },
        {
          "internalType": "address",
          "name": "to",
          "type": "address"
        },
        {
          "internalType": "uint256",
          "name": "tokenId",
          "type": "uint256"
        },
        {
          "internalType": "bytes",
          "name": "data",
          "type": "bytes"
        }
      ],
      "name": "safeTransferFrom",
      "outputs": [],
      "stateMutability": "nonpayable",
      "type": "function"
    },
    {
      "inputs": [
        {
          "internalType": "address",
          "name": "operator",
          "type": "address"
        },
        {
          "internalType": "bool",
          "name": "approved",
          "type": "bool"
        }
      ],
      "name": "setApprovalForAll",
      "outputs": [],
      "stateMutability": "nonpayable",
      "type": "function"
    },
    {
      "inputs": [
        {
          "internalType": "bytes4",
          "name": "interfaceId",
          "type": "bytes4"
        }
      ],
      "name": "supportsInterface",
      "outputs": [
        {
          "internalType": "bool",
          "name": "",
          "type": "bool"
        }
      ],
      "stateMutability": "view",
      "type": "function"
    },
    {
      "inputs": [],
      "name": "symbol",
      "outputs": [
        {
          "internalType": "string",
          "name": "",
          "type": "string"
        }
      ],
      "stateMutability": "view",
      "type": "function"
    },
    {
      "inputs": [
        {
          "internalType": "uint256",
          "name": "tokenId",
          "type": "uint256"
        }
      ],
      "name": "tokenURI",
      "outputs": [
        {
          "internalType": "string",
          "name": "",
          "type": "string"
        }
      ],
      "stateMutability": "view",
      "type": "function"
    },
    {
      "inputs": [
        {
          "internalType": "address",
          "name": "from",
          "type": "address"
        },
        {
          "internalType": "address",
          "name": "to",
          "type": "address"
        },
        {
          "internalType": "uint256",
          "name": "tokenId",
          "type": "uint256"
        }
      ],
      "name": "transferFrom",
      "outputs": [],
      "stateMutability": "nonpayable",
      "type": "function"
    },
    {
      "inputs": [
        {
          "internalType": "address",
          "name": "issuerWalletAddress",
          "type": "address"
        },
        {
          "internalType": "string",
          "name": "contentHash",
          "type": "string"
        }
      ],
      "name": "updateIssuer",
      "outputs": [],
      "stateMutability": "nonpayable",
      "type": "function"
    }
  ],
  "bytecode": "0x60806040523480156200001157600080fd5b506040518060400160405280601f81526020017f5369646468692043726564656e7469616c20536f756c626f756e64204e4654008152506040518060400160405280600781526020017f534353424e46540000000000000000000000000000000000000000000000000081525081600090816200008f9190620004df565b508060019081620000a19190620004df565b505050620000b96000801b336200010060201b60201c565b33600860006101000a81548173ffffffffffffffffffffffffffffffffffffffff021916908373ffffffffffffffffffffffffffffffffffffffff160217905550620005c6565b620001128282620001f260201b60201c565b620001ee5760016007600084815260200190815260200160002060000160008373ffffffffffffffffffffffffffffffffffffffff1673ffffffffffffffffffffffffffffffffffffffff16815260200190815260200160002060006101000a81548160ff021916908315150217905550620001936200025d60201b60201c565b73ffffffffffffffffffffffffffffffffffffffff168173ffffffffffffffffffffffffffffffffffffffff16837f2f8788117e7eff1d82e926ec794901d17c78024a50270940304540a733656f0d60405160405180910390a45b5050565b60006007600084815260200190815260200160002060000160008373ffffffffffffffffffffffffffffffffffffffff1673ffffffffffffffffffffffffffffffffffffffff16815260200190815260200160002060009054906101000a900460ff16905092915050565b600033905090565b600081519050919050565b7f4e487b7100000000000000000000000000000000000000000000000000000000600052604160045260246000fd5b7f4e487b7100000000000000000000000000000000000000000000000000000000600052602260045260246000fd5b60006002820490506001821680620002e757607f821691505b602082108103620002fd57620002fc6200029f565b5b50919050565b60008190508160005260206000209050919050565b60006020601f8301049050919050565b600082821b905092915050565b600060088302620003677fffffffffffffffffffffffffffffffffffffffffffffffffffffffffffffffff8262000328565b62000373868362000328565b95508019841693508086168417925050509392505050565b6000819050919050565b6000819050919050565b6000620003c0620003ba620003b4846200038b565b62000395565b6200038b565b9050919050565b6000819050919050565b620003dc836200039f565b620003f4620003eb82620003c7565b84845462000335565b825550505050565b600090565b6200040b620003fc565b62000418818484620003d1565b505050565b5b8181101562000440576200043460008262000401565b6001810190506200041e565b5050565b601f8211156200048f57620004598162000303565b620004648462000318565b8101602085101562000474578190505b6200048c620004838562000318565b8301826200041d565b50505b505050565b600082821c905092915050565b6000620004b46000198460080262000494565b1980831691505092915050565b6000620004cf8383620004a1565b9150826002028217905092915050565b620004ea8262000265565b67ffffffffffffffff81111562000506576200050562000270565b5b620005128254620002ce565b6200051f82828562000444565b600060209050601f83116001811462000557576000841562000542578287015190505b6200054e8582620004c1565b865550620005be565b601f198416620005678662000303565b60005b8281101562000591578489015182556001820191506020850194506020810190506200056a565b86831015620005b15784890151620005ad601f891682620004a1565b8355505b6001600288020188555050505b505050505050565b61440f80620005d66000396000f3fe608060405234801561001057600080fd5b50600436106101c45760003560e01c806382aefa24116100f9578063bb721aab11610097578063e985e9c511610071578063e985e9c514610525578063f6a03f5914610555578063f851a44014610571578063fa36512f1461058f576101c4565b8063bb721aab146104a9578063c87b56dd146104d9578063d547741f14610509576101c4565b806395d89b41116100d357806395d89b4114610435578063a217fddf14610453578063a22cb46514610471578063b88d4fde1461048d576101c4565b806382aefa24146103cb57806391d14854146103e957806393b16b4514610419576101c4565b80632f2ff15d1161016657806347bc70931161014057806347bc70931461031f5780635e9aab701461033b5780636352211e1461036b57806370a082311461039b576101c4565b80632f2ff15d146102cb57806336568abe146102e757806342842e0e14610303576101c4565b8063095ea7b3116101a2578063095ea7b3146102475780631a9699441461026357806323b872dd1461027f578063248a9ca31461029b576101c4565b806301ffc9a7146101c957806306fdde03146101f9578063081812fc14610217575b600080fd5b6101e360048036038101906101de9190612e45565b6105bf565b6040516101f09190612e8d565b60405180910390f35b6102016105d1565b60405161020e9190612f38565b60405180910390f35b610231600480360381019061022c9190612f90565b610663565b60405161023e9190612ffe565b60405180910390f35b610261600480360381019061025c9190613045565b6106a9565b005b61027d600480360381019061027891906131ba565b6107c0565b005b61029960048036038101906102949190613216565b6108ee565b005b6102b560048036038101906102b0919061329f565b61094e565b6040516102c291906132db565b60405180910390f35b6102e560048036038101906102e091906132f6565b61096e565b005b61030160048036038101906102fc91906132f6565b61098f565b005b61031d60048036038101906103189190613216565b610a12565b005b61033960048036038101906103349190613336565b610a32565b005b61035560048036038101906103509190613336565b610c29565b6040516103629190612f38565b60405180910390f35b61038560048036038101906103809190612f90565b610d65565b6040516103929190612ffe565b60405180910390f35b6103b560048036038101906103b09190613336565b610deb565b6040516103c29190613372565b60405180910390f35b6103d3610ea2565b6040516103e091906132db565b60405180910390f35b61040360048036038101906103fe91906132f6565b610ec6565b6040516104109190612e8d565b60405180910390f35b610433600480360381019061042e9190612f90565b610f31565b005b61043d611022565b60405161044a9190612f38565b60405180910390f35b61045b6110b4565b60405161046891906132db565b60405180910390f35b61048b600480360381019061048691906133b9565b6110bb565b005b6104a760048036038101906104a2919061349a565b6110d1565b005b6104c360048036038101906104be91906131ba565b611133565b6040516104d09190613372565b60405180910390f35b6104f360048036038101906104ee9190612f90565b6111d1565b6040516105009190612f38565b60405180910390f35b610523600480360381019061051e91906132f6565b6111e3565b005b61053f600480360381019061053a919061351d565b611204565b60405161054c9190612e8d565b60405180910390f35b61056f600480360381019061056a91906131ba565b611298565b005b61057961139b565b6040516105869190612ffe565b60405180910390f35b6105a960048036038101906105a49190613336565b6113c1565b6040516105b69190612f38565b60405180910390f35b60006105ca826114bc565b9050919050565b6060600080546105e09061358c565b80601f016020809104026020016040519081016040528092919081815260200182805461060c9061358c565b80156106595780601f1061062e57610100808354040283529160200191610659565b820191906000526020600020905b81548152906001019060200180831161063c57829003601f168201915b5050505050905090565b600061066e82611536565b6004600083815260200190815260200160002060009054906101000a900473ffffffffffffffffffffffffffffffffffffffff169050919050565b60006106b482610d65565b90508073ffffffffffffffffffffffffffffffffffffffff168373ffffffffffffffffffffffffffffffffffffffff1603610724576040517f08c379a000000000000000000000000000000000000000000000000000000000815260040161071b9061362f565b60405180910390fd5b8073ffffffffffffffffffffffffffffffffffffffff16610743611581565b73ffffffffffffffffffffffffffffffffffffffff16148061077257506107718161076c611581565b611204565b5b6107b1576040517f08c379a00000000000000000000000000000000000000000000000000000000081526004016107a8906136c1565b60405180910390fd5b6107bb8383611589565b505050565b6000801b6107cd81611642565b6107f77f76afa8a5929fef1b4c03674b2152ae5aaad1d974b8a4021c59477bcc846ccc1e84610ec6565b1561083957826040517fb1d3f1bc0000000000000000000000000000000000000000000000000000000081526004016108309190612ffe565b60405180910390fd5b81600960008573ffffffffffffffffffffffffffffffffffffffff1673ffffffffffffffffffffffffffffffffffffffff1681526020019081526020016000209081610885919061388d565b506108b07f76afa8a5929fef1b4c03674b2152ae5aaad1d974b8a4021c59477bcc846ccc1e84611656565b7f6bb73a24fe81dad9bcb96ff68bb44f5f3725eac06578ae43b30e1636a0b72f1183836040516108e192919061395f565b60405180910390a1505050565b6108ff6108f9611581565b82611737565b61093e576040517f08c379a000000000000000000000000000000000000000000000000000000000815260040161093590613a01565b60405180910390fd5b6109498383836117cc565b505050565b600060076000838152602001908152602001600020600101549050919050565b6109778261094e565b61098081611642565b61098a8383611656565b505050565b610997611581565b73ffffffffffffffffffffffffffffffffffffffff168173ffffffffffffffffffffffffffffffffffffffff1614610a04576040517f08c379a00000000000000000000000000000000000000000000000000000000081526004016109fb90613a93565b60405180910390fd5b610a0e8282611ac5565b5050565b610a2d838383604051806020016040528060008152506110d1565b505050565b6000801b610a3f81611642565b610a697f76afa8a5929fef1b4c03674b2152ae5aaad1d974b8a4021c59477bcc846ccc1e83610ec6565b610aaa57816040517f6ec3bc85000000000000000000000000000000000000000000000000000000008152600401610aa19190612ffe565b60405180910390fd5b6000600960008473ffffffffffffffffffffffffffffffffffffffff1673ffffffffffffffffffffffffffffffffffffffff1681526020019081526020016000208054610af69061358c565b80601f0160208091040260200160405190810160405280929190818152602001828054610b229061358c565b8015610b6f5780601f10610b4457610100808354040283529160200191610b6f565b820191906000526020600020905b815481529060010190602001808311610b5257829003601f168201915b50505050509050610ba07f76afa8a5929fef1b4c03674b2152ae5aaad1d974b8a4021c59477bcc846ccc1e84611ac5565b7f2d87004a9f2eb39dc280c5cec7e8a334a43871940fb3e3ff72839f70cebff6668382604051610bd192919061395f565b60405180910390a1600960008473ffffffffffffffffffffffffffffffffffffffff1673ffffffffffffffffffffffffffffffffffffffff1681526020019081526020016000206000610c249190612d7c565b505050565b6060610c557f76afa8a5929fef1b4c03674b2152ae5aaad1d974b8a4021c59477bcc846ccc1e83610ec6565b610c9657816040517f6ec3bc85000000000000000000000000000000000000000000000000000000008152600401610c8d9190612ffe565b60405180910390fd5b600960008373ffffffffffffffffffffffffffffffffffffffff1673ffffffffffffffffffffffffffffffffffffffff1681526020019081526020016000208054610ce09061358c565b80601f0160208091040260200160405190810160405280929190818152602001828054610d0c9061358c565b8015610d595780601f10610d2e57610100808354040283529160200191610d59565b820191906000526020600020905b815481529060010190602001808311610d3c57829003601f168201915b50505050509050919050565b600080610d7183611ba7565b9050600073ffffffffffffffffffffffffffffffffffffffff168173ffffffffffffffffffffffffffffffffffffffff1603610de2576040517f08c379a0000000000000000000000000000000000000000000000000000000008152600401610dd990613aff565b60405180910390fd5b80915050919050565b60008073ffffffffffffffffffffffffffffffffffffffff168273ffffffffffffffffffffffffffffffffffffffff1603610e5b576040517f08c379a0000000000000000000000000000000000000000000000000000000008152600401610e5290613b91565b60405180910390fd5b600360008373ffffffffffffffffffffffffffffffffffffffff1673ffffffffffffffffffffffffffffffffffffffff168152602001908152602001600020549050919050565b7f76afa8a5929fef1b4c03674b2152ae5aaad1d974b8a4021c59477bcc846ccc1e81565b60006007600084815260200190815260200160002060000160008373ffffffffffffffffffffffffffffffffffffffff1673ffffffffffffffffffffffffffffffffffffffff16815260200190815260200160002060009054906101000a900460ff16905092915050565b7f76afa8a5929fef1b4c03674b2152ae5aaad1d974b8a4021c59477bcc846ccc1e610f5b81611642565b6000610f6683610d65565b9050600073ffffffffffffffffffffffffffffffffffffffff168173ffffffffffffffffffffffffffffffffffffffff1603610fd957826040517f6caeb130000000000000000000000000000000000000000000000000000000008152600401610fd09190613372565b60405180910390fd5b7f172277909bd1a01a852cbc3f739956f79822e367c309debfefb68db3396a891333828560405161100c93929190613bb1565b60405180910390a161101d83611be4565b505050565b6060600180546110319061358c565b80601f016020809104026020016040519081016040528092919081815260200182805461105d9061358c565b80156110aa5780601f1061107f576101008083540402835291602001916110aa565b820191906000526020600020905b81548152906001019060200180831161108d57829003601f168201915b5050505050905090565b6000801b81565b6110cd6110c6611581565b8383611bf0565b5050565b6110e26110dc611581565b83611737565b611121576040517f08c379a000000000000000000000000000000000000000000000000000000000815260040161111890613a01565b60405180910390fd5b61112d84848484611d5c565b50505050565b60007f76afa8a5929fef1b4c03674b2152ae5aaad1d974b8a4021c59477bcc846ccc1e61115f81611642565b600061116b600a611db8565b9050611177600a611dc6565b6111818582611ddc565b61118b8185611dfa565b7f38852d3790cecf8789b659b361b1b912c0376598019c00c87b8ce9142f3c34533386836040516111be93929190613bb1565b60405180910390a1809250505092915050565b60606111dc82611e9e565b9050919050565b6111ec8261094e565b6111f581611642565b6111ff8383611ac5565b505050565b6000600560008473ffffffffffffffffffffffffffffffffffffffff1673ffffffffffffffffffffffffffffffffffffffff16815260200190815260200160002060008373ffffffffffffffffffffffffffffffffffffffff1673ffffffffffffffffffffffffffffffffffffffff16815260200190815260200160002060009054906101000a900460ff16905092915050565b6000801b6112a581611642565b6112cf7f76afa8a5929fef1b4c03674b2152ae5aaad1d974b8a4021c59477bcc846ccc1e84610ec6565b61131057826040517f6ec3bc850000000000000000000000000000000000000000000000000000000081526004016113079190612ffe565b60405180910390fd5b81600960008573ffffffffffffffffffffffffffffffffffffffff1673ffffffffffffffffffffffffffffffffffffffff168152602001908152602001600020908161135c919061388d565b507f1befe08676699a216ff0efeb784db78fcfaee01d0217bc3efeefa305fb97cbb9838360405161138e92919061395f565b60405180910390a1505050565b600860009054906101000a900473ffffffffffffffffffffffffffffffffffffffff1681565b60606113d06000801b83610ec6565b15611412576040518060400160405280600581526020017f41444d494e00000000000000000000000000000000000000000000000000000081525090506114b7565b61143c7f76afa8a5929fef1b4c03674b2152ae5aaad1d974b8a4021c59477bcc846ccc1e83610ec6565b1561147e576040518060400160405280600681526020017f495353554552000000000000000000000000000000000000000000000000000081525090506114b7565b6040518060400160405280600481526020017f555345520000000000000000000000000000000000000000000000000000000081525090505b919050565b60007f7965db0b000000000000000000000000000000000000000000000000000000007bffffffffffffffffffffffffffffffffffffffffffffffffffffffff1916827bffffffffffffffffffffffffffffffffffffffffffffffffffffffff1916148061152f575061152e82611fb0565b5b9050919050565b61153f81612011565b61157e576040517f08c379a000000000000000000000000000000000000000000000000000000000815260040161157590613aff565b60405180910390fd5b50565b600033905090565b816004600083815260200190815260200160002060006101000a81548173ffffffffffffffffffffffffffffffffffffffff021916908373ffffffffffffffffffffffffffffffffffffffff160217905550808273ffffffffffffffffffffffffffffffffffffffff166115fc83610d65565b73ffffffffffffffffffffffffffffffffffffffff167f8c5be1e5ebec7d5bd14f71427d1e84f3dd0314c0f7b2291e5b200ac8c7c3b92560405160405180910390a45050565b6116538161164e611581565b612052565b50565b6116608282610ec6565b6117335760016007600084815260200190815260200160002060000160008373ffffffffffffffffffffffffffffffffffffffff1673ffffffffffffffffffffffffffffffffffffffff16815260200190815260200160002060006101000a81548160ff0219169083151502179055506116d8611581565b73ffffffffffffffffffffffffffffffffffffffff168173ffffffffffffffffffffffffffffffffffffffff16837f2f8788117e7eff1d82e926ec794901d17c78024a50270940304540a733656f0d60405160405180910390a45b5050565b60008061174383610d65565b90508073ffffffffffffffffffffffffffffffffffffffff168473ffffffffffffffffffffffffffffffffffffffff16148061178557506117848185611204565b5b806117c357508373ffffffffffffffffffffffffffffffffffffffff166117ab84610663565b73ffffffffffffffffffffffffffffffffffffffff16145b91505092915050565b8273ffffffffffffffffffffffffffffffffffffffff166117ec82610d65565b73ffffffffffffffffffffffffffffffffffffffff1614611842576040517f08c379a000000000000000000000000000000000000000000000000000000000815260040161183990613c5a565b60405180910390fd5b600073ffffffffffffffffffffffffffffffffffffffff168273ffffffffffffffffffffffffffffffffffffffff16036118b1576040517f08c379a00000000000000000000000000000000000000000000000000000000081526004016118a890613cec565b60405180910390fd5b6118be83838360016120d7565b8273ffffffffffffffffffffffffffffffffffffffff166118de82610d65565b73ffffffffffffffffffffffffffffffffffffffff1614611934576040517f08c379a000000000000000000000000000000000000000000000000000000000815260040161192b90613c5a565b60405180910390fd5b6004600082815260200190815260200160002060006101000a81549073ffffffffffffffffffffffffffffffffffffffff02191690556001600360008573ffffffffffffffffffffffffffffffffffffffff1673ffffffffffffffffffffffffffffffffffffffff168152602001908152602001600020600082825403925050819055506001600360008473ffffffffffffffffffffffffffffffffffffffff1673ffffffffffffffffffffffffffffffffffffffff16815260200190815260200160002060008282540192505081905550816002600083815260200190815260200160002060006101000a81548173ffffffffffffffffffffffffffffffffffffffff021916908373ffffffffffffffffffffffffffffffffffffffff160217905550808273ffffffffffffffffffffffffffffffffffffffff168473ffffffffffffffffffffffffffffffffffffffff167fddf252ad1be2c89b69c2b068fc378daa952ba7f163c4a11628f55a4df523b3ef60405160405180910390a4611ac08383836001612158565b505050565b611acf8282610ec6565b15611ba35760006007600084815260200190815260200160002060000160008373ffffffffffffffffffffffffffffffffffffffff1673ffffffffffffffffffffffffffffffffffffffff16815260200190815260200160002060006101000a81548160ff021916908315150217905550611b48611581565b73ffffffffffffffffffffffffffffffffffffffff168173ffffffffffffffffffffffffffffffffffffffff16837ff6391f5c32d9c69d2a47ea670b442974b53935d1edc7fd64eb21e047a839171b60405160405180910390a45b5050565b60006002600083815260200190815260200160002060009054906101000a900473ffffffffffffffffffffffffffffffffffffffff169050919050565b611bed8161215e565b50565b8173ffffffffffffffffffffffffffffffffffffffff168373ffffffffffffffffffffffffffffffffffffffff1603611c5e576040517f08c379a0000000000000000000000000000000000000000000000000000000008152600401611c5590613d58565b60405180910390fd5b80600560008573ffffffffffffffffffffffffffffffffffffffff1673ffffffffffffffffffffffffffffffffffffffff16815260200190815260200160002060008473ffffffffffffffffffffffffffffffffffffffff1673ffffffffffffffffffffffffffffffffffffffff16815260200190815260200160002060006101000a81548160ff0219169083151502179055508173ffffffffffffffffffffffffffffffffffffffff168373ffffffffffffffffffffffffffffffffffffffff167f17307eab39ab6107e8899845ad3d59bd9653f200f220920489ca2b5937696c3183604051611d4f9190612e8d565b60405180910390a3505050565b611d678484846117cc565b611d73848484846121b1565b611db2576040517f08c379a0000000000000000000000000000000000000000000000000000000008152600401611da990613dea565b60405180910390fd5b50505050565b600081600001549050919050565b6001816000016000828254019250508190555050565b611df6828260405180602001604052806000815250612338565b5050565b611e0382612011565b611e42576040517f08c379a0000000000000000000000000000000000000000000000000000000008152600401611e3990613e7c565b60405180910390fd5b80600660008481526020019081526020016000209081611e62919061388d565b507ff8e1a15aba9398e019f0b49df1a4fde98ee17ae345cb5f6b5e2c27f5033e8ce782604051611e929190613372565b60405180910390a15050565b6060611ea982611536565b6000600660008481526020019081526020016000208054611ec99061358c565b80601f0160208091040260200160405190810160405280929190818152602001828054611ef59061358c565b8015611f425780601f10611f1757610100808354040283529160200191611f42565b820191906000526020600020905b815481529060010190602001808311611f2557829003601f168201915b505050505090506000611f53612393565b90506000815103611f68578192505050611fab565b600082511115611f9d578082604051602001611f85929190613ed8565b60405160208183030381529060405292505050611fab565b611fa6846123aa565b925050505b919050565b6000634906490660e01b7bffffffffffffffffffffffffffffffffffffffffffffffffffffffff1916827bffffffffffffffffffffffffffffffffffffffffffffffffffffffff1916148061200a575061200982612412565b5b9050919050565b60008073ffffffffffffffffffffffffffffffffffffffff1661203383611ba7565b73ffffffffffffffffffffffffffffffffffffffff1614159050919050565b61205c8282610ec6565b6120d357612069816124f4565b6120778360001c6020612521565b604051602001612088929190613f94565b6040516020818303038152906040526040517f08c379a00000000000000000000000000000000000000000000000000000000081526004016120ca9190612f38565b60405180910390fd5b5050565b600073ffffffffffffffffffffffffffffffffffffffff168473ffffffffffffffffffffffffffffffffffffffff1614612146576040517f08c379a000000000000000000000000000000000000000000000000000000000815260040161213d90614066565b60405180910390fd5b6121528484848461275d565b50505050565b50505050565b61216781612763565b60006006600083815260200190815260200160002080546121879061358c565b9050146121ae576006600082815260200190815260200160002060006121ad9190612d7c565b5b50565b60006121d28473ffffffffffffffffffffffffffffffffffffffff166128b1565b1561232b578373ffffffffffffffffffffffffffffffffffffffff1663150b7a026121fb611581565b8786866040518563ffffffff1660e01b815260040161221d94939291906140db565b6020604051808303816000875af192505050801561225957506040513d601f19601f82011682018060405250810190612256919061413c565b60015b6122db573d8060008114612289576040519150601f19603f3d011682016040523d82523d6000602084013e61228e565b606091505b5060008151036122d3576040517f08c379a00000000000000000000000000000000000000000000000000000000081526004016122ca90613dea565b60405180910390fd5b805181602001fd5b63150b7a0260e01b7bffffffffffffffffffffffffffffffffffffffffffffffffffffffff1916817bffffffffffffffffffffffffffffffffffffffffffffffffffffffff191614915050612330565b600190505b949350505050565b61234283836128d4565b61234f60008484846121b1565b61238e576040517f08c379a000000000000000000000000000000000000000000000000000000000815260040161238590613dea565b60405180910390fd5b505050565b606060405180602001604052806000815250905090565b60606123b582611536565b60006123bf612393565b905060008151116123df576040518060200160405280600081525061240a565b806123e984612af1565b6040516020016123fa929190613ed8565b6040516020818303038152906040525b915050919050565b60007f80ac58cd000000000000000000000000000000000000000000000000000000007bffffffffffffffffffffffffffffffffffffffffffffffffffffffff1916827bffffffffffffffffffffffffffffffffffffffffffffffffffffffff191614806124dd57507f5b5e139f000000000000000000000000000000000000000000000000000000007bffffffffffffffffffffffffffffffffffffffffffffffffffffffff1916827bffffffffffffffffffffffffffffffffffffffffffffffffffffffff1916145b806124ed57506124ec82612bbf565b5b9050919050565b606061251a8273ffffffffffffffffffffffffffffffffffffffff16601460ff16612521565b9050919050565b6060600060028360026125349190614198565b61253e91906141da565b67ffffffffffffffff8111156125575761255661308f565b5b6040519080825280601f01601f1916602001820160405280156125895781602001600182028036833780820191505090505b5090507f3000000000000000000000000000000000000000000000000000000000000000816000815181106125c1576125c061420e565b5b60200101907effffffffffffffffffffffffffffffffffffffffffffffffffffffffffffff1916908160001a9053507f7800000000000000000000000000000000000000000000000000000000000000816001815181106126255761262461420e565b5b60200101907effffffffffffffffffffffffffffffffffffffffffffffffffffffffffffff1916908160001a905350600060018460026126659190614198565b61266f91906141da565b90505b600181111561270f577f3031323334353637383961626364656600000000000000000000000000000000600f8616601081106126b1576126b061420e565b5b1a60f81b8282815181106126c8576126c761420e565b5b60200101907effffffffffffffffffffffffffffffffffffffffffffffffffffffffffffff1916908160001a905350600485901c9450806127089061423d565b9050612672565b5060008414612753576040517f08c379a000000000000000000000000000000000000000000000000000000000815260040161274a906142b2565b60405180910390fd5b8091505092915050565b50505050565b600061276e82610d65565b905061277e8160008460016120d7565b61278782610d65565b90506004600083815260200190815260200160002060006101000a81549073ffffffffffffffffffffffffffffffffffffffff02191690556001600360008373ffffffffffffffffffffffffffffffffffffffff1673ffffffffffffffffffffffffffffffffffffffff168152602001908152602001600020600082825403925050819055506002600083815260200190815260200160002060006101000a81549073ffffffffffffffffffffffffffffffffffffffff021916905581600073ffffffffffffffffffffffffffffffffffffffff168273ffffffffffffffffffffffffffffffffffffffff167fddf252ad1be2c89b69c2b068fc378daa952ba7f163c4a11628f55a4df523b3ef60405160405180910390a46128ad816000846001612158565b5050565b6000808273ffffffffffffffffffffffffffffffffffffffff163b119050919050565b600073ffffffffffffffffffffffffffffffffffffffff168273ffffffffffffffffffffffffffffffffffffffff1603612943576040517f08c379a000000000000000000000000000000000000000000000000000000000815260040161293a9061431e565b60405180910390fd5b61294c81612011565b1561298c576040517f08c379a00000000000000000000000000000000000000000000000000000000081526004016129839061438a565b60405180910390fd5b61299a6000838360016120d7565b6129a381612011565b156129e3576040517f08c379a00000000000000000000000000000000000000000000000000000000081526004016129da9061438a565b60405180910390fd5b6001600360008473ffffffffffffffffffffffffffffffffffffffff1673ffffffffffffffffffffffffffffffffffffffff16815260200190815260200160002060008282540192505081905550816002600083815260200190815260200160002060006101000a81548173ffffffffffffffffffffffffffffffffffffffff021916908373ffffffffffffffffffffffffffffffffffffffff160217905550808273ffffffffffffffffffffffffffffffffffffffff16600073ffffffffffffffffffffffffffffffffffffffff167fddf252ad1be2c89b69c2b068fc378daa952ba7f163c4a11628f55a4df523b3ef60405160405180910390a4612aed600083836001612158565b5050565b606060006001612b0084612c29565b01905060008167ffffffffffffffff811115612b1f57612b1e61308f565b5b6040519080825280601f01601f191660200182016040528015612b515781602001600182028036833780820191505090505b509050600082602001820190505b600115612bb4578080600190039150507f3031323334353637383961626364656600000000000000000000000000000000600a86061a8153600a8581612ba857612ba76143aa565b5b04945060008503612b5f575b819350505050919050565b60007f01ffc9a7000000000000000000000000000000000000000000000000000000007bffffffffffffffffffffffffffffffffffffffffffffffffffffffff1916827bffffffffffffffffffffffffffffffffffffffffffffffffffffffff1916149050919050565b600080600090507a184f03e93ff9f4daa797ed6e38ed64bf6a1f0100000000000000008310612c87577a184f03e93ff9f4daa797ed6e38ed64bf6a1f0100000000000000008381612c7d57612c7c6143aa565b5b0492506040810190505b6d04ee2d6d415b85acef81000000008310612cc4576d04ee2d6d415b85acef81000000008381612cba57612cb96143aa565b5b0492506020810190505b662386f26fc100008310612cf357662386f26fc100008381612ce957612ce86143aa565b5b0492506010810190505b6305f5e1008310612d1c576305f5e1008381612d1257612d116143aa565b5b0492506008810190505b6127108310612d41576127108381612d3757612d366143aa565b5b0492506004810190505b60648310612d645760648381612d5a57612d596143aa565b5b0492506002810190505b600a8310612d73576001810190505b80915050919050565b508054612d889061358c565b6000825580601f10612d9a5750612db9565b601f016020900490600052602060002090810190612db89190612dbc565b5b50565b5b80821115612dd5576000816000905550600101612dbd565b5090565b6000604051905090565b600080fd5b600080fd5b60007fffffffff0000000000000000000000000000000000000000000000000000000082169050919050565b612e2281612ded565b8114612e2d57600080fd5b50565b600081359050612e3f81612e19565b92915050565b600060208284031215612e5b57612e5a612de3565b5b6000612e6984828501612e30565b91505092915050565b60008115159050919050565b612e8781612e72565b82525050565b6000602082019050612ea26000830184612e7e565b92915050565b600081519050919050565b600082825260208201905092915050565b60005b83811015612ee2578082015181840152602081019050612ec7565b60008484015250505050565b6000601f19601f8301169050919050565b6000612f0a82612ea8565b612f148185612eb3565b9350612f24818560208601612ec4565b612f2d81612eee565b840191505092915050565b60006020820190508181036000830152612f528184612eff565b905092915050565b6000819050919050565b612f6d81612f5a565b8114612f7857600080fd5b50565b600081359050612f8a81612f64565b92915050565b600060208284031215612fa657612fa5612de3565b5b6000612fb484828501612f7b565b91505092915050565b600073ffffffffffffffffffffffffffffffffffffffff82169050919050565b6000612fe882612fbd565b9050919050565b612ff881612fdd565b82525050565b60006020820190506130136000830184612fef565b92915050565b61302281612fdd565b811461302d57600080fd5b50565b60008135905061303f81613019565b92915050565b6000806040838503121561305c5761305b612de3565b5b600061306a85828601613030565b925050602061307b85828601612f7b565b9150509250929050565b600080fd5b600080fd5b7f4e487b7100000000000000000000000000000000000000000000000000000000600052604160045260246000fd5b6130c782612eee565b810181811067ffffffffffffffff821117156130e6576130e561308f565b5b80604052505050565b60006130f9612dd9565b905061310582826130be565b919050565b600067ffffffffffffffff8211156131255761312461308f565b5b61312e82612eee565b9050602081019050919050565b82818337600083830152505050565b600061315d6131588461310a565b6130ef565b9050828152602081018484840111156131795761317861308a565b5b61318484828561313b565b509392505050565b600082601f8301126131a1576131a0613085565b5b81356131b184826020860161314a565b91505092915050565b600080604083850312156131d1576131d0612de3565b5b60006131df85828601613030565b925050602083013567ffffffffffffffff811115613200576131ff612de8565b5b61320c8582860161318c565b9150509250929050565b60008060006060848603121561322f5761322e612de3565b5b600061323d86828701613030565b935050602061324e86828701613030565b925050604061325f86828701612f7b565b9150509250925092565b6000819050919050565b61327c81613269565b811461328757600080fd5b50565b60008135905061329981613273565b92915050565b6000602082840312156132b5576132b4612de3565b5b60006132c38482850161328a565b91505092915050565b6132d581613269565b82525050565b60006020820190506132f060008301846132cc565b92915050565b6000806040838503121561330d5761330c612de3565b5b600061331b8582860161328a565b925050602061332c85828601613030565b9150509250929050565b60006020828403121561334c5761334b612de3565b5b600061335a84828501613030565b91505092915050565b61336c81612f5a565b82525050565b60006020820190506133876000830184613363565b92915050565b61339681612e72565b81146133a157600080fd5b50565b6000813590506133b38161338d565b92915050565b600080604083850312156133d0576133cf612de3565b5b60006133de85828601613030565b92505060206133ef858286016133a4565b9150509250929050565b600067ffffffffffffffff8211156134145761341361308f565b5b61341d82612eee565b9050602081019050919050565b600061343d613438846133f9565b6130ef565b9050828152602081018484840111156134595761345861308a565b5b61346484828561313b565b509392505050565b600082601f83011261348157613480613085565b5b813561349184826020860161342a565b91505092915050565b600080600080608085870312156134b4576134b3612de3565b5b60006134c287828801613030565b94505060206134d387828801613030565b93505060406134e487828801612f7b565b925050606085013567ffffffffffffffff81111561350557613504612de8565b5b6135118782880161346c565b91505092959194509250565b6000806040838503121561353457613533612de3565b5b600061354285828601613030565b925050602061355385828601613030565b9150509250929050565b7f4e487b7100000000000000000000000000000000000000000000000000000000600052602260045260246000fd5b600060028204905060018216806135a457607f821691505b6020821081036135b7576135b661355d565b5b50919050565b7f4552433732313a20617070726f76616c20746f2063757272656e74206f776e6560008201527f7200000000000000000000000000000000000000000000000000000000000000602082015250565b6000613619602183612eb3565b9150613624826135bd565b604082019050919050565b600060208201905081810360008301526136488161360c565b9050919050565b7f4552433732313a20617070726f76652063616c6c6572206973206e6f7420746f60008201527f6b656e206f776e6572206f7220617070726f76656420666f7220616c6c000000602082015250565b60006136ab603d83612eb3565b91506136b68261364f565b604082019050919050565b600060208201905081810360008301526136da8161369e565b9050919050565b60008190508160005260206000209050919050565b60006020601f8301049050919050565b600082821b905092915050565b6000600883026137437fffffffffffffffffffffffffffffffffffffffffffffffffffffffffffffffff82613706565b61374d8683613706565b95508019841693508086168417925050509392505050565b6000819050919050565b600061378a61378561378084612f5a565b613765565b612f5a565b9050919050565b6000819050919050565b6137a48361376f565b6137b86137b082613791565b848454613713565b825550505050565b600090565b6137cd6137c0565b6137d881848461379b565b505050565b5b818110156137fc576137f16000826137c5565b6001810190506137de565b5050565b601f82111561384157613812816136e1565b61381b846136f6565b8101602085101561382a578190505b61383e613836856136f6565b8301826137dd565b50505b505050565b600082821c905092915050565b600061386460001984600802613846565b1980831691505092915050565b600061387d8383613853565b9150826002028217905092915050565b61389682612ea8565b67ffffffffffffffff8111156138af576138ae61308f565b5b6138b9825461358c565b6138c4828285613800565b600060209050601f8311600181146138f757600084156138e5578287015190505b6138ef8582613871565b865550613957565b601f198416613905866136e1565b60005b8281101561392d57848901518255600182019150602085019450602081019050613908565b8683101561394a5784890151613946601f891682613853565b8355505b6001600288020188555050505b505050505050565b60006040820190506139746000830185612fef565b81810360208301526139868184612eff565b90509392505050565b7f4552433732313a2063616c6c6572206973206e6f7420746f6b656e206f776e6560008201527f72206f7220617070726f76656400000000000000000000000000000000000000602082015250565b60006139eb602d83612eb3565b91506139f68261398f565b604082019050919050565b60006020820190508181036000830152613a1a816139de565b9050919050565b7f416363657373436f6e74726f6c3a2063616e206f6e6c792072656e6f756e636560008201527f20726f6c657320666f722073656c660000000000000000000000000000000000602082015250565b6000613a7d602f83612eb3565b9150613a8882613a21565b604082019050919050565b60006020820190508181036000830152613aac81613a70565b9050919050565b7f4552433732313a20696e76616c696420746f6b656e2049440000000000000000600082015250565b6000613ae9601883612eb3565b9150613af482613ab3565b602082019050919050565b60006020820190508181036000830152613b1881613adc565b9050919050565b7f4552433732313a2061646472657373207a65726f206973206e6f74206120766160008201527f6c6964206f776e65720000000000000000000000000000000000000000000000602082015250565b6000613b7b602983612eb3565b9150613b8682613b1f565b604082019050919050565b60006020820190508181036000830152613baa81613b6e565b9050919050565b6000606082019050613bc66000830186612fef565b613bd36020830185612fef565b613be06040830184613363565b949350505050565b7f4552433732313a207472616e736665722066726f6d20696e636f72726563742060008201527f6f776e6572000000000000000000000000000000000000000000000000000000602082015250565b6000613c44602583612eb3565b9150613c4f82613be8565b604082019050919050565b60006020820190508181036000830152613c7381613c37565b9050919050565b7f4552433732313a207472616e7366657220746f20746865207a65726f2061646460008201527f7265737300000000000000000000000000000000000000000000000000000000602082015250565b6000613cd6602483612eb3565b9150613ce182613c7a565b604082019050919050565b60006020820190508181036000830152613d0581613cc9565b9050919050565b7f4552433732313a20617070726f766520746f2063616c6c657200000000000000600082015250565b6000613d42601983612eb3565b9150613d4d82613d0c565b602082019050919050565b60006020820190508181036000830152613d7181613d35565b9050919050565b7f4552433732313a207472616e7366657220746f206e6f6e20455243373231526560008201527f63656976657220696d706c656d656e7465720000000000000000000000000000602082015250565b6000613dd4603283612eb3565b9150613ddf82613d78565b604082019050919050565b60006020820190508181036000830152613e0381613dc7565b9050919050565b7f45524337323155524953746f726167653a2055524920736574206f66206e6f6e60008201527f6578697374656e7420746f6b656e000000000000000000000000000000000000602082015250565b6000613e66602e83612eb3565b9150613e7182613e0a565b604082019050919050565b60006020820190508181036000830152613e9581613e59565b9050919050565b600081905092915050565b6000613eb282612ea8565b613ebc8185613e9c565b9350613ecc818560208601612ec4565b80840191505092915050565b6000613ee48285613ea7565b9150613ef08284613ea7565b91508190509392505050565b7f416363657373436f6e74726f6c3a206163636f756e7420000000000000000000600082015250565b6000613f32601783613e9c565b9150613f3d82613efc565b601782019050919050565b7f206973206d697373696e6720726f6c6520000000000000000000000000000000600082015250565b6000613f7e601183613e9c565b9150613f8982613f48565b601182019050919050565b6000613f9f82613f25565b9150613fab8285613ea7565b9150613fb682613f71565b9150613fc28284613ea7565b91508190509392505050565b7f536f756c626f756e6420746f6b656e732063616e6e6f74206265207472616e7360008201527f6665727265642c20546f6b656e207472616e7366657220697320424c4f434b4560208201527f4400000000000000000000000000000000000000000000000000000000000000604082015250565b6000614050604183612eb3565b915061405b82613fce565b606082019050919050565b6000602082019050818103600083015261407f81614043565b9050919050565b600081519050919050565b600082825260208201905092915050565b60006140ad82614086565b6140b78185614091565b93506140c7818560208601612ec4565b6140d081612eee565b840191505092915050565b60006080820190506140f06000830187612fef565b6140fd6020830186612fef565b61410a6040830185613363565b818103606083015261411c81846140a2565b905095945050505050565b60008151905061413681612e19565b92915050565b60006020828403121561415257614151612de3565b5b600061416084828501614127565b91505092915050565b7f4e487b7100000000000000000000000000000000000000000000000000000000600052601160045260246000fd5b60006141a382612f5a565b91506141ae83612f5a565b92508282026141bc81612f5a565b915082820484148315176141d3576141d2614169565b5b5092915050565b60006141e582612f5a565b91506141f083612f5a565b925082820190508082111561420857614207614169565b5b92915050565b7f4e487b7100000000000000000000000000000000000000000000000000000000600052603260045260246000fd5b600061424882612f5a565b91506000820361425b5761425a614169565b5b600182039050919050565b7f537472696e67733a20686578206c656e67746820696e73756666696369656e74600082015250565b600061429c602083612eb3565b91506142a782614266565b602082019050919050565b600060208201905081810360008301526142cb8161428f565b9050919050565b7f4552433732313a206d696e7420746f20746865207a65726f2061646472657373600082015250565b6000614308602083612eb3565b9150614313826142d2565b602082019050919050565b60006020820190508181036000830152614337816142fb565b9050919050565b7f4552433732313a20746f6b656e20616c7265616479206d696e74656400000000600082015250565b6000614374601c83612eb3565b915061437f8261433e565b602082019050919050565b600060208201905081810360008301526143a381614367565b9050919050565b7f4e487b7100000000000000000000000000000000000000000000000000000000600052601260045260246000fdfea2646970667358221220d8de229f373d2b653f3a9e0fdbdf171244cb94d5094645eb551a91512164af2d64736f6c63430008120033",
  "linkReferences": {},
  "deployedLinkReferences": {}
}