{
  "_format": "hh-sol-artifact-1",
  "contractName": "SiddhiCred",
  "sourceName": "contracts/SiddhiCred.sol",
  "abi": [
    {
      "inputs": [],
      "stateMutability": "nonpayable",
      "type": "constructor"
    },
    {
      "inputs": [
        {
          "internalType": "address",
          "name": "issuerWalletAddress",
          "type": "address"
        }
      ],
      "name": "IssuerNotFound",
      "type": "error"
    },
    {
      "inputs": [
        {
          "internalType": "address",
          "name": "issuerWalletAddress",
          "type": "address"
        }
      ],
      "name": "IssuerRoleAlreadyAssigned",
      "type": "error"
    },
    {
      "inputs": [
        {
          "internalType": "address",
          "name": "walletAddress",
          "type": "address"
        }
      ],
      "name": "ProvidedPublicAddressIsIssueRole",
      "type": "error"
    },
    {
      "inputs": [
        {
          "internalType": "address",
          "name": "walletAddress",
          "type": "address"
        }
      ],
      "name": "ProvidedPublicAddressIsUserRole",
      "type": "error"
    },
    {
      "inputs": [
        {
          "internalType": "uint256",
          "name": "tokenId",
          "type": "uint256"
        }
      ],
      "name": "TokenNotFound",
      "type": "error"
    },
    {
      "inputs": [
        {
          "internalType": "address",
          "name": "walletAddress",
          "type": "address"
        }
      ],
      "name": "UserAlreadyOwnsTokens",
      "type": "error"
    },
    {
      "anonymous": false,
      "inputs": [
        {
          "indexed": true,
          "internalType": "address",
          "name": "owner",
          "type": "address"
        },
        {
          "indexed": true,
          "internalType": "address",
          "name": "approved",
          "type": "address"
        },
        {
          "indexed": true,
          "internalType": "uint256",
          "name": "tokenId",
          "type": "uint256"
        }
      ],
      "name": "Approval",
      "type": "event"
    },
    {
      "anonymous": false,
      "inputs": [
        {
          "indexed": true,
          "internalType": "address",
          "name": "owner",
          "type": "address"
        },
        {
          "indexed": true,
          "internalType": "address",
          "name": "operator",
          "type": "address"
        },
        {
          "indexed": false,
          "internalType": "bool",
          "name": "approved",
          "type": "bool"
        }
      ],
      "name": "ApprovalForAll",
      "type": "event"
    },
    {
      "anonymous": false,
      "inputs": [
        {
          "indexed": false,
          "internalType": "uint256",
          "name": "_fromTokenId",
          "type": "uint256"
        },
        {
          "indexed": false,
          "internalType": "uint256",
          "name": "_toTokenId",
          "type": "uint256"
        }
      ],
      "name": "BatchMetadataUpdate",
      "type": "event"
    },
    {
      "anonymous": false,
      "inputs": [
        {
          "indexed": false,
          "internalType": "address",
          "name": "issuerWalletAddress",
          "type": "address"
        },
        {
          "indexed": false,
          "internalType": "address",
          "name": "recipient",
          "type": "address"
        },
        {
          "indexed": false,
          "internalType": "uint256",
          "name": "tokenId",
          "type": "uint256"
        }
      ],
      "name": "CertificateIssued",
      "type": "event"
    },
    {
      "anonymous": false,
      "inputs": [
        {
          "indexed": false,
          "internalType": "address",
          "name": "issuerWalletAddress",
          "type": "address"
        },
        {
          "indexed": false,
          "internalType": "address",
          "name": "owner",
          "type": "address"
        },
        {
          "indexed": false,
          "internalType": "uint256",
          "name": "tokenId",
          "type": "uint256"
        }
      ],
      "name": "CertificateRevoked",
      "type": "event"
    },
    {
      "anonymous": false,
      "inputs": [
        {
          "indexed": false,
          "internalType": "address",
          "name": "issuerWalletAddress",
          "type": "address"
        },
        {
          "indexed": false,
          "internalType": "string",
          "name": "issuerContentHash",
          "type": "string"
        }
      ],
      "name": "IssuerCreated",
      "type": "event"
    },
    {
      "anonymous": false,
      "inputs": [
        {
          "indexed": false,
          "internalType": "address",
          "name": "issuerWalletAddress",
          "type": "address"
        },
        {
          "indexed": false,
          "internalType": "string",
          "name": "issuerContentHash",
          "type": "string"
        }
      ],
      "name": "IssuerRemoved",
      "type": "event"
    },
    {
      "anonymous": false,
      "inputs": [
        {
          "indexed": false,
          "internalType": "address",
          "name": "issuerWalletAddress",
          "type": "address"
        },
        {
          "indexed": false,
          "internalType": "string",
          "name": "issuerContentHash",
          "type": "string"
        }
      ],
      "name": "IssuerUpdated",
      "type": "event"
    },
    {
      "anonymous": false,
      "inputs": [
        {
          "indexed": false,
          "internalType": "uint256",
          "name": "_tokenId",
          "type": "uint256"
        }
      ],
      "name": "MetadataUpdate",
      "type": "event"
    },
    {
      "anonymous": false,
      "inputs": [
        {
          "indexed": true,
          "internalType": "bytes32",
          "name": "role",
          "type": "bytes32"
        },
        {
          "indexed": true,
          "internalType": "bytes32",
          "name": "previousAdminRole",
          "type": "bytes32"
        },
        {
          "indexed": true,
          "internalType": "bytes32",
          "name": "newAdminRole",
          "type": "bytes32"
        }
      ],
      "name": "RoleAdminChanged",
      "type": "event"
    },
    {
      "anonymous": false,
      "inputs": [
        {
          "indexed": true,
          "internalType": "bytes32",
          "name": "role",
          "type": "bytes32"
        },
        {
          "indexed": true,
          "internalType": "address",
          "name": "account",
          "type": "address"
        },
        {
          "indexed": true,
          "internalType": "address",
          "name": "sender",
          "type": "address"
        }
      ],
      "name": "RoleGranted",
      "type": "event"
    },
    {
      "anonymous": false,
      "inputs": [
        {
          "indexed": true,
          "internalType": "bytes32",
          "name": "role",
          "type": "bytes32"
        },
        {
          "indexed": true,
          "internalType": "address",
          "name": "account",
          "type": "address"
        },
        {
          "indexed": true,
          "internalType": "address",
          "name": "sender",
          "type": "address"
        }
      ],
      "name": "RoleRevoked",
      "type": "event"
    },
    {
      "anonymous": false,
      "inputs": [
        {
          "indexed": true,
          "internalType": "address",
          "name": "from",
          "type": "address"
        },
        {
          "indexed": true,
          "internalType": "address",
          "name": "to",
          "type": "address"
        },
        {
          "indexed": true,
          "internalType": "uint256",
          "name": "tokenId",
          "type": "uint256"
        }
      ],
      "name": "Transfer",
      "type": "event"
    },
    {
      "inputs": [],
      "name": "DEFAULT_ADMIN_ROLE",
      "outputs": [
        {
          "internalType": "bytes32",
          "name": "",
          "type": "bytes32"
        }
      ],
      "stateMutability": "view",
      "type": "function"
    },
    {
      "inputs": [],
      "name": "ISSUER_ROLE",
      "outputs": [
        {
          "internalType": "bytes32",
          "name": "",
          "type": "bytes32"
        }
      ],
      "stateMutability": "view",
      "type": "function"
    },
    {
      "inputs": [
        {
          "internalType": "address",
          "name": "",
          "type": "address"
        }
      ],
      "name": "aboutIssuer",
      "outputs": [
        {
          "internalType": "string",
          "name": "",
          "type": "string"
        }
      ],
      "stateMutability": "view",
      "type": "function"
    },
    {
      "inputs": [],
      "name": "admin",
      "outputs": [
        {
          "internalType": "address",
          "name": "",
          "type": "address"
        }
      ],
      "stateMutability": "view",
      "type": "function"
    },
    {
      "inputs": [
        {
          "internalType": "address",
          "name": "to",
          "type": "address"
        },
        {
          "internalType": "uint256",
          "name": "tokenId",
          "type": "uint256"
        }
      ],
      "name": "approve",
      "outputs": [],
      "stateMutability": "nonpayable",
      "type": "function"
    },
    {
      "inputs": [
        {
          "internalType": "address",
          "name": "owner",
          "type": "address"
        }
      ],
      "name": "balanceOf",
      "outputs": [
        {
          "internalType": "uint256",
          "name": "",
          "type": "uint256"
        }
      ],
      "stateMutability": "view",
      "type": "function"
    },
    {
      "inputs": [
        {
          "internalType": "uint256",
          "name": "tokenId",
          "type": "uint256"
        }
      ],
      "name": "burnCertificate",
      "outputs": [],
      "stateMutability": "nonpayable",
      "type": "function"
    },
    {
      "inputs": [
        {
          "internalType": "address",
          "name": "issuerWalletAddress",
          "type": "address"
        },
        {
          "internalType": "string",
          "name": "contentHash",
          "type": "string"
        }
      ],
      "name": "createIssuer",
      "outputs": [],
      "stateMutability": "nonpayable",
      "type": "function"
    },
    {
      "inputs": [
        {
          "internalType": "uint256",
          "name": "tokenId",
          "type": "uint256"
        }
      ],
      "name": "getApproved",
      "outputs": [
        {
          "internalType": "address",
          "name": "",
          "type": "address"
        }
      ],
      "stateMutability": "view",
      "type": "function"
    },
    {
      "inputs": [
        {
          "internalType": "address",
          "name": "to",
          "type": "address"
        },
        {
          "internalType": "string",
          "name": "contentHash",
          "type": "string"
        }
      ],
      "name": "getFirstToken",
      "outputs": [
        {
          "internalType": "uint256",
          "name": "NFTTokenId",
          "type": "uint256"
        }
      ],
      "stateMutability": "nonpayable",
      "type": "function"
    },
    {
      "inputs": [],
      "name": "getIssuedTokenList",
      "outputs": [
        {
          "internalType": "uint256[]",
          "name": "",
          "type": "uint256[]"
        }
      ],
      "stateMutability": "view",
      "type": "function"
    },
    {
      "inputs": [
        {
          "internalType": "address",
          "name": "issuerWalletAddress",
          "type": "address"
        }
      ],
      "name": "getIssuerInfo",
      "outputs": [
        {
          "internalType": "string",
          "name": "contentHash",
          "type": "string"
        }
      ],
      "stateMutability": "view",
      "type": "function"
    },
    {
      "inputs": [],
      "name": "getIssuersList",
      "outputs": [
        {
          "internalType": "address[]",
          "name": "",
          "type": "address[]"
        }
      ],
      "stateMutability": "view",
      "type": "function"
    },
    {
      "inputs": [
        {
          "internalType": "bytes32",
          "name": "role",
          "type": "bytes32"
        }
      ],
      "name": "getRoleAdmin",
      "outputs": [
        {
          "internalType": "bytes32",
          "name": "",
          "type": "bytes32"
        }
      ],
      "stateMutability": "view",
      "type": "function"
    },
    {
      "inputs": [
        {
          "internalType": "address",
          "name": "walletAddress",
          "type": "address"
        }
      ],
      "name": "getWalletAddressRole",
      "outputs": [
        {
          "internalType": "string",
          "name": "role",
          "type": "string"
        }
      ],
      "stateMutability": "view",
      "type": "function"
    },
    {
      "inputs": [
        {
          "internalType": "bytes32",
          "name": "role",
          "type": "bytes32"
        },
        {
          "internalType": "address",
          "name": "account",
          "type": "address"
        }
      ],
      "name": "grantRole",
      "outputs": [],
      "stateMutability": "nonpayable",
      "type": "function"
    },
    {
      "inputs": [
        {
          "internalType": "bytes32",
          "name": "role",
          "type": "bytes32"
        },
        {
          "internalType": "address",
          "name": "account",
          "type": "address"
        }
      ],
      "name": "hasRole",
      "outputs": [
        {
          "internalType": "bool",
          "name": "",
          "type": "bool"
        }
      ],
      "stateMutability": "view",
      "type": "function"
    },
    {
      "inputs": [
        {
          "internalType": "address",
          "name": "owner",
          "type": "address"
        },
        {
          "internalType": "address",
          "name": "operator",
          "type": "address"
        }
      ],
      "name": "isApprovedForAll",
      "outputs": [
        {
          "internalType": "bool",
          "name": "",
          "type": "bool"
        }
      ],
      "stateMutability": "view",
      "type": "function"
    },
    {
      "inputs": [
        {
          "internalType": "address",
          "name": "to",
          "type": "address"
        },
        {
          "internalType": "string",
          "name": "contentHash",
          "type": "string"
        }
      ],
      "name": "issueCertificate",
      "outputs": [
        {
          "internalType": "uint256",
          "name": "NFTTokenId",
          "type": "uint256"
        }
      ],
      "stateMutability": "nonpayable",
      "type": "function"
    },
    {
      "inputs": [],
      "name": "name",
      "outputs": [
        {
          "internalType": "string",
          "name": "",
          "type": "string"
        }
      ],
      "stateMutability": "view",
      "type": "function"
    },
    {
      "inputs": [
        {
          "internalType": "uint256",
          "name": "tokenId",
          "type": "uint256"
        }
      ],
      "name": "ownerOf",
      "outputs": [
        {
          "internalType": "address",
          "name": "",
          "type": "address"
        }
      ],
      "stateMutability": "view",
      "type": "function"
    },
    {
      "inputs": [
        {
          "internalType": "address",
          "name": "issuerWalletAddress",
          "type": "address"
        }
      ],
      "name": "removeIssuer",
      "outputs": [],
      "stateMutability": "nonpayable",
      "type": "function"
    },
    {
      "inputs": [
        {
          "internalType": "bytes32",
          "name": "role",
          "type": "bytes32"
        },
        {
          "internalType": "address",
          "name": "account",
          "type": "address"
        }
      ],
      "name": "renounceRole",
      "outputs": [],
      "stateMutability": "nonpayable",
      "type": "function"
    },
    {
      "inputs": [
        {
          "internalType": "bytes32",
          "name": "role",
          "type": "bytes32"
        },
        {
          "internalType": "address",
          "name": "account",
          "type": "address"
        }
      ],
      "name": "revokeRole",
      "outputs": [],
      "stateMutability": "nonpayable",
      "type": "function"
    },
    {
      "inputs": [
        {
          "internalType": "address",
          "name": "from",
          "type": "address"
        },
        {
          "internalType": "address",
          "name": "to",
          "type": "address"
        },
        {
          "internalType": "uint256",
          "name": "tokenId",
          "type": "uint256"
        }
      ],
      "name": "safeTransferFrom",
      "outputs": [],
      "stateMutability": "nonpayable",
      "type": "function"
    },
    {
      "inputs": [
        {
          "internalType": "address",
          "name": "from",
          "type": "address"
        },
        {
          "internalType": "address",
          "name": "to",
          "type": "address"
        },
        {
          "internalType": "uint256",
          "name": "tokenId",
          "type": "uint256"
        },
        {
          "internalType": "bytes",
          "name": "data",
          "type": "bytes"
        }
      ],
      "name": "safeTransferFrom",
      "outputs": [],
      "stateMutability": "nonpayable",
      "type": "function"
    },
    {
      "inputs": [
        {
          "internalType": "address",
          "name": "operator",
          "type": "address"
        },
        {
          "internalType": "bool",
          "name": "approved",
          "type": "bool"
        }
      ],
      "name": "setApprovalForAll",
      "outputs": [],
      "stateMutability": "nonpayable",
      "type": "function"
    },
    {
      "inputs": [
        {
          "internalType": "bytes4",
          "name": "interfaceId",
          "type": "bytes4"
        }
      ],
      "name": "supportsInterface",
      "outputs": [
        {
          "internalType": "bool",
          "name": "",
          "type": "bool"
        }
      ],
      "stateMutability": "view",
      "type": "function"
    },
    {
      "inputs": [],
      "name": "symbol",
      "outputs": [
        {
          "internalType": "string",
          "name": "",
          "type": "string"
        }
      ],
      "stateMutability": "view",
      "type": "function"
    },
    {
      "inputs": [
        {
          "internalType": "uint256",
          "name": "index",
          "type": "uint256"
        }
      ],
      "name": "tokenByIndex",
      "outputs": [
        {
          "internalType": "uint256",
          "name": "",
          "type": "uint256"
        }
      ],
      "stateMutability": "view",
      "type": "function"
    },
    {
      "inputs": [
        {
          "internalType": "address",
          "name": "owner",
          "type": "address"
        },
        {
          "internalType": "uint256",
          "name": "index",
          "type": "uint256"
        }
      ],
      "name": "tokenOfOwnerByIndex",
      "outputs": [
        {
          "internalType": "uint256",
          "name": "",
          "type": "uint256"
        }
      ],
      "stateMutability": "view",
      "type": "function"
    },
    {
      "inputs": [
        {
          "internalType": "uint256",
          "name": "tokenId",
          "type": "uint256"
        }
      ],
      "name": "tokenURI",
      "outputs": [
        {
          "internalType": "string",
          "name": "",
          "type": "string"
        }
      ],
      "stateMutability": "view",
      "type": "function"
    },
    {
      "inputs": [],
      "name": "tokensOfOwner",
      "outputs": [
        {
          "internalType": "uint256[]",
          "name": "tokenId",
          "type": "uint256[]"
        }
      ],
      "stateMutability": "view",
      "type": "function"
    },
    {
      "inputs": [],
      "name": "totalSupply",
      "outputs": [
        {
          "internalType": "uint256",
          "name": "",
          "type": "uint256"
        }
      ],
      "stateMutability": "view",
      "type": "function"
    },
    {
      "inputs": [
        {
          "internalType": "address",
          "name": "from",
          "type": "address"
        },
        {
          "internalType": "address",
          "name": "to",
          "type": "address"
        },
        {
          "internalType": "uint256",
          "name": "tokenId",
          "type": "uint256"
        }
      ],
      "name": "transferFrom",
      "outputs": [],
      "stateMutability": "nonpayable",
      "type": "function"
    },
    {
      "inputs": [
        {
          "internalType": "address",
          "name": "issuerWalletAddress",
          "type": "address"
        },
        {
          "internalType": "string",
          "name": "contentHash",
          "type": "string"
        }
      ],
      "name": "updateIssuer",
      "outputs": [],
      "stateMutability": "nonpayable",
      "type": "function"
    }
  ],
  "bytecode": "0x60806040523480156200001157600080fd5b506040518060400160405280601f81526020017f5369646468692043726564656e7469616c20536f756c626f756e64204e4654008152506040518060400160405280600781526020017f534353424e46540000000000000000000000000000000000000000000000000081525081600090816200008f9190620004df565b508060019081620000a19190620004df565b505050620000b96000801b336200010060201b60201c565b33600c60006101000a81548173ffffffffffffffffffffffffffffffffffffffff021916908373ffffffffffffffffffffffffffffffffffffffff160217905550620005c6565b620001128282620001f260201b60201c565b620001ee576001600b600084815260200190815260200160002060000160008373ffffffffffffffffffffffffffffffffffffffff1673ffffffffffffffffffffffffffffffffffffffff16815260200190815260200160002060006101000a81548160ff021916908315150217905550620001936200025d60201b60201c565b73ffffffffffffffffffffffffffffffffffffffff168173ffffffffffffffffffffffffffffffffffffffff16837f2f8788117e7eff1d82e926ec794901d17c78024a50270940304540a733656f0d60405160405180910390a45b5050565b6000600b600084815260200190815260200160002060000160008373ffffffffffffffffffffffffffffffffffffffff1673ffffffffffffffffffffffffffffffffffffffff16815260200190815260200160002060009054906101000a900460ff16905092915050565b600033905090565b600081519050919050565b7f4e487b7100000000000000000000000000000000000000000000000000000000600052604160045260246000fd5b7f4e487b7100000000000000000000000000000000000000000000000000000000600052602260045260246000fd5b60006002820490506001821680620002e757607f821691505b602082108103620002fd57620002fc6200029f565b5b50919050565b60008190508160005260206000209050919050565b60006020601f8301049050919050565b600082821b905092915050565b600060088302620003677fffffffffffffffffffffffffffffffffffffffffffffffffffffffffffffffff8262000328565b62000373868362000328565b95508019841693508086168417925050509392505050565b6000819050919050565b6000819050919050565b6000620003c0620003ba620003b4846200038b565b62000395565b6200038b565b9050919050565b6000819050919050565b620003dc836200039f565b620003f4620003eb82620003c7565b84845462000335565b825550505050565b600090565b6200040b620003fc565b62000418818484620003d1565b505050565b5b8181101562000440576200043460008262000401565b6001810190506200041e565b5050565b601f8211156200048f57620004598162000303565b620004648462000318565b8101602085101562000474578190505b6200048c620004838562000318565b8301826200041d565b50505b505050565b600082821c905092915050565b6000620004b46000198460080262000494565b1980831691505092915050565b6000620004cf8383620004a1565b9150826002028217905092915050565b620004ea8262000265565b67ffffffffffffffff81111562000506576200050562000270565b5b620005128254620002ce565b6200051f82828562000444565b600060209050601f83116001811462000557576000841562000542578287015190505b6200054e8582620004c1565b865550620005be565b601f198416620005678662000303565b60005b8281101562000591578489015182556001820191506020850194506020810190506200056a565b86831015620005b15784890151620005ad601f891682620004a1565b8355505b6001600288020188555050505b505050505050565b615c7c80620005d66000396000f3fe608060405234801561001057600080fd5b506004361061021c5760003560e01c806370a0823111610125578063bb721aab116100ad578063e985e9c51161007c578063e985e9c514610685578063ed9cc1ce146106b5578063f6a03f59146106e5578063f851a44014610701578063fa36512f1461071f5761021c565b8063bb721aab146105eb578063c66941d91461061b578063c87b56dd14610639578063d547741f146106695761021c565b806395d89b41116100f457806395d89b411461055957806395ea0f1214610577578063a217fddf14610595578063a22cb465146105b3578063b88d4fde146105cf5761021c565b806370a08231146104bf57806382aefa24146104ef57806391d148541461050d57806393b16b451461053d5761021c565b80632f2ff15d116101a8578063477ffce511610177578063477ffce5146103f557806347bc7093146104135780634f6ccce71461042f5780635e9aab701461045f5780636352211e1461048f5761021c565b80632f2ff15d146103715780632f745c591461038d57806336568abe146103bd57806342842e0e146103d95761021c565b806318160ddd116101ef57806318160ddd146102bb5780631a969944146102d957806323b872dd146102f5578063248a9ca31461031157806329ad9c22146103415761021c565b806301ffc9a71461022157806306fdde0314610251578063081812fc1461026f578063095ea7b31461029f575b600080fd5b61023b6004803603810190610236919061408f565b61074f565b60405161024891906140d7565b60405180910390f35b610259610761565b6040516102669190614182565b60405180910390f35b610289600480360381019061028491906141da565b6107f3565b6040516102969190614248565b60405180910390f35b6102b960048036038101906102b4919061428f565b610839565b005b6102c3610950565b6040516102d091906142de565b60405180910390f35b6102f360048036038101906102ee919061442e565b61095d565b005b61030f600480360381019061030a919061448a565b610b3c565b005b61032b60048036038101906103269190614513565b610b9c565b604051610338919061454f565b60405180910390f35b61035b6004803603810190610356919061442e565b610bbc565b60405161036891906142de565b60405180910390f35b61038b6004803603810190610386919061456a565b610d49565b005b6103a760048036038101906103a2919061428f565b610d6a565b6040516103b491906142de565b60405180910390f35b6103d760048036038101906103d2919061456a565b610e0f565b005b6103f360048036038101906103ee919061448a565b610e92565b005b6103fd610eb2565b60405161040a9190614668565b60405180910390f35b61042d6004803603810190610428919061468a565b610f4e565b005b610449600480360381019061044491906141da565b6112e4565b60405161045691906142de565b60405180910390f35b6104796004803603810190610474919061468a565b611355565b6040516104869190614182565b60405180910390f35b6104a960048036038101906104a491906141da565b611491565b6040516104b69190614248565b60405180910390f35b6104d960048036038101906104d4919061468a565b611517565b6040516104e691906142de565b60405180910390f35b6104f76115ce565b604051610504919061454f565b60405180910390f35b6105276004803603810190610522919061456a565b6115f2565b60405161053491906140d7565b60405180910390f35b610557600480360381019061055291906141da565b61165d565b005b610561611a7b565b60405161056e9190614182565b60405180910390f35b61057f611b0d565b60405161058c9190614775565b60405180910390f35b61059d611bb9565b6040516105aa919061454f565b60405180910390f35b6105cd60048036038101906105c891906147c3565b611bc0565b005b6105e960048036038101906105e491906148a4565b611bd6565b005b6106056004803603810190610600919061442e565b611c38565b60405161061291906142de565b60405180910390f35b610623611da6565b6040516106309190614775565b60405180910390f35b610653600480360381019061064e91906141da565b611e66565b6040516106609190614182565b60405180910390f35b610683600480360381019061067e919061456a565b611e78565b005b61069f600480360381019061069a9190614927565b611e99565b6040516106ac91906140d7565b60405180910390f35b6106cf60048036038101906106ca919061468a565b611f2d565b6040516106dc9190614182565b60405180910390f35b6106ff60048036038101906106fa919061442e565b611fcd565b005b6107096120d0565b6040516107169190614248565b60405180910390f35b6107396004803603810190610734919061468a565b6120f6565b6040516107469190614182565b60405180910390f35b600061075a826121f1565b9050919050565b60606000805461077090614996565b80601f016020809104026020016040519081016040528092919081815260200182805461079c90614996565b80156107e95780601f106107be576101008083540402835291602001916107e9565b820191906000526020600020905b8154815290600101906020018083116107cc57829003601f168201915b5050505050905090565b60006107fe8261226b565b6004600083815260200190815260200160002060009054906101000a900473ffffffffffffffffffffffffffffffffffffffff169050919050565b600061084482611491565b90508073ffffffffffffffffffffffffffffffffffffffff168373ffffffffffffffffffffffffffffffffffffffff16036108b4576040517f08c379a00000000000000000000000000000000000000000000000000000000081526004016108ab90614a39565b60405180910390fd5b8073ffffffffffffffffffffffffffffffffffffffff166108d36122b6565b73ffffffffffffffffffffffffffffffffffffffff1614806109025750610901816108fc6122b6565b611e99565b5b610941576040517f08c379a000000000000000000000000000000000000000000000000000000000815260040161093890614acb565b60405180910390fd5b61094b83836122be565b505050565b6000600980549050905090565b6000801b61096a81612377565b6109947f76afa8a5929fef1b4c03674b2152ae5aaad1d974b8a4021c59477bcc846ccc1e846115f2565b156109d657826040517fb1d3f1bc0000000000000000000000000000000000000000000000000000000081526004016109cd9190614248565b60405180910390fd5b60006109e184611517565b1115610a2457826040517f03d69b0d000000000000000000000000000000000000000000000000000000008152600401610a1b9190614248565b60405180910390fd5b610a4e7f76afa8a5929fef1b4c03674b2152ae5aaad1d974b8a4021c59477bcc846ccc1e8461238b565b6010839080600181540180825580915050600190039060005260206000200160009091909190916101000a81548173ffffffffffffffffffffffffffffffffffffffff021916908373ffffffffffffffffffffffffffffffffffffffff16021790555081600e60008573ffffffffffffffffffffffffffffffffffffffff1673ffffffffffffffffffffffffffffffffffffffff1681526020019081526020016000209081610afd9190614c97565b507f6bb73a24fe81dad9bcb96ff68bb44f5f3725eac06578ae43b30e1636a0b72f118383604051610b2f929190614d69565b60405180910390a1505050565b610b4d610b476122b6565b8261246c565b610b8c576040517f08c379a0000000000000000000000000000000000000000000000000000000008152600401610b8390614e0b565b60405180910390fd5b610b97838383612501565b505050565b6000600b6000838152602001908152602001600020600101549050919050565b600080610bc884611517565b14610c08576040517f08c379a0000000000000000000000000000000000000000000000000000000008152600401610bff90614ec3565b60405180910390fd5b610c327f76afa8a5929fef1b4c03674b2152ae5aaad1d974b8a4021c59477bcc846ccc1e846115f2565b15610c72576040517f08c379a0000000000000000000000000000000000000000000000000000000008152600401610c6990614f7b565b60405180910390fd5b6000610c7e600d6127fa565b9050610c8a600d612808565b610c94848261281e565b610c9e818461283c565b600f60003373ffffffffffffffffffffffffffffffffffffffff1673ffffffffffffffffffffffffffffffffffffffff1681526020019081526020016000208190806001815401808255809150506001900390600052602060002001600090919091909150557f38852d3790cecf8789b659b361b1b912c0376598019c00c87b8ce9142f3c3453338583604051610d3793929190614f9b565b60405180910390a18091505092915050565b610d5282610b9c565b610d5b81612377565b610d65838361238b565b505050565b6000610d7583611517565b8210610db6576040517f08c379a0000000000000000000000000000000000000000000000000000000008152600401610dad90615044565b60405180910390fd5b600760008473ffffffffffffffffffffffffffffffffffffffff1673ffffffffffffffffffffffffffffffffffffffff168152602001908152602001600020600083815260200190815260200160002054905092915050565b610e176122b6565b73ffffffffffffffffffffffffffffffffffffffff168173ffffffffffffffffffffffffffffffffffffffff1614610e84576040517f08c379a0000000000000000000000000000000000000000000000000000000008152600401610e7b906150d6565b60405180910390fd5b610e8e82826128e0565b5050565b610ead83838360405180602001604052806000815250611bd6565b505050565b60606000801b610ec181612377565b6010805480602002602001604051908101604052809291908181526020018280548015610f4357602002820191906000526020600020905b8160009054906101000a900473ffffffffffffffffffffffffffffffffffffffff1673ffffffffffffffffffffffffffffffffffffffff1681526020019060010190808311610ef9575b505050505091505090565b6000801b610f5b81612377565b610f857f76afa8a5929fef1b4c03674b2152ae5aaad1d974b8a4021c59477bcc846ccc1e836115f2565b610fc657816040517f6ec3bc85000000000000000000000000000000000000000000000000000000008152600401610fbd9190614248565b60405180910390fd5b610ff07f76afa8a5929fef1b4c03674b2152ae5aaad1d974b8a4021c59477bcc846ccc1e836128e0565b60008060108054905090506000601060018361100c9190615125565b8154811061101d5761101c615159565b5b9060005260206000200160009054906101000a900473ffffffffffffffffffffffffffffffffffffffff16905060005b8281101561113d578573ffffffffffffffffffffffffffffffffffffffff16601082815481106110805761107f615159565b5b9060005260206000200160009054906101000a900473ffffffffffffffffffffffffffffffffffffffff1673ffffffffffffffffffffffffffffffffffffffff160361112c5781601082815481106110db576110da615159565b5b9060005260206000200160006101000a81548173ffffffffffffffffffffffffffffffffffffffff021916908373ffffffffffffffffffffffffffffffffffffffff1602179055506001935061113d565b8061113690615188565b905061104d565b50821561118c576010805480611156576111556151d0565b5b6001900381819060005260206000200160006101000a81549073ffffffffffffffffffffffffffffffffffffffff021916905590555b6000600e60008773ffffffffffffffffffffffffffffffffffffffff1673ffffffffffffffffffffffffffffffffffffffff16815260200190815260200160002080546111d890614996565b80601f016020809104026020016040519081016040528092919081815260200182805461120490614996565b80156112515780601f1061122657610100808354040283529160200191611251565b820191906000526020600020905b81548152906001019060200180831161123457829003601f168201915b505050505090507f2d87004a9f2eb39dc280c5cec7e8a334a43871940fb3e3ff72839f70cebff6668682604051611289929190614d69565b60405180910390a1600e60008773ffffffffffffffffffffffffffffffffffffffff1673ffffffffffffffffffffffffffffffffffffffff16815260200190815260200160002060006112dc9190613fc6565b505050505050565b60006112ee610950565b821061132f576040517f08c379a000000000000000000000000000000000000000000000000000000000815260040161132690615271565b60405180910390fd5b6009828154811061134357611342615159565b5b90600052602060002001549050919050565b60606113817f76afa8a5929fef1b4c03674b2152ae5aaad1d974b8a4021c59477bcc846ccc1e836115f2565b6113c257816040517f6ec3bc850000000000000000000000000000000000000000000000000000000081526004016113b99190614248565b60405180910390fd5b600e60008373ffffffffffffffffffffffffffffffffffffffff1673ffffffffffffffffffffffffffffffffffffffff168152602001908152602001600020805461140c90614996565b80601f016020809104026020016040519081016040528092919081815260200182805461143890614996565b80156114855780601f1061145a57610100808354040283529160200191611485565b820191906000526020600020905b81548152906001019060200180831161146857829003601f168201915b50505050509050919050565b60008061149d836129c2565b9050600073ffffffffffffffffffffffffffffffffffffffff168173ffffffffffffffffffffffffffffffffffffffff160361150e576040517f08c379a0000000000000000000000000000000000000000000000000000000008152600401611505906152dd565b60405180910390fd5b80915050919050565b60008073ffffffffffffffffffffffffffffffffffffffff168273ffffffffffffffffffffffffffffffffffffffff1603611587576040517f08c379a000000000000000000000000000000000000000000000000000000000815260040161157e9061536f565b60405180910390fd5b600360008373ffffffffffffffffffffffffffffffffffffffff1673ffffffffffffffffffffffffffffffffffffffff168152602001908152602001600020549050919050565b7f76afa8a5929fef1b4c03674b2152ae5aaad1d974b8a4021c59477bcc846ccc1e81565b6000600b600084815260200190815260200160002060000160008373ffffffffffffffffffffffffffffffffffffffff1673ffffffffffffffffffffffffffffffffffffffff16815260200190815260200160002060009054906101000a900460ff16905092915050565b7f76afa8a5929fef1b4c03674b2152ae5aaad1d974b8a4021c59477bcc846ccc1e61168781612377565b81600080600f60003373ffffffffffffffffffffffffffffffffffffffff1673ffffffffffffffffffffffffffffffffffffffff16815260200190815260200160002080549050905060005b8181101561175e576000600f60003373ffffffffffffffffffffffffffffffffffffffff1673ffffffffffffffffffffffffffffffffffffffff168152602001908152602001600020828154811061172e5761172d615159565b5b9060005260206000200154905084810361174c57600193505061175e565b508061175790615188565b90506116d3565b508161179f576040517f08c379a000000000000000000000000000000000000000000000000000000000815260040161179690615401565b60405180910390fd5b60006117aa86611491565b9050600073ffffffffffffffffffffffffffffffffffffffff168173ffffffffffffffffffffffffffffffffffffffff160361181d57856040517f6caeb13000000000000000000000000000000000000000000000000000000000815260040161181491906142de565b60405180910390fd5b600080600f60003373ffffffffffffffffffffffffffffffffffffffff1673ffffffffffffffffffffffffffffffffffffffff1681526020019081526020016000208054905090506000600f60003373ffffffffffffffffffffffffffffffffffffffff1673ffffffffffffffffffffffffffffffffffffffff1681526020019081526020016000206001836118b39190615125565b815481106118c4576118c3615159565b5b9060005260206000200154905060005b828110156119bf576000600f60003373ffffffffffffffffffffffffffffffffffffffff1673ffffffffffffffffffffffffffffffffffffffff168152602001908152602001600020828154811061192f5761192e615159565b5b906000526020600020015490508a81036119ad5782600f60003373ffffffffffffffffffffffffffffffffffffffff1673ffffffffffffffffffffffffffffffffffffffff168152602001908152602001600020838154811061199557611994615159565b5b906000526020600020018190555060019450506119bf565b50806119b890615188565b90506118d4565b508215611a2c57600f60003373ffffffffffffffffffffffffffffffffffffffff1673ffffffffffffffffffffffffffffffffffffffff168152602001908152602001600020805480611a1557611a146151d0565b5b600190038181906000526020600020016000905590555b7f172277909bd1a01a852cbc3f739956f79822e367c309debfefb68db3396a891333858b604051611a5f93929190614f9b565b60405180910390a1611a70896129ff565b505050505050505050565b606060018054611a8a90614996565b80601f0160208091040260200160405190810160405280929190818152602001828054611ab690614996565b8015611b035780601f10611ad857610100808354040283529160200191611b03565b820191906000526020600020905b815481529060010190602001808311611ae657829003601f168201915b5050505050905090565b60606000611b1a33611517565b905060008167ffffffffffffffff811115611b3857611b37614303565b5b604051908082528060200260200182016040528015611b665781602001602082028036833780820191505090505b50905060005b82811015611bb057611b7e3382610d6a565b828281518110611b9157611b90615159565b5b6020026020010181815250508080611ba890615188565b915050611b6c565b50809250505090565b6000801b81565b611bd2611bcb6122b6565b8383612a0b565b5050565b611be7611be16122b6565b8361246c565b611c26576040517f08c379a0000000000000000000000000000000000000000000000000000000008152600401611c1d90614e0b565b60405180910390fd5b611c3284848484612b77565b50505050565b60007f76afa8a5929fef1b4c03674b2152ae5aaad1d974b8a4021c59477bcc846ccc1e611c6481612377565b611c8e7f76afa8a5929fef1b4c03674b2152ae5aaad1d974b8a4021c59477bcc846ccc1e856115f2565b15611cce576040517f08c379a0000000000000000000000000000000000000000000000000000000008152600401611cc590614f7b565b60405180910390fd5b6000611cda600d6127fa565b9050611ce6600d612808565b611cf0858261281e565b611cfa818561283c565b600f60003373ffffffffffffffffffffffffffffffffffffffff1673ffffffffffffffffffffffffffffffffffffffff1681526020019081526020016000208190806001815401808255809150506001900390600052602060002001600090919091909150557f38852d3790cecf8789b659b361b1b912c0376598019c00c87b8ce9142f3c3453338683604051611d9393929190614f9b565b60405180910390a1809250505092915050565b60607f76afa8a5929fef1b4c03674b2152ae5aaad1d974b8a4021c59477bcc846ccc1e611dd281612377565b600f60003373ffffffffffffffffffffffffffffffffffffffff1673ffffffffffffffffffffffffffffffffffffffff168152602001908152602001600020805480602002602001604051908101604052809291908181526020018280548015611e5b57602002820191906000526020600020905b815481526020019060010190808311611e47575b505050505091505090565b6060611e7182612bd3565b9050919050565b611e8182610b9c565b611e8a81612377565b611e9483836128e0565b505050565b6000600560008473ffffffffffffffffffffffffffffffffffffffff1673ffffffffffffffffffffffffffffffffffffffff16815260200190815260200160002060008373ffffffffffffffffffffffffffffffffffffffff1673ffffffffffffffffffffffffffffffffffffffff16815260200190815260200160002060009054906101000a900460ff16905092915050565b600e6020528060005260406000206000915090508054611f4c90614996565b80601f0160208091040260200160405190810160405280929190818152602001828054611f7890614996565b8015611fc55780601f10611f9a57610100808354040283529160200191611fc5565b820191906000526020600020905b815481529060010190602001808311611fa857829003601f168201915b505050505081565b6000801b611fda81612377565b6120047f76afa8a5929fef1b4c03674b2152ae5aaad1d974b8a4021c59477bcc846ccc1e846115f2565b61204557826040517f6ec3bc8500000000000000000000000000000000000000000000000000000000815260040161203c9190614248565b60405180910390fd5b81600e60008573ffffffffffffffffffffffffffffffffffffffff1673ffffffffffffffffffffffffffffffffffffffff16815260200190815260200160002090816120919190614c97565b507f1befe08676699a216ff0efeb784db78fcfaee01d0217bc3efeefa305fb97cbb983836040516120c3929190614d69565b60405180910390a1505050565b600c60009054906101000a900473ffffffffffffffffffffffffffffffffffffffff1681565b60606121056000801b836115f2565b15612147576040518060400160405280600581526020017f41444d494e00000000000000000000000000000000000000000000000000000081525090506121ec565b6121717f76afa8a5929fef1b4c03674b2152ae5aaad1d974b8a4021c59477bcc846ccc1e836115f2565b156121b3576040518060400160405280600681526020017f495353554552000000000000000000000000000000000000000000000000000081525090506121ec565b6040518060400160405280600481526020017f555345520000000000000000000000000000000000000000000000000000000081525090505b919050565b60007f7965db0b000000000000000000000000000000000000000000000000000000007bffffffffffffffffffffffffffffffffffffffffffffffffffffffff1916827bffffffffffffffffffffffffffffffffffffffffffffffffffffffff19161480612264575061226382612ce5565b5b9050919050565b61227481612d5f565b6122b3576040517f08c379a00000000000000000000000000000000000000000000000000000000081526004016122aa906152dd565b60405180910390fd5b50565b600033905090565b816004600083815260200190815260200160002060006101000a81548173ffffffffffffffffffffffffffffffffffffffff021916908373ffffffffffffffffffffffffffffffffffffffff160217905550808273ffffffffffffffffffffffffffffffffffffffff1661233183611491565b73ffffffffffffffffffffffffffffffffffffffff167f8c5be1e5ebec7d5bd14f71427d1e84f3dd0314c0f7b2291e5b200ac8c7c3b92560405160405180910390a45050565b612388816123836122b6565b612da0565b50565b61239582826115f2565b612468576001600b600084815260200190815260200160002060000160008373ffffffffffffffffffffffffffffffffffffffff1673ffffffffffffffffffffffffffffffffffffffff16815260200190815260200160002060006101000a81548160ff02191690831515021790555061240d6122b6565b73ffffffffffffffffffffffffffffffffffffffff168173ffffffffffffffffffffffffffffffffffffffff16837f2f8788117e7eff1d82e926ec794901d17c78024a50270940304540a733656f0d60405160405180910390a45b5050565b60008061247883611491565b90508073ffffffffffffffffffffffffffffffffffffffff168473ffffffffffffffffffffffffffffffffffffffff1614806124ba57506124b98185611e99565b5b806124f857508373ffffffffffffffffffffffffffffffffffffffff166124e0846107f3565b73ffffffffffffffffffffffffffffffffffffffff16145b91505092915050565b8273ffffffffffffffffffffffffffffffffffffffff1661252182611491565b73ffffffffffffffffffffffffffffffffffffffff1614612577576040517f08c379a000000000000000000000000000000000000000000000000000000000815260040161256e90615493565b60405180910390fd5b600073ffffffffffffffffffffffffffffffffffffffff168273ffffffffffffffffffffffffffffffffffffffff16036125e6576040517f08c379a00000000000000000000000000000000000000000000000000000000081526004016125dd90615525565b60405180910390fd5b6125f38383836001612e25565b8273ffffffffffffffffffffffffffffffffffffffff1661261382611491565b73ffffffffffffffffffffffffffffffffffffffff1614612669576040517f08c379a000000000000000000000000000000000000000000000000000000000815260040161266090615493565b60405180910390fd5b6004600082815260200190815260200160002060006101000a81549073ffffffffffffffffffffffffffffffffffffffff02191690556001600360008573ffffffffffffffffffffffffffffffffffffffff1673ffffffffffffffffffffffffffffffffffffffff168152602001908152602001600020600082825403925050819055506001600360008473ffffffffffffffffffffffffffffffffffffffff1673ffffffffffffffffffffffffffffffffffffffff16815260200190815260200160002060008282540192505081905550816002600083815260200190815260200160002060006101000a81548173ffffffffffffffffffffffffffffffffffffffff021916908373ffffffffffffffffffffffffffffffffffffffff160217905550808273ffffffffffffffffffffffffffffffffffffffff168473ffffffffffffffffffffffffffffffffffffffff167fddf252ad1be2c89b69c2b068fc378daa952ba7f163c4a11628f55a4df523b3ef60405160405180910390a46127f58383836001612edd565b505050565b600081600001549050919050565b6001816000016000828254019250508190555050565b612838828260405180602001604052806000815250612ee3565b5050565b61284582612d5f565b612884576040517f08c379a000000000000000000000000000000000000000000000000000000000815260040161287b906155b7565b60405180910390fd5b806006600084815260200190815260200160002090816128a49190614c97565b507ff8e1a15aba9398e019f0b49df1a4fde98ee17ae345cb5f6b5e2c27f5033e8ce7826040516128d491906142de565b60405180910390a15050565b6128ea82826115f2565b156129be576000600b600084815260200190815260200160002060000160008373ffffffffffffffffffffffffffffffffffffffff1673ffffffffffffffffffffffffffffffffffffffff16815260200190815260200160002060006101000a81548160ff0219169083151502179055506129636122b6565b73ffffffffffffffffffffffffffffffffffffffff168173ffffffffffffffffffffffffffffffffffffffff16837ff6391f5c32d9c69d2a47ea670b442974b53935d1edc7fd64eb21e047a839171b60405160405180910390a45b5050565b60006002600083815260200190815260200160002060009054906101000a900473ffffffffffffffffffffffffffffffffffffffff169050919050565b612a0881612f3e565b50565b8173ffffffffffffffffffffffffffffffffffffffff168373ffffffffffffffffffffffffffffffffffffffff1603612a79576040517f08c379a0000000000000000000000000000000000000000000000000000000008152600401612a7090615623565b60405180910390fd5b80600560008573ffffffffffffffffffffffffffffffffffffffff1673ffffffffffffffffffffffffffffffffffffffff16815260200190815260200160002060008473ffffffffffffffffffffffffffffffffffffffff1673ffffffffffffffffffffffffffffffffffffffff16815260200190815260200160002060006101000a81548160ff0219169083151502179055508173ffffffffffffffffffffffffffffffffffffffff168373ffffffffffffffffffffffffffffffffffffffff167f17307eab39ab6107e8899845ad3d59bd9653f200f220920489ca2b5937696c3183604051612b6a91906140d7565b60405180910390a3505050565b612b82848484612501565b612b8e84848484612f91565b612bcd576040517f08c379a0000000000000000000000000000000000000000000000000000000008152600401612bc4906156b5565b60405180910390fd5b50505050565b6060612bde8261226b565b6000600660008481526020019081526020016000208054612bfe90614996565b80601f0160208091040260200160405190810160405280929190818152602001828054612c2a90614996565b8015612c775780601f10612c4c57610100808354040283529160200191612c77565b820191906000526020600020905b815481529060010190602001808311612c5a57829003601f168201915b505050505090506000612c88613118565b90506000815103612c9d578192505050612ce0565b600082511115612cd2578082604051602001612cba929190615711565b60405160208183030381529060405292505050612ce0565b612cdb8461312f565b925050505b919050565b60007f780e9d63000000000000000000000000000000000000000000000000000000007bffffffffffffffffffffffffffffffffffffffffffffffffffffffff1916827bffffffffffffffffffffffffffffffffffffffffffffffffffffffff19161480612d585750612d5782613197565b5b9050919050565b60008073ffffffffffffffffffffffffffffffffffffffff16612d81836129c2565b73ffffffffffffffffffffffffffffffffffffffff1614159050919050565b612daa82826115f2565b612e2157612db7816131f8565b612dc58360001c6020613225565b604051602001612dd69291906157cd565b6040516020818303038152906040526040517f08c379a0000000000000000000000000000000000000000000000000000000008152600401612e189190614182565b60405180910390fd5b5050565b600073ffffffffffffffffffffffffffffffffffffffff168473ffffffffffffffffffffffffffffffffffffffff161480612e8c5750600073ffffffffffffffffffffffffffffffffffffffff168373ffffffffffffffffffffffffffffffffffffffff16145b612ecb576040517f08c379a0000000000000000000000000000000000000000000000000000000008152600401612ec29061589f565b60405180910390fd5b612ed784848484613461565b50505050565b50505050565b612eed83836135bf565b612efa6000848484612f91565b612f39576040517f08c379a0000000000000000000000000000000000000000000000000000000008152600401612f30906156b5565b60405180910390fd5b505050565b612f47816137dc565b6000600660008381526020019081526020016000208054612f6790614996565b905014612f8e57600660008281526020019081526020016000206000612f8d9190613fc6565b5b50565b6000612fb28473ffffffffffffffffffffffffffffffffffffffff1661392a565b1561310b578373ffffffffffffffffffffffffffffffffffffffff1663150b7a02612fdb6122b6565b8786866040518563ffffffff1660e01b8152600401612ffd9493929190615914565b6020604051808303816000875af192505050801561303957506040513d601f19601f820116820180604052508101906130369190615975565b60015b6130bb573d8060008114613069576040519150601f19603f3d011682016040523d82523d6000602084013e61306e565b606091505b5060008151036130b3576040517f08c379a00000000000000000000000000000000000000000000000000000000081526004016130aa906156b5565b60405180910390fd5b805181602001fd5b63150b7a0260e01b7bffffffffffffffffffffffffffffffffffffffffffffffffffffffff1916817bffffffffffffffffffffffffffffffffffffffffffffffffffffffff191614915050613110565b600190505b949350505050565b606060405180602001604052806000815250905090565b606061313a8261226b565b6000613144613118565b90506000815111613164576040518060200160405280600081525061318f565b8061316e8461394d565b60405160200161317f929190615711565b6040516020818303038152906040525b915050919050565b6000634906490660e01b7bffffffffffffffffffffffffffffffffffffffffffffffffffffffff1916827bffffffffffffffffffffffffffffffffffffffffffffffffffffffff191614806131f157506131f082613a1b565b5b9050919050565b606061321e8273ffffffffffffffffffffffffffffffffffffffff16601460ff16613225565b9050919050565b60606000600283600261323891906159a2565b61324291906159e4565b67ffffffffffffffff81111561325b5761325a614303565b5b6040519080825280601f01601f19166020018201604052801561328d5781602001600182028036833780820191505090505b5090507f3000000000000000000000000000000000000000000000000000000000000000816000815181106132c5576132c4615159565b5b60200101907effffffffffffffffffffffffffffffffffffffffffffffffffffffffffffff1916908160001a9053507f78000000000000000000000000000000000000000000000000000000000000008160018151811061332957613328615159565b5b60200101907effffffffffffffffffffffffffffffffffffffffffffffffffffffffffffff1916908160001a9053506000600184600261336991906159a2565b61337391906159e4565b90505b6001811115613413577f3031323334353637383961626364656600000000000000000000000000000000600f8616601081106133b5576133b4615159565b5b1a60f81b8282815181106133cc576133cb615159565b5b60200101907effffffffffffffffffffffffffffffffffffffffffffffffffffffffffffff1916908160001a905350600485901c94508061340c90615a18565b9050613376565b5060008414613457576040517f08c379a000000000000000000000000000000000000000000000000000000000815260040161344e90615a8d565b60405180910390fd5b8091505092915050565b61346d84848484613afd565b60018111156134b1576040517f08c379a00000000000000000000000000000000000000000000000000000000081526004016134a890615b1f565b60405180910390fd5b6000829050600073ffffffffffffffffffffffffffffffffffffffff168573ffffffffffffffffffffffffffffffffffffffff16036134f8576134f381613b03565b613537565b8373ffffffffffffffffffffffffffffffffffffffff168573ffffffffffffffffffffffffffffffffffffffff1614613536576135358582613b4c565b5b5b600073ffffffffffffffffffffffffffffffffffffffff168473ffffffffffffffffffffffffffffffffffffffff16036135795761357481613cb9565b6135b8565b8473ffffffffffffffffffffffffffffffffffffffff168473ffffffffffffffffffffffffffffffffffffffff16146135b7576135b68482613d8a565b5b5b5050505050565b600073ffffffffffffffffffffffffffffffffffffffff168273ffffffffffffffffffffffffffffffffffffffff160361362e576040517f08c379a000000000000000000000000000000000000000000000000000000000815260040161362590615b8b565b60405180910390fd5b61363781612d5f565b15613677576040517f08c379a000000000000000000000000000000000000000000000000000000000815260040161366e90615bf7565b60405180910390fd5b613685600083836001612e25565b61368e81612d5f565b156136ce576040517f08c379a00000000000000000000000000000000000000000000000000000000081526004016136c590615bf7565b60405180910390fd5b6001600360008473ffffffffffffffffffffffffffffffffffffffff1673ffffffffffffffffffffffffffffffffffffffff16815260200190815260200160002060008282540192505081905550816002600083815260200190815260200160002060006101000a81548173ffffffffffffffffffffffffffffffffffffffff021916908373ffffffffffffffffffffffffffffffffffffffff160217905550808273ffffffffffffffffffffffffffffffffffffffff16600073ffffffffffffffffffffffffffffffffffffffff167fddf252ad1be2c89b69c2b068fc378daa952ba7f163c4a11628f55a4df523b3ef60405160405180910390a46137d8600083836001612edd565b5050565b60006137e782611491565b90506137f7816000846001612e25565b61380082611491565b90506004600083815260200190815260200160002060006101000a81549073ffffffffffffffffffffffffffffffffffffffff02191690556001600360008373ffffffffffffffffffffffffffffffffffffffff1673ffffffffffffffffffffffffffffffffffffffff168152602001908152602001600020600082825403925050819055506002600083815260200190815260200160002060006101000a81549073ffffffffffffffffffffffffffffffffffffffff021916905581600073ffffffffffffffffffffffffffffffffffffffff168273ffffffffffffffffffffffffffffffffffffffff167fddf252ad1be2c89b69c2b068fc378daa952ba7f163c4a11628f55a4df523b3ef60405160405180910390a4613926816000846001612edd565b5050565b6000808273ffffffffffffffffffffffffffffffffffffffff163b119050919050565b60606000600161395c84613e09565b01905060008167ffffffffffffffff81111561397b5761397a614303565b5b6040519080825280601f01601f1916602001820160405280156139ad5781602001600182028036833780820191505090505b509050600082602001820190505b600115613a10578080600190039150507f3031323334353637383961626364656600000000000000000000000000000000600a86061a8153600a8581613a0457613a03615c17565b5b049450600085036139bb575b819350505050919050565b60007f80ac58cd000000000000000000000000000000000000000000000000000000007bffffffffffffffffffffffffffffffffffffffffffffffffffffffff1916827bffffffffffffffffffffffffffffffffffffffffffffffffffffffff19161480613ae657507f5b5e139f000000000000000000000000000000000000000000000000000000007bffffffffffffffffffffffffffffffffffffffffffffffffffffffff1916827bffffffffffffffffffffffffffffffffffffffffffffffffffffffff1916145b80613af65750613af582613f5c565b5b9050919050565b50505050565b600980549050600a600083815260200190815260200160002081905550600981908060018154018082558091505060019003906000526020600020016000909190919091505550565b60006001613b5984611517565b613b639190615125565b9050600060086000848152602001908152602001600020549050818114613c48576000600760008673ffffffffffffffffffffffffffffffffffffffff1673ffffffffffffffffffffffffffffffffffffffff168152602001908152602001600020600084815260200190815260200160002054905080600760008773ffffffffffffffffffffffffffffffffffffffff1673ffffffffffffffffffffffffffffffffffffffff168152602001908152602001600020600084815260200190815260200160002081905550816008600083815260200190815260200160002081905550505b6008600084815260200190815260200160002060009055600760008573ffffffffffffffffffffffffffffffffffffffff1673ffffffffffffffffffffffffffffffffffffffff16815260200190815260200160002060008381526020019081526020016000206000905550505050565b60006001600980549050613ccd9190615125565b90506000600a6000848152602001908152602001600020549050600060098381548110613cfd57613cfc615159565b5b906000526020600020015490508060098381548110613d1f57613d1e615159565b5b906000526020600020018190555081600a600083815260200190815260200160002081905550600a6000858152602001908152602001600020600090556009805480613d6e57613d6d6151d0565b5b6001900381819060005260206000200160009055905550505050565b6000613d9583611517565b905081600760008573ffffffffffffffffffffffffffffffffffffffff1673ffffffffffffffffffffffffffffffffffffffff168152602001908152602001600020600083815260200190815260200160002081905550806008600084815260200190815260200160002081905550505050565b600080600090507a184f03e93ff9f4daa797ed6e38ed64bf6a1f0100000000000000008310613e67577a184f03e93ff9f4daa797ed6e38ed64bf6a1f0100000000000000008381613e5d57613e5c615c17565b5b0492506040810190505b6d04ee2d6d415b85acef81000000008310613ea4576d04ee2d6d415b85acef81000000008381613e9a57613e99615c17565b5b0492506020810190505b662386f26fc100008310613ed357662386f26fc100008381613ec957613ec8615c17565b5b0492506010810190505b6305f5e1008310613efc576305f5e1008381613ef257613ef1615c17565b5b0492506008810190505b6127108310613f21576127108381613f1757613f16615c17565b5b0492506004810190505b60648310613f445760648381613f3a57613f39615c17565b5b0492506002810190505b600a8310613f53576001810190505b80915050919050565b60007f01ffc9a7000000000000000000000000000000000000000000000000000000007bffffffffffffffffffffffffffffffffffffffffffffffffffffffff1916827bffffffffffffffffffffffffffffffffffffffffffffffffffffffff1916149050919050565b508054613fd290614996565b6000825580601f10613fe45750614003565b601f0160209004906000526020600020908101906140029190614006565b5b50565b5b8082111561401f576000816000905550600101614007565b5090565b6000604051905090565b600080fd5b600080fd5b60007fffffffff0000000000000000000000000000000000000000000000000000000082169050919050565b61406c81614037565b811461407757600080fd5b50565b60008135905061408981614063565b92915050565b6000602082840312156140a5576140a461402d565b5b60006140b38482850161407a565b91505092915050565b60008115159050919050565b6140d1816140bc565b82525050565b60006020820190506140ec60008301846140c8565b92915050565b600081519050919050565b600082825260208201905092915050565b60005b8381101561412c578082015181840152602081019050614111565b60008484015250505050565b6000601f19601f8301169050919050565b6000614154826140f2565b61415e81856140fd565b935061416e81856020860161410e565b61417781614138565b840191505092915050565b6000602082019050818103600083015261419c8184614149565b905092915050565b6000819050919050565b6141b7816141a4565b81146141c257600080fd5b50565b6000813590506141d4816141ae565b92915050565b6000602082840312156141f0576141ef61402d565b5b60006141fe848285016141c5565b91505092915050565b600073ffffffffffffffffffffffffffffffffffffffff82169050919050565b600061423282614207565b9050919050565b61424281614227565b82525050565b600060208201905061425d6000830184614239565b92915050565b61426c81614227565b811461427757600080fd5b50565b60008135905061428981614263565b92915050565b600080604083850312156142a6576142a561402d565b5b60006142b48582860161427a565b92505060206142c5858286016141c5565b9150509250929050565b6142d8816141a4565b82525050565b60006020820190506142f360008301846142cf565b92915050565b600080fd5b600080fd5b7f4e487b7100000000000000000000000000000000000000000000000000000000600052604160045260246000fd5b61433b82614138565b810181811067ffffffffffffffff8211171561435a57614359614303565b5b80604052505050565b600061436d614023565b90506143798282614332565b919050565b600067ffffffffffffffff82111561439957614398614303565b5b6143a282614138565b9050602081019050919050565b82818337600083830152505050565b60006143d16143cc8461437e565b614363565b9050828152602081018484840111156143ed576143ec6142fe565b5b6143f88482856143af565b509392505050565b600082601f830112614415576144146142f9565b5b81356144258482602086016143be565b91505092915050565b600080604083850312156144455761444461402d565b5b60006144538582860161427a565b925050602083013567ffffffffffffffff81111561447457614473614032565b5b61448085828601614400565b9150509250929050565b6000806000606084860312156144a3576144a261402d565b5b60006144b18682870161427a565b93505060206144c28682870161427a565b92505060406144d3868287016141c5565b9150509250925092565b6000819050919050565b6144f0816144dd565b81146144fb57600080fd5b50565b60008135905061450d816144e7565b92915050565b6000602082840312156145295761452861402d565b5b6000614537848285016144fe565b91505092915050565b614549816144dd565b82525050565b60006020820190506145646000830184614540565b92915050565b600080604083850312156145815761458061402d565b5b600061458f858286016144fe565b92505060206145a08582860161427a565b9150509250929050565b600081519050919050565b600082825260208201905092915050565b6000819050602082019050919050565b6145df81614227565b82525050565b60006145f183836145d6565b60208301905092915050565b6000602082019050919050565b6000614615826145aa565b61461f81856145b5565b935061462a836145c6565b8060005b8381101561465b57815161464288826145e5565b975061464d836145fd565b92505060018101905061462e565b5085935050505092915050565b60006020820190508181036000830152614682818461460a565b905092915050565b6000602082840312156146a05761469f61402d565b5b60006146ae8482850161427a565b91505092915050565b600081519050919050565b600082825260208201905092915050565b6000819050602082019050919050565b6146ec816141a4565b82525050565b60006146fe83836146e3565b60208301905092915050565b6000602082019050919050565b6000614722826146b7565b61472c81856146c2565b9350614737836146d3565b8060005b8381101561476857815161474f88826146f2565b975061475a8361470a565b92505060018101905061473b565b5085935050505092915050565b6000602082019050818103600083015261478f8184614717565b905092915050565b6147a0816140bc565b81146147ab57600080fd5b50565b6000813590506147bd81614797565b92915050565b600080604083850312156147da576147d961402d565b5b60006147e88582860161427a565b92505060206147f9858286016147ae565b9150509250929050565b600067ffffffffffffffff82111561481e5761481d614303565b5b61482782614138565b9050602081019050919050565b600061484761484284614803565b614363565b905082815260208101848484011115614863576148626142fe565b5b61486e8482856143af565b509392505050565b600082601f83011261488b5761488a6142f9565b5b813561489b848260208601614834565b91505092915050565b600080600080608085870312156148be576148bd61402d565b5b60006148cc8782880161427a565b94505060206148dd8782880161427a565b93505060406148ee878288016141c5565b925050606085013567ffffffffffffffff81111561490f5761490e614032565b5b61491b87828801614876565b91505092959194509250565b6000806040838503121561493e5761493d61402d565b5b600061494c8582860161427a565b925050602061495d8582860161427a565b9150509250929050565b7f4e487b7100000000000000000000000000000000000000000000000000000000600052602260045260246000fd5b600060028204905060018216806149ae57607f821691505b6020821081036149c1576149c0614967565b5b50919050565b7f4552433732313a20617070726f76616c20746f2063757272656e74206f776e6560008201527f7200000000000000000000000000000000000000000000000000000000000000602082015250565b6000614a236021836140fd565b9150614a2e826149c7565b604082019050919050565b60006020820190508181036000830152614a5281614a16565b9050919050565b7f4552433732313a20617070726f76652063616c6c6572206973206e6f7420746f60008201527f6b656e206f776e6572206f7220617070726f76656420666f7220616c6c000000602082015250565b6000614ab5603d836140fd565b9150614ac082614a59565b604082019050919050565b60006020820190508181036000830152614ae481614aa8565b9050919050565b60008190508160005260206000209050919050565b60006020601f8301049050919050565b600082821b905092915050565b600060088302614b4d7fffffffffffffffffffffffffffffffffffffffffffffffffffffffffffffffff82614b10565b614b578683614b10565b95508019841693508086168417925050509392505050565b6000819050919050565b6000614b94614b8f614b8a846141a4565b614b6f565b6141a4565b9050919050565b6000819050919050565b614bae83614b79565b614bc2614bba82614b9b565b848454614b1d565b825550505050565b600090565b614bd7614bca565b614be2818484614ba5565b505050565b5b81811015614c0657614bfb600082614bcf565b600181019050614be8565b5050565b601f821115614c4b57614c1c81614aeb565b614c2584614b00565b81016020851015614c34578190505b614c48614c4085614b00565b830182614be7565b50505b505050565b600082821c905092915050565b6000614c6e60001984600802614c50565b1980831691505092915050565b6000614c878383614c5d565b9150826002028217905092915050565b614ca0826140f2565b67ffffffffffffffff811115614cb957614cb8614303565b5b614cc38254614996565b614cce828285614c0a565b600060209050601f831160018114614d015760008415614cef578287015190505b614cf98582614c7b565b865550614d61565b601f198416614d0f86614aeb565b60005b82811015614d3757848901518255600182019150602085019450602081019050614d12565b86831015614d545784890151614d50601f891682614c5d565b8355505b6001600288020188555050505b505050505050565b6000604082019050614d7e6000830185614239565b8181036020830152614d908184614149565b90509392505050565b7f4552433732313a2063616c6c6572206973206e6f7420746f6b656e206f776e6560008201527f72206f7220617070726f76656400000000000000000000000000000000000000602082015250565b6000614df5602d836140fd565b9150614e0082614d99565b604082019050919050565b60006020820190508181036000830152614e2481614de8565b9050919050565b7f43616e6e6f74206d696e7420746f6b656e2120557365722062616c616e63652060008201527f6973206d6f7265207468616e205a65726f2028302920616e6420616c7265616460208201527f79206f776e7320746f6b656e732e000000000000000000000000000000000000604082015250565b6000614ead604e836140fd565b9150614eb882614e2b565b606082019050919050565b60006020820190508181036000830152614edc81614ea0565b9050919050565b7f50726f7669646564207075626c6963206164647265737320697320616c72656160008201527f647920697373756572212043616e6e6f7420697373756520636572746966696360208201527f61746520746f206973737565722e000000000000000000000000000000000000604082015250565b6000614f65604e836140fd565b9150614f7082614ee3565b606082019050919050565b60006020820190508181036000830152614f9481614f58565b9050919050565b6000606082019050614fb06000830186614239565b614fbd6020830185614239565b614fca60408301846142cf565b949350505050565b7f455243373231456e756d657261626c653a206f776e657220696e646578206f7560008201527f74206f6620626f756e6473000000000000000000000000000000000000000000602082015250565b600061502e602b836140fd565b915061503982614fd2565b604082019050919050565b6000602082019050818103600083015261505d81615021565b9050919050565b7f416363657373436f6e74726f6c3a2063616e206f6e6c792072656e6f756e636560008201527f20726f6c657320666f722073656c660000000000000000000000000000000000602082015250565b60006150c0602f836140fd565b91506150cb82615064565b604082019050919050565b600060208201905081810360008301526150ef816150b3565b9050919050565b7f4e487b7100000000000000000000000000000000000000000000000000000000600052601160045260246000fd5b6000615130826141a4565b915061513b836141a4565b9250828203905081811115615153576151526150f6565b5b92915050565b7f4e487b7100000000000000000000000000000000000000000000000000000000600052603260045260246000fd5b6000615193826141a4565b91507fffffffffffffffffffffffffffffffffffffffffffffffffffffffffffffffff82036151c5576151c46150f6565b5b600182019050919050565b7f4e487b7100000000000000000000000000000000000000000000000000000000600052603160045260246000fd5b7f455243373231456e756d657261626c653a20676c6f62616c20696e646578206f60008201527f7574206f6620626f756e64730000000000000000000000000000000000000000602082015250565b600061525b602c836140fd565b9150615266826151ff565b604082019050919050565b6000602082019050818103600083015261528a8161524e565b9050919050565b7f4552433732313a20696e76616c696420746f6b656e2049440000000000000000600082015250565b60006152c76018836140fd565b91506152d282615291565b602082019050919050565b600060208201905081810360008301526152f6816152ba565b9050919050565b7f4552433732313a2061646472657373207a65726f206973206e6f74206120766160008201527f6c6964206f776e65720000000000000000000000000000000000000000000000602082015250565b60006153596029836140fd565b9150615364826152fd565b604082019050919050565b600060208201905081810360008301526153888161534c565b9050919050565b7f54686973206365727469666963617465206973206e6f7420697373756564206260008201527f792063757272656e74206973737565722e000000000000000000000000000000602082015250565b60006153eb6031836140fd565b91506153f68261538f565b604082019050919050565b6000602082019050818103600083015261541a816153de565b9050919050565b7f4552433732313a207472616e736665722066726f6d20696e636f72726563742060008201527f6f776e6572000000000000000000000000000000000000000000000000000000602082015250565b600061547d6025836140fd565b915061548882615421565b604082019050919050565b600060208201905081810360008301526154ac81615470565b9050919050565b7f4552433732313a207472616e7366657220746f20746865207a65726f2061646460008201527f7265737300000000000000000000000000000000000000000000000000000000602082015250565b600061550f6024836140fd565b915061551a826154b3565b604082019050919050565b6000602082019050818103600083015261553e81615502565b9050919050565b7f45524337323155524953746f726167653a2055524920736574206f66206e6f6e60008201527f6578697374656e7420746f6b656e000000000000000000000000000000000000602082015250565b60006155a1602e836140fd565b91506155ac82615545565b604082019050919050565b600060208201905081810360008301526155d081615594565b9050919050565b7f4552433732313a20617070726f766520746f2063616c6c657200000000000000600082015250565b600061560d6019836140fd565b9150615618826155d7565b602082019050919050565b6000602082019050818103600083015261563c81615600565b9050919050565b7f4552433732313a207472616e7366657220746f206e6f6e20455243373231526560008201527f63656976657220696d706c656d656e7465720000000000000000000000000000602082015250565b600061569f6032836140fd565b91506156aa82615643565b604082019050919050565b600060208201905081810360008301526156ce81615692565b9050919050565b600081905092915050565b60006156eb826140f2565b6156f581856156d5565b935061570581856020860161410e565b80840191505092915050565b600061571d82856156e0565b915061572982846156e0565b91508190509392505050565b7f416363657373436f6e74726f6c3a206163636f756e7420000000000000000000600082015250565b600061576b6017836156d5565b915061577682615735565b601782019050919050565b7f206973206d697373696e6720726f6c6520000000000000000000000000000000600082015250565b60006157b76011836156d5565b91506157c282615781565b601182019050919050565b60006157d88261575e565b91506157e482856156e0565b91506157ef826157aa565b91506157fb82846156e0565b91508190509392505050565b7f536f756c626f756e6420746f6b656e732063616e6e6f74206265207472616e7360008201527f6665727265642c20546f6b656e207472616e7366657220697320424c4f434b4560208201527f4400000000000000000000000000000000000000000000000000000000000000604082015250565b60006158896041836140fd565b915061589482615807565b606082019050919050565b600060208201905081810360008301526158b88161587c565b9050919050565b600081519050919050565b600082825260208201905092915050565b60006158e6826158bf565b6158f081856158ca565b935061590081856020860161410e565b61590981614138565b840191505092915050565b60006080820190506159296000830187614239565b6159366020830186614239565b61594360408301856142cf565b818103606083015261595581846158db565b905095945050505050565b60008151905061596f81614063565b92915050565b60006020828403121561598b5761598a61402d565b5b600061599984828501615960565b91505092915050565b60006159ad826141a4565b91506159b8836141a4565b92508282026159c6816141a4565b915082820484148315176159dd576159dc6150f6565b5b5092915050565b60006159ef826141a4565b91506159fa836141a4565b9250828201905080821115615a1257615a116150f6565b5b92915050565b6000615a23826141a4565b915060008203615a3657615a356150f6565b5b600182039050919050565b7f537472696e67733a20686578206c656e67746820696e73756666696369656e74600082015250565b6000615a776020836140fd565b9150615a8282615a41565b602082019050919050565b60006020820190508181036000830152615aa681615a6a565b9050919050565b7f455243373231456e756d657261626c653a20636f6e736563757469766520747260008201527f616e7366657273206e6f7420737570706f727465640000000000000000000000602082015250565b6000615b096035836140fd565b9150615b1482615aad565b604082019050919050565b60006020820190508181036000830152615b3881615afc565b9050919050565b7f4552433732313a206d696e7420746f20746865207a65726f2061646472657373600082015250565b6000615b756020836140fd565b9150615b8082615b3f565b602082019050919050565b60006020820190508181036000830152615ba481615b68565b9050919050565b7f4552433732313a20746f6b656e20616c7265616479206d696e74656400000000600082015250565b6000615be1601c836140fd565b9150615bec82615bab565b602082019050919050565b60006020820190508181036000830152615c1081615bd4565b9050919050565b7f4e487b7100000000000000000000000000000000000000000000000000000000600052601260045260246000fdfea2646970667358221220aa4fc4d79e47d6754976fa3c0afb9434b599ab30632863aa913ba6ffeff5c35f64736f6c63430008120033",
  "linkReferences": {},
  "deployedLinkReferences": {}
}