{
  "_format": "hh-sol-artifact-1",
  "contractName": "SiddhiCred",
  "sourceName": "contracts/SiddhiCred.sol",
  "abi": [
    {
      "inputs": [],
      "stateMutability": "nonpayable",
      "type": "constructor"
    },
    {
      "inputs": [
        {
          "internalType": "address",
          "name": "issuerWalletAddress",
          "type": "address"
        }
      ],
      "name": "IssuerNotFound",
      "type": "error"
    },
    {
      "inputs": [
        {
          "internalType": "address",
          "name": "issuerWalletAddress",
          "type": "address"
        }
      ],
      "name": "IssuerRoleAlreadyAssigned",
      "type": "error"
    },
    {
      "inputs": [
        {
          "internalType": "uint256",
          "name": "tokenId",
          "type": "uint256"
        }
      ],
      "name": "TokenNotFound",
      "type": "error"
    },
    {
      "anonymous": false,
      "inputs": [
        {
          "indexed": true,
          "internalType": "address",
          "name": "owner",
          "type": "address"
        },
        {
          "indexed": true,
          "internalType": "address",
          "name": "approved",
          "type": "address"
        },
        {
          "indexed": true,
          "internalType": "uint256",
          "name": "tokenId",
          "type": "uint256"
        }
      ],
      "name": "Approval",
      "type": "event"
    },
    {
      "anonymous": false,
      "inputs": [
        {
          "indexed": true,
          "internalType": "address",
          "name": "owner",
          "type": "address"
        },
        {
          "indexed": true,
          "internalType": "address",
          "name": "operator",
          "type": "address"
        },
        {
          "indexed": false,
          "internalType": "bool",
          "name": "approved",
          "type": "bool"
        }
      ],
      "name": "ApprovalForAll",
      "type": "event"
    },
    {
      "anonymous": false,
      "inputs": [
        {
          "indexed": false,
          "internalType": "uint256",
          "name": "_fromTokenId",
          "type": "uint256"
        },
        {
          "indexed": false,
          "internalType": "uint256",
          "name": "_toTokenId",
          "type": "uint256"
        }
      ],
      "name": "BatchMetadataUpdate",
      "type": "event"
    },
    {
      "anonymous": false,
      "inputs": [
        {
          "indexed": false,
          "internalType": "address",
          "name": "issuerWalletAddress",
          "type": "address"
        },
        {
          "indexed": false,
          "internalType": "address",
          "name": "recipient",
          "type": "address"
        },
        {
          "indexed": false,
          "internalType": "uint256",
          "name": "tokenId",
          "type": "uint256"
        }
      ],
      "name": "CertificateIssued",
      "type": "event"
    },
    {
      "anonymous": false,
      "inputs": [
        {
          "indexed": false,
          "internalType": "address",
          "name": "issuerWalletAddress",
          "type": "address"
        },
        {
          "indexed": false,
          "internalType": "address",
          "name": "owner",
          "type": "address"
        },
        {
          "indexed": false,
          "internalType": "uint256",
          "name": "tokenId",
          "type": "uint256"
        }
      ],
      "name": "CertificateRevoked",
      "type": "event"
    },
    {
      "anonymous": false,
      "inputs": [
        {
          "indexed": false,
          "internalType": "address",
          "name": "issuerWalletAddress",
          "type": "address"
        },
        {
          "indexed": false,
          "internalType": "string",
          "name": "issuerContentHash",
          "type": "string"
        }
      ],
      "name": "IssuerCreated",
      "type": "event"
    },
    {
      "anonymous": false,
      "inputs": [
        {
          "indexed": false,
          "internalType": "address",
          "name": "issuerWalletAddress",
          "type": "address"
        },
        {
          "indexed": false,
          "internalType": "string",
          "name": "issuerContentHash",
          "type": "string"
        }
      ],
      "name": "IssuerRemoved",
      "type": "event"
    },
    {
      "anonymous": false,
      "inputs": [
        {
          "indexed": false,
          "internalType": "address",
          "name": "issuerWalletAddress",
          "type": "address"
        },
        {
          "indexed": false,
          "internalType": "string",
          "name": "issuerContentHash",
          "type": "string"
        }
      ],
      "name": "IssuerUpdated",
      "type": "event"
    },
    {
      "anonymous": false,
      "inputs": [
        {
          "indexed": false,
          "internalType": "uint256",
          "name": "_tokenId",
          "type": "uint256"
        }
      ],
      "name": "MetadataUpdate",
      "type": "event"
    },
    {
      "anonymous": false,
      "inputs": [
        {
          "indexed": true,
          "internalType": "bytes32",
          "name": "role",
          "type": "bytes32"
        },
        {
          "indexed": true,
          "internalType": "bytes32",
          "name": "previousAdminRole",
          "type": "bytes32"
        },
        {
          "indexed": true,
          "internalType": "bytes32",
          "name": "newAdminRole",
          "type": "bytes32"
        }
      ],
      "name": "RoleAdminChanged",
      "type": "event"
    },
    {
      "anonymous": false,
      "inputs": [
        {
          "indexed": true,
          "internalType": "bytes32",
          "name": "role",
          "type": "bytes32"
        },
        {
          "indexed": true,
          "internalType": "address",
          "name": "account",
          "type": "address"
        },
        {
          "indexed": true,
          "internalType": "address",
          "name": "sender",
          "type": "address"
        }
      ],
      "name": "RoleGranted",
      "type": "event"
    },
    {
      "anonymous": false,
      "inputs": [
        {
          "indexed": true,
          "internalType": "bytes32",
          "name": "role",
          "type": "bytes32"
        },
        {
          "indexed": true,
          "internalType": "address",
          "name": "account",
          "type": "address"
        },
        {
          "indexed": true,
          "internalType": "address",
          "name": "sender",
          "type": "address"
        }
      ],
      "name": "RoleRevoked",
      "type": "event"
    },
    {
      "anonymous": false,
      "inputs": [
        {
          "indexed": true,
          "internalType": "address",
          "name": "from",
          "type": "address"
        },
        {
          "indexed": true,
          "internalType": "address",
          "name": "to",
          "type": "address"
        },
        {
          "indexed": true,
          "internalType": "uint256",
          "name": "tokenId",
          "type": "uint256"
        }
      ],
      "name": "Transfer",
      "type": "event"
    },
    {
      "inputs": [],
      "name": "DEFAULT_ADMIN_ROLE",
      "outputs": [
        {
          "internalType": "bytes32",
          "name": "",
          "type": "bytes32"
        }
      ],
      "stateMutability": "view",
      "type": "function"
    },
    {
      "inputs": [],
      "name": "ISSUER_ROLE",
      "outputs": [
        {
          "internalType": "bytes32",
          "name": "",
          "type": "bytes32"
        }
      ],
      "stateMutability": "view",
      "type": "function"
    },
    {
      "inputs": [
        {
          "internalType": "address",
          "name": "",
          "type": "address"
        }
      ],
      "name": "aboutIssuer",
      "outputs": [
        {
          "internalType": "string",
          "name": "",
          "type": "string"
        }
      ],
      "stateMutability": "view",
      "type": "function"
    },
    {
      "inputs": [],
      "name": "admin",
      "outputs": [
        {
          "internalType": "address",
          "name": "",
          "type": "address"
        }
      ],
      "stateMutability": "view",
      "type": "function"
    },
    {
      "inputs": [
        {
          "internalType": "address",
          "name": "to",
          "type": "address"
        },
        {
          "internalType": "uint256",
          "name": "tokenId",
          "type": "uint256"
        }
      ],
      "name": "approve",
      "outputs": [],
      "stateMutability": "nonpayable",
      "type": "function"
    },
    {
      "inputs": [
        {
          "internalType": "address",
          "name": "owner",
          "type": "address"
        }
      ],
      "name": "balanceOf",
      "outputs": [
        {
          "internalType": "uint256",
          "name": "",
          "type": "uint256"
        }
      ],
      "stateMutability": "view",
      "type": "function"
    },
    {
      "inputs": [
        {
          "internalType": "uint256",
          "name": "tokenId",
          "type": "uint256"
        }
      ],
      "name": "burnCertificate",
      "outputs": [],
      "stateMutability": "nonpayable",
      "type": "function"
    },
    {
      "inputs": [
        {
          "internalType": "address",
          "name": "issuerWalletAddress",
          "type": "address"
        },
        {
          "internalType": "string",
          "name": "contentHash",
          "type": "string"
        }
      ],
      "name": "createIssuer",
      "outputs": [],
      "stateMutability": "nonpayable",
      "type": "function"
    },
    {
      "inputs": [
        {
          "internalType": "uint256",
          "name": "tokenId",
          "type": "uint256"
        }
      ],
      "name": "getApproved",
      "outputs": [
        {
          "internalType": "address",
          "name": "",
          "type": "address"
        }
      ],
      "stateMutability": "view",
      "type": "function"
    },
    {
      "inputs": [],
      "name": "getIssuedTokenList",
      "outputs": [
        {
          "internalType": "uint256[]",
          "name": "",
          "type": "uint256[]"
        }
      ],
      "stateMutability": "view",
      "type": "function"
    },
    {
      "inputs": [
        {
          "internalType": "address",
          "name": "issuerWalletAddress",
          "type": "address"
        }
      ],
      "name": "getIssuerInfo",
      "outputs": [
        {
          "internalType": "string",
          "name": "contentHash",
          "type": "string"
        }
      ],
      "stateMutability": "view",
      "type": "function"
    },
    {
      "inputs": [],
      "name": "getIssuersList",
      "outputs": [
        {
          "internalType": "address[]",
          "name": "",
          "type": "address[]"
        }
      ],
      "stateMutability": "view",
      "type": "function"
    },
    {
      "inputs": [
        {
          "internalType": "bytes32",
          "name": "role",
          "type": "bytes32"
        }
      ],
      "name": "getRoleAdmin",
      "outputs": [
        {
          "internalType": "bytes32",
          "name": "",
          "type": "bytes32"
        }
      ],
      "stateMutability": "view",
      "type": "function"
    },
    {
      "inputs": [
        {
          "internalType": "address",
          "name": "walletAddress",
          "type": "address"
        }
      ],
      "name": "getWalletAddressRole",
      "outputs": [
        {
          "internalType": "string",
          "name": "role",
          "type": "string"
        }
      ],
      "stateMutability": "view",
      "type": "function"
    },
    {
      "inputs": [
        {
          "internalType": "bytes32",
          "name": "role",
          "type": "bytes32"
        },
        {
          "internalType": "address",
          "name": "account",
          "type": "address"
        }
      ],
      "name": "grantRole",
      "outputs": [],
      "stateMutability": "nonpayable",
      "type": "function"
    },
    {
      "inputs": [
        {
          "internalType": "bytes32",
          "name": "role",
          "type": "bytes32"
        },
        {
          "internalType": "address",
          "name": "account",
          "type": "address"
        }
      ],
      "name": "hasRole",
      "outputs": [
        {
          "internalType": "bool",
          "name": "",
          "type": "bool"
        }
      ],
      "stateMutability": "view",
      "type": "function"
    },
    {
      "inputs": [
        {
          "internalType": "address",
          "name": "owner",
          "type": "address"
        },
        {
          "internalType": "address",
          "name": "operator",
          "type": "address"
        }
      ],
      "name": "isApprovedForAll",
      "outputs": [
        {
          "internalType": "bool",
          "name": "",
          "type": "bool"
        }
      ],
      "stateMutability": "view",
      "type": "function"
    },
    {
      "inputs": [
        {
          "internalType": "address",
          "name": "to",
          "type": "address"
        },
        {
          "internalType": "string",
          "name": "contentHash",
          "type": "string"
        }
      ],
      "name": "issueCertificate",
      "outputs": [
        {
          "internalType": "uint256",
          "name": "NFTTokenId",
          "type": "uint256"
        }
      ],
      "stateMutability": "nonpayable",
      "type": "function"
    },
    {
      "inputs": [],
      "name": "name",
      "outputs": [
        {
          "internalType": "string",
          "name": "",
          "type": "string"
        }
      ],
      "stateMutability": "view",
      "type": "function"
    },
    {
      "inputs": [
        {
          "internalType": "uint256",
          "name": "tokenId",
          "type": "uint256"
        }
      ],
      "name": "ownerOf",
      "outputs": [
        {
          "internalType": "address",
          "name": "",
          "type": "address"
        }
      ],
      "stateMutability": "view",
      "type": "function"
    },
    {
      "inputs": [
        {
          "internalType": "address",
          "name": "issuerWalletAddress",
          "type": "address"
        }
      ],
      "name": "removeIssuer",
      "outputs": [],
      "stateMutability": "nonpayable",
      "type": "function"
    },
    {
      "inputs": [
        {
          "internalType": "bytes32",
          "name": "role",
          "type": "bytes32"
        },
        {
          "internalType": "address",
          "name": "account",
          "type": "address"
        }
      ],
      "name": "renounceRole",
      "outputs": [],
      "stateMutability": "nonpayable",
      "type": "function"
    },
    {
      "inputs": [
        {
          "internalType": "bytes32",
          "name": "role",
          "type": "bytes32"
        },
        {
          "internalType": "address",
          "name": "account",
          "type": "address"
        }
      ],
      "name": "revokeRole",
      "outputs": [],
      "stateMutability": "nonpayable",
      "type": "function"
    },
    {
      "inputs": [
        {
          "internalType": "address",
          "name": "from",
          "type": "address"
        },
        {
          "internalType": "address",
          "name": "to",
          "type": "address"
        },
        {
          "internalType": "uint256",
          "name": "tokenId",
          "type": "uint256"
        }
      ],
      "name": "safeTransferFrom",
      "outputs": [],
      "stateMutability": "nonpayable",
      "type": "function"
    },
    {
      "inputs": [
        {
          "internalType": "address",
          "name": "from",
          "type": "address"
        },
        {
          "internalType": "address",
          "name": "to",
          "type": "address"
        },
        {
          "internalType": "uint256",
          "name": "tokenId",
          "type": "uint256"
        },
        {
          "internalType": "bytes",
          "name": "data",
          "type": "bytes"
        }
      ],
      "name": "safeTransferFrom",
      "outputs": [],
      "stateMutability": "nonpayable",
      "type": "function"
    },
    {
      "inputs": [
        {
          "internalType": "address",
          "name": "operator",
          "type": "address"
        },
        {
          "internalType": "bool",
          "name": "approved",
          "type": "bool"
        }
      ],
      "name": "setApprovalForAll",
      "outputs": [],
      "stateMutability": "nonpayable",
      "type": "function"
    },
    {
      "inputs": [
        {
          "internalType": "bytes4",
          "name": "interfaceId",
          "type": "bytes4"
        }
      ],
      "name": "supportsInterface",
      "outputs": [
        {
          "internalType": "bool",
          "name": "",
          "type": "bool"
        }
      ],
      "stateMutability": "view",
      "type": "function"
    },
    {
      "inputs": [],
      "name": "symbol",
      "outputs": [
        {
          "internalType": "string",
          "name": "",
          "type": "string"
        }
      ],
      "stateMutability": "view",
      "type": "function"
    },
    {
      "inputs": [
        {
          "internalType": "uint256",
          "name": "index",
          "type": "uint256"
        }
      ],
      "name": "tokenByIndex",
      "outputs": [
        {
          "internalType": "uint256",
          "name": "",
          "type": "uint256"
        }
      ],
      "stateMutability": "view",
      "type": "function"
    },
    {
      "inputs": [
        {
          "internalType": "address",
          "name": "owner",
          "type": "address"
        },
        {
          "internalType": "uint256",
          "name": "index",
          "type": "uint256"
        }
      ],
      "name": "tokenOfOwnerByIndex",
      "outputs": [
        {
          "internalType": "uint256",
          "name": "",
          "type": "uint256"
        }
      ],
      "stateMutability": "view",
      "type": "function"
    },
    {
      "inputs": [
        {
          "internalType": "uint256",
          "name": "tokenId",
          "type": "uint256"
        }
      ],
      "name": "tokenURI",
      "outputs": [
        {
          "internalType": "string",
          "name": "",
          "type": "string"
        }
      ],
      "stateMutability": "view",
      "type": "function"
    },
    {
      "inputs": [],
      "name": "tokensOfOwner",
      "outputs": [
        {
          "internalType": "uint256[]",
          "name": "tokenId",
          "type": "uint256[]"
        }
      ],
      "stateMutability": "view",
      "type": "function"
    },
    {
      "inputs": [],
      "name": "totalSupply",
      "outputs": [
        {
          "internalType": "uint256",
          "name": "",
          "type": "uint256"
        }
      ],
      "stateMutability": "view",
      "type": "function"
    },
    {
      "inputs": [
        {
          "internalType": "address",
          "name": "from",
          "type": "address"
        },
        {
          "internalType": "address",
          "name": "to",
          "type": "address"
        },
        {
          "internalType": "uint256",
          "name": "tokenId",
          "type": "uint256"
        }
      ],
      "name": "transferFrom",
      "outputs": [],
      "stateMutability": "nonpayable",
      "type": "function"
    },
    {
      "inputs": [
        {
          "internalType": "address",
          "name": "issuerWalletAddress",
          "type": "address"
        },
        {
          "internalType": "string",
          "name": "contentHash",
          "type": "string"
        }
      ],
      "name": "updateIssuer",
      "outputs": [],
      "stateMutability": "nonpayable",
      "type": "function"
    }
  ],
  "bytecode": "0x60806040523480156200001157600080fd5b506040518060400160405280601f81526020017f5369646468692043726564656e7469616c20536f756c626f756e64204e4654008152506040518060400160405280600781526020017f534353424e46540000000000000000000000000000000000000000000000000081525081600090816200008f9190620004df565b508060019081620000a19190620004df565b505050620000b96000801b336200010060201b60201c565b33600c60006101000a81548173ffffffffffffffffffffffffffffffffffffffff021916908373ffffffffffffffffffffffffffffffffffffffff160217905550620005c6565b620001128282620001f260201b60201c565b620001ee576001600b600084815260200190815260200160002060000160008373ffffffffffffffffffffffffffffffffffffffff1673ffffffffffffffffffffffffffffffffffffffff16815260200190815260200160002060006101000a81548160ff021916908315150217905550620001936200025d60201b60201c565b73ffffffffffffffffffffffffffffffffffffffff168173ffffffffffffffffffffffffffffffffffffffff16837f2f8788117e7eff1d82e926ec794901d17c78024a50270940304540a733656f0d60405160405180910390a45b5050565b6000600b600084815260200190815260200160002060000160008373ffffffffffffffffffffffffffffffffffffffff1673ffffffffffffffffffffffffffffffffffffffff16815260200190815260200160002060009054906101000a900460ff16905092915050565b600033905090565b600081519050919050565b7f4e487b7100000000000000000000000000000000000000000000000000000000600052604160045260246000fd5b7f4e487b7100000000000000000000000000000000000000000000000000000000600052602260045260246000fd5b60006002820490506001821680620002e757607f821691505b602082108103620002fd57620002fc6200029f565b5b50919050565b60008190508160005260206000209050919050565b60006020601f8301049050919050565b600082821b905092915050565b600060088302620003677fffffffffffffffffffffffffffffffffffffffffffffffffffffffffffffffff8262000328565b62000373868362000328565b95508019841693508086168417925050509392505050565b6000819050919050565b6000819050919050565b6000620003c0620003ba620003b4846200038b565b62000395565b6200038b565b9050919050565b6000819050919050565b620003dc836200039f565b620003f4620003eb82620003c7565b84845462000335565b825550505050565b600090565b6200040b620003fc565b62000418818484620003d1565b505050565b5b8181101562000440576200043460008262000401565b6001810190506200041e565b5050565b601f8211156200048f57620004598162000303565b620004648462000318565b8101602085101562000474578190505b6200048c620004838562000318565b8301826200041d565b50505b505050565b600082821c905092915050565b6000620004b46000198460080262000494565b1980831691505092915050565b6000620004cf8383620004a1565b9150826002028217905092915050565b620004ea8262000265565b67ffffffffffffffff81111562000506576200050562000270565b5b620005128254620002ce565b6200051f82828562000444565b600060209050601f83116001811462000557576000841562000542578287015190505b6200054e8582620004c1565b865550620005be565b601f198416620005678662000303565b60005b8281101562000591578489015182556001820191506020850194506020810190506200056a565b86831015620005b15784890151620005ad601f891682620004a1565b8355505b6001600288020188555050505b505050505050565b61588c80620005d66000396000f3fe608060405234801561001057600080fd5b50600436106102115760003560e01c806370a0823111610125578063bb721aab116100ad578063e985e9c51161007c578063e985e9c51461064a578063ed9cc1ce1461067a578063f6a03f59146106aa578063f851a440146106c6578063fa36512f146106e457610211565b8063bb721aab146105b0578063c66941d9146105e0578063c87b56dd146105fe578063d547741f1461062e57610211565b806395d89b41116100f457806395d89b411461051e57806395ea0f121461053c578063a217fddf1461055a578063a22cb46514610578578063b88d4fde1461059457610211565b806370a082311461048457806382aefa24146104b457806391d14854146104d257806393b16b451461050257610211565b80632f2ff15d116101a8578063477ffce511610177578063477ffce5146103ba57806347bc7093146103d85780634f6ccce7146103f45780635e9aab70146104245780636352211e1461045457610211565b80632f2ff15d146103365780632f745c591461035257806336568abe1461038257806342842e0e1461039e57610211565b806318160ddd116101e457806318160ddd146102b05780631a969944146102ce57806323b872dd146102ea578063248a9ca31461030657610211565b806301ffc9a71461021657806306fdde0314610246578063081812fc14610264578063095ea7b314610294575b600080fd5b610230600480360381019061022b9190613e0f565b610714565b60405161023d9190613e57565b60405180910390f35b61024e610726565b60405161025b9190613f02565b60405180910390f35b61027e60048036038101906102799190613f5a565b6107b8565b60405161028b9190613fc8565b60405180910390f35b6102ae60048036038101906102a9919061400f565b6107fe565b005b6102b8610915565b6040516102c5919061405e565b60405180910390f35b6102e860048036038101906102e391906141ae565b610922565b005b61030460048036038101906102ff919061420a565b610ab3565b005b610320600480360381019061031b9190614293565b610b13565b60405161032d91906142cf565b60405180910390f35b610350600480360381019061034b91906142ea565b610b33565b005b61036c6004803603810190610367919061400f565b610b54565b604051610379919061405e565b60405180910390f35b61039c600480360381019061039791906142ea565b610bf9565b005b6103b860048036038101906103b3919061420a565b610c7c565b005b6103c2610c9c565b6040516103cf91906143e8565b60405180910390f35b6103f260048036038101906103ed919061440a565b610d38565b005b61040e60048036038101906104099190613f5a565b6110ce565b60405161041b919061405e565b60405180910390f35b61043e6004803603810190610439919061440a565b61113f565b60405161044b9190613f02565b60405180910390f35b61046e60048036038101906104699190613f5a565b61127b565b60405161047b9190613fc8565b60405180910390f35b61049e6004803603810190610499919061440a565b611301565b6040516104ab919061405e565b60405180910390f35b6104bc6113b8565b6040516104c991906142cf565b60405180910390f35b6104ec60048036038101906104e791906142ea565b6113dc565b6040516104f99190613e57565b60405180910390f35b61051c60048036038101906105179190613f5a565b611447565b005b610526611865565b6040516105339190613f02565b60405180910390f35b6105446118f7565b60405161055191906144f5565b60405180910390f35b6105626119a3565b60405161056f91906142cf565b60405180910390f35b610592600480360381019061058d9190614543565b6119aa565b005b6105ae60048036038101906105a99190614624565b6119c0565b005b6105ca60048036038101906105c591906141ae565b611a22565b6040516105d7919061405e565b60405180910390f35b6105e8611b26565b6040516105f591906144f5565b60405180910390f35b61061860048036038101906106139190613f5a565b611be6565b6040516106259190613f02565b60405180910390f35b610648600480360381019061064391906142ea565b611bf8565b005b610664600480360381019061065f91906146a7565b611c19565b6040516106719190613e57565b60405180910390f35b610694600480360381019061068f919061440a565b611cad565b6040516106a19190613f02565b60405180910390f35b6106c460048036038101906106bf91906141ae565b611d4d565b005b6106ce611e50565b6040516106db9190613fc8565b60405180910390f35b6106fe60048036038101906106f9919061440a565b611e76565b60405161070b9190613f02565b60405180910390f35b600061071f82611f71565b9050919050565b60606000805461073590614716565b80601f016020809104026020016040519081016040528092919081815260200182805461076190614716565b80156107ae5780601f10610783576101008083540402835291602001916107ae565b820191906000526020600020905b81548152906001019060200180831161079157829003601f168201915b5050505050905090565b60006107c382611feb565b6004600083815260200190815260200160002060009054906101000a900473ffffffffffffffffffffffffffffffffffffffff169050919050565b60006108098261127b565b90508073ffffffffffffffffffffffffffffffffffffffff168373ffffffffffffffffffffffffffffffffffffffff1603610879576040517f08c379a0000000000000000000000000000000000000000000000000000000008152600401610870906147b9565b60405180910390fd5b8073ffffffffffffffffffffffffffffffffffffffff16610898612036565b73ffffffffffffffffffffffffffffffffffffffff1614806108c757506108c6816108c1612036565b611c19565b5b610906576040517f08c379a00000000000000000000000000000000000000000000000000000000081526004016108fd9061484b565b60405180910390fd5b610910838361203e565b505050565b6000600980549050905090565b6000801b61092f816120f7565b6109597f76afa8a5929fef1b4c03674b2152ae5aaad1d974b8a4021c59477bcc846ccc1e846113dc565b1561099b57826040517fb1d3f1bc0000000000000000000000000000000000000000000000000000000081526004016109929190613fc8565b60405180910390fd5b6109c57f76afa8a5929fef1b4c03674b2152ae5aaad1d974b8a4021c59477bcc846ccc1e8461210b565b6010839080600181540180825580915050600190039060005260206000200160009091909190916101000a81548173ffffffffffffffffffffffffffffffffffffffff021916908373ffffffffffffffffffffffffffffffffffffffff16021790555081600e60008573ffffffffffffffffffffffffffffffffffffffff1673ffffffffffffffffffffffffffffffffffffffff1681526020019081526020016000209081610a749190614a17565b507f6bb73a24fe81dad9bcb96ff68bb44f5f3725eac06578ae43b30e1636a0b72f118383604051610aa6929190614ae9565b60405180910390a1505050565b610ac4610abe612036565b826121ec565b610b03576040517f08c379a0000000000000000000000000000000000000000000000000000000008152600401610afa90614b8b565b60405180910390fd5b610b0e838383612281565b505050565b6000600b6000838152602001908152602001600020600101549050919050565b610b3c82610b13565b610b45816120f7565b610b4f838361210b565b505050565b6000610b5f83611301565b8210610ba0576040517f08c379a0000000000000000000000000000000000000000000000000000000008152600401610b9790614c1d565b60405180910390fd5b600760008473ffffffffffffffffffffffffffffffffffffffff1673ffffffffffffffffffffffffffffffffffffffff168152602001908152602001600020600083815260200190815260200160002054905092915050565b610c01612036565b73ffffffffffffffffffffffffffffffffffffffff168173ffffffffffffffffffffffffffffffffffffffff1614610c6e576040517f08c379a0000000000000000000000000000000000000000000000000000000008152600401610c6590614caf565b60405180910390fd5b610c78828261257a565b5050565b610c97838383604051806020016040528060008152506119c0565b505050565b60606000801b610cab816120f7565b6010805480602002602001604051908101604052809291908181526020018280548015610d2d57602002820191906000526020600020905b8160009054906101000a900473ffffffffffffffffffffffffffffffffffffffff1673ffffffffffffffffffffffffffffffffffffffff1681526020019060010190808311610ce3575b505050505091505090565b6000801b610d45816120f7565b610d6f7f76afa8a5929fef1b4c03674b2152ae5aaad1d974b8a4021c59477bcc846ccc1e836113dc565b610db057816040517f6ec3bc85000000000000000000000000000000000000000000000000000000008152600401610da79190613fc8565b60405180910390fd5b610dda7f76afa8a5929fef1b4c03674b2152ae5aaad1d974b8a4021c59477bcc846ccc1e8361257a565b600080601080549050905060006010600183610df69190614cfe565b81548110610e0757610e06614d32565b5b9060005260206000200160009054906101000a900473ffffffffffffffffffffffffffffffffffffffff16905060005b82811015610f27578573ffffffffffffffffffffffffffffffffffffffff1660108281548110610e6a57610e69614d32565b5b9060005260206000200160009054906101000a900473ffffffffffffffffffffffffffffffffffffffff1673ffffffffffffffffffffffffffffffffffffffff1603610f16578160108281548110610ec557610ec4614d32565b5b9060005260206000200160006101000a81548173ffffffffffffffffffffffffffffffffffffffff021916908373ffffffffffffffffffffffffffffffffffffffff16021790555060019350610f27565b80610f2090614d61565b9050610e37565b508215610f76576010805480610f4057610f3f614da9565b5b6001900381819060005260206000200160006101000a81549073ffffffffffffffffffffffffffffffffffffffff021916905590555b6000600e60008773ffffffffffffffffffffffffffffffffffffffff1673ffffffffffffffffffffffffffffffffffffffff1681526020019081526020016000208054610fc290614716565b80601f0160208091040260200160405190810160405280929190818152602001828054610fee90614716565b801561103b5780601f106110105761010080835404028352916020019161103b565b820191906000526020600020905b81548152906001019060200180831161101e57829003601f168201915b505050505090507f2d87004a9f2eb39dc280c5cec7e8a334a43871940fb3e3ff72839f70cebff6668682604051611073929190614ae9565b60405180910390a1600e60008773ffffffffffffffffffffffffffffffffffffffff1673ffffffffffffffffffffffffffffffffffffffff16815260200190815260200160002060006110c69190613d46565b505050505050565b60006110d8610915565b8210611119576040517f08c379a000000000000000000000000000000000000000000000000000000000815260040161111090614e4a565b60405180910390fd5b6009828154811061112d5761112c614d32565b5b90600052602060002001549050919050565b606061116b7f76afa8a5929fef1b4c03674b2152ae5aaad1d974b8a4021c59477bcc846ccc1e836113dc565b6111ac57816040517f6ec3bc850000000000000000000000000000000000000000000000000000000081526004016111a39190613fc8565b60405180910390fd5b600e60008373ffffffffffffffffffffffffffffffffffffffff1673ffffffffffffffffffffffffffffffffffffffff16815260200190815260200160002080546111f690614716565b80601f016020809104026020016040519081016040528092919081815260200182805461122290614716565b801561126f5780601f106112445761010080835404028352916020019161126f565b820191906000526020600020905b81548152906001019060200180831161125257829003601f168201915b50505050509050919050565b6000806112878361265c565b9050600073ffffffffffffffffffffffffffffffffffffffff168173ffffffffffffffffffffffffffffffffffffffff16036112f8576040517f08c379a00000000000000000000000000000000000000000000000000000000081526004016112ef90614eb6565b60405180910390fd5b80915050919050565b60008073ffffffffffffffffffffffffffffffffffffffff168273ffffffffffffffffffffffffffffffffffffffff1603611371576040517f08c379a000000000000000000000000000000000000000000000000000000000815260040161136890614f48565b60405180910390fd5b600360008373ffffffffffffffffffffffffffffffffffffffff1673ffffffffffffffffffffffffffffffffffffffff168152602001908152602001600020549050919050565b7f76afa8a5929fef1b4c03674b2152ae5aaad1d974b8a4021c59477bcc846ccc1e81565b6000600b600084815260200190815260200160002060000160008373ffffffffffffffffffffffffffffffffffffffff1673ffffffffffffffffffffffffffffffffffffffff16815260200190815260200160002060009054906101000a900460ff16905092915050565b7f76afa8a5929fef1b4c03674b2152ae5aaad1d974b8a4021c59477bcc846ccc1e611471816120f7565b81600080600f60003373ffffffffffffffffffffffffffffffffffffffff1673ffffffffffffffffffffffffffffffffffffffff16815260200190815260200160002080549050905060005b81811015611548576000600f60003373ffffffffffffffffffffffffffffffffffffffff1673ffffffffffffffffffffffffffffffffffffffff168152602001908152602001600020828154811061151857611517614d32565b5b90600052602060002001549050848103611536576001935050611548565b508061154190614d61565b90506114bd565b5081611589576040517f08c379a000000000000000000000000000000000000000000000000000000000815260040161158090614fda565b60405180910390fd5b60006115948661127b565b9050600073ffffffffffffffffffffffffffffffffffffffff168173ffffffffffffffffffffffffffffffffffffffff160361160757856040517f6caeb1300000000000000000000000000000000000000000000000000000000081526004016115fe919061405e565b60405180910390fd5b600080600f60003373ffffffffffffffffffffffffffffffffffffffff1673ffffffffffffffffffffffffffffffffffffffff1681526020019081526020016000208054905090506000600f60003373ffffffffffffffffffffffffffffffffffffffff1673ffffffffffffffffffffffffffffffffffffffff16815260200190815260200160002060018361169d9190614cfe565b815481106116ae576116ad614d32565b5b9060005260206000200154905060005b828110156117a9576000600f60003373ffffffffffffffffffffffffffffffffffffffff1673ffffffffffffffffffffffffffffffffffffffff168152602001908152602001600020828154811061171957611718614d32565b5b906000526020600020015490508a81036117975782600f60003373ffffffffffffffffffffffffffffffffffffffff1673ffffffffffffffffffffffffffffffffffffffff168152602001908152602001600020838154811061177f5761177e614d32565b5b906000526020600020018190555060019450506117a9565b50806117a290614d61565b90506116be565b50821561181657600f60003373ffffffffffffffffffffffffffffffffffffffff1673ffffffffffffffffffffffffffffffffffffffff1681526020019081526020016000208054806117ff576117fe614da9565b5b600190038181906000526020600020016000905590555b7f172277909bd1a01a852cbc3f739956f79822e367c309debfefb68db3396a891333858b60405161184993929190614ffa565b60405180910390a161185a89612699565b505050505050505050565b60606001805461187490614716565b80601f01602080910402602001604051908101604052809291908181526020018280546118a090614716565b80156118ed5780601f106118c2576101008083540402835291602001916118ed565b820191906000526020600020905b8154815290600101906020018083116118d057829003601f168201915b5050505050905090565b6060600061190433611301565b905060008167ffffffffffffffff81111561192257611921614083565b5b6040519080825280602002602001820160405280156119505781602001602082028036833780820191505090505b50905060005b8281101561199a576119683382610b54565b82828151811061197b5761197a614d32565b5b602002602001018181525050808061199290614d61565b915050611956565b50809250505090565b6000801b81565b6119bc6119b5612036565b83836126a5565b5050565b6119d16119cb612036565b836121ec565b611a10576040517f08c379a0000000000000000000000000000000000000000000000000000000008152600401611a0790614b8b565b60405180910390fd5b611a1c84848484612811565b50505050565b60007f76afa8a5929fef1b4c03674b2152ae5aaad1d974b8a4021c59477bcc846ccc1e611a4e816120f7565b6000611a5a600d61286d565b9050611a66600d61287b565b611a708582612891565b611a7a81856128af565b600f60003373ffffffffffffffffffffffffffffffffffffffff1673ffffffffffffffffffffffffffffffffffffffff1681526020019081526020016000208190806001815401808255809150506001900390600052602060002001600090919091909150557f38852d3790cecf8789b659b361b1b912c0376598019c00c87b8ce9142f3c3453338683604051611b1393929190614ffa565b60405180910390a1809250505092915050565b60607f76afa8a5929fef1b4c03674b2152ae5aaad1d974b8a4021c59477bcc846ccc1e611b52816120f7565b600f60003373ffffffffffffffffffffffffffffffffffffffff1673ffffffffffffffffffffffffffffffffffffffff168152602001908152602001600020805480602002602001604051908101604052809291908181526020018280548015611bdb57602002820191906000526020600020905b815481526020019060010190808311611bc7575b505050505091505090565b6060611bf182612953565b9050919050565b611c0182610b13565b611c0a816120f7565b611c14838361257a565b505050565b6000600560008473ffffffffffffffffffffffffffffffffffffffff1673ffffffffffffffffffffffffffffffffffffffff16815260200190815260200160002060008373ffffffffffffffffffffffffffffffffffffffff1673ffffffffffffffffffffffffffffffffffffffff16815260200190815260200160002060009054906101000a900460ff16905092915050565b600e6020528060005260406000206000915090508054611ccc90614716565b80601f0160208091040260200160405190810160405280929190818152602001828054611cf890614716565b8015611d455780601f10611d1a57610100808354040283529160200191611d45565b820191906000526020600020905b815481529060010190602001808311611d2857829003601f168201915b505050505081565b6000801b611d5a816120f7565b611d847f76afa8a5929fef1b4c03674b2152ae5aaad1d974b8a4021c59477bcc846ccc1e846113dc565b611dc557826040517f6ec3bc85000000000000000000000000000000000000000000000000000000008152600401611dbc9190613fc8565b60405180910390fd5b81600e60008573ffffffffffffffffffffffffffffffffffffffff1673ffffffffffffffffffffffffffffffffffffffff1681526020019081526020016000209081611e119190614a17565b507f1befe08676699a216ff0efeb784db78fcfaee01d0217bc3efeefa305fb97cbb98383604051611e43929190614ae9565b60405180910390a1505050565b600c60009054906101000a900473ffffffffffffffffffffffffffffffffffffffff1681565b6060611e856000801b836113dc565b15611ec7576040518060400160405280600581526020017f41444d494e0000000000000000000000000000000000000000000000000000008152509050611f6c565b611ef17f76afa8a5929fef1b4c03674b2152ae5aaad1d974b8a4021c59477bcc846ccc1e836113dc565b15611f33576040518060400160405280600681526020017f49535355455200000000000000000000000000000000000000000000000000008152509050611f6c565b6040518060400160405280600481526020017f555345520000000000000000000000000000000000000000000000000000000081525090505b919050565b60007f7965db0b000000000000000000000000000000000000000000000000000000007bffffffffffffffffffffffffffffffffffffffffffffffffffffffff1916827bffffffffffffffffffffffffffffffffffffffffffffffffffffffff19161480611fe45750611fe382612a65565b5b9050919050565b611ff481612adf565b612033576040517f08c379a000000000000000000000000000000000000000000000000000000000815260040161202a90614eb6565b60405180910390fd5b50565b600033905090565b816004600083815260200190815260200160002060006101000a81548173ffffffffffffffffffffffffffffffffffffffff021916908373ffffffffffffffffffffffffffffffffffffffff160217905550808273ffffffffffffffffffffffffffffffffffffffff166120b18361127b565b73ffffffffffffffffffffffffffffffffffffffff167f8c5be1e5ebec7d5bd14f71427d1e84f3dd0314c0f7b2291e5b200ac8c7c3b92560405160405180910390a45050565b61210881612103612036565b612b20565b50565b61211582826113dc565b6121e8576001600b600084815260200190815260200160002060000160008373ffffffffffffffffffffffffffffffffffffffff1673ffffffffffffffffffffffffffffffffffffffff16815260200190815260200160002060006101000a81548160ff02191690831515021790555061218d612036565b73ffffffffffffffffffffffffffffffffffffffff168173ffffffffffffffffffffffffffffffffffffffff16837f2f8788117e7eff1d82e926ec794901d17c78024a50270940304540a733656f0d60405160405180910390a45b5050565b6000806121f88361127b565b90508073ffffffffffffffffffffffffffffffffffffffff168473ffffffffffffffffffffffffffffffffffffffff16148061223a57506122398185611c19565b5b8061227857508373ffffffffffffffffffffffffffffffffffffffff16612260846107b8565b73ffffffffffffffffffffffffffffffffffffffff16145b91505092915050565b8273ffffffffffffffffffffffffffffffffffffffff166122a18261127b565b73ffffffffffffffffffffffffffffffffffffffff16146122f7576040517f08c379a00000000000000000000000000000000000000000000000000000000081526004016122ee906150a3565b60405180910390fd5b600073ffffffffffffffffffffffffffffffffffffffff168273ffffffffffffffffffffffffffffffffffffffff1603612366576040517f08c379a000000000000000000000000000000000000000000000000000000000815260040161235d90615135565b60405180910390fd5b6123738383836001612ba5565b8273ffffffffffffffffffffffffffffffffffffffff166123938261127b565b73ffffffffffffffffffffffffffffffffffffffff16146123e9576040517f08c379a00000000000000000000000000000000000000000000000000000000081526004016123e0906150a3565b60405180910390fd5b6004600082815260200190815260200160002060006101000a81549073ffffffffffffffffffffffffffffffffffffffff02191690556001600360008573ffffffffffffffffffffffffffffffffffffffff1673ffffffffffffffffffffffffffffffffffffffff168152602001908152602001600020600082825403925050819055506001600360008473ffffffffffffffffffffffffffffffffffffffff1673ffffffffffffffffffffffffffffffffffffffff16815260200190815260200160002060008282540192505081905550816002600083815260200190815260200160002060006101000a81548173ffffffffffffffffffffffffffffffffffffffff021916908373ffffffffffffffffffffffffffffffffffffffff160217905550808273ffffffffffffffffffffffffffffffffffffffff168473ffffffffffffffffffffffffffffffffffffffff167fddf252ad1be2c89b69c2b068fc378daa952ba7f163c4a11628f55a4df523b3ef60405160405180910390a46125758383836001612c5d565b505050565b61258482826113dc565b15612658576000600b600084815260200190815260200160002060000160008373ffffffffffffffffffffffffffffffffffffffff1673ffffffffffffffffffffffffffffffffffffffff16815260200190815260200160002060006101000a81548160ff0219169083151502179055506125fd612036565b73ffffffffffffffffffffffffffffffffffffffff168173ffffffffffffffffffffffffffffffffffffffff16837ff6391f5c32d9c69d2a47ea670b442974b53935d1edc7fd64eb21e047a839171b60405160405180910390a45b5050565b60006002600083815260200190815260200160002060009054906101000a900473ffffffffffffffffffffffffffffffffffffffff169050919050565b6126a281612c63565b50565b8173ffffffffffffffffffffffffffffffffffffffff168373ffffffffffffffffffffffffffffffffffffffff1603612713576040517f08c379a000000000000000000000000000000000000000000000000000000000815260040161270a906151a1565b60405180910390fd5b80600560008573ffffffffffffffffffffffffffffffffffffffff1673ffffffffffffffffffffffffffffffffffffffff16815260200190815260200160002060008473ffffffffffffffffffffffffffffffffffffffff1673ffffffffffffffffffffffffffffffffffffffff16815260200190815260200160002060006101000a81548160ff0219169083151502179055508173ffffffffffffffffffffffffffffffffffffffff168373ffffffffffffffffffffffffffffffffffffffff167f17307eab39ab6107e8899845ad3d59bd9653f200f220920489ca2b5937696c31836040516128049190613e57565b60405180910390a3505050565b61281c848484612281565b61282884848484612cb6565b612867576040517f08c379a000000000000000000000000000000000000000000000000000000000815260040161285e90615233565b60405180910390fd5b50505050565b600081600001549050919050565b6001816000016000828254019250508190555050565b6128ab828260405180602001604052806000815250612e3d565b5050565b6128b882612adf565b6128f7576040517f08c379a00000000000000000000000000000000000000000000000000000000081526004016128ee906152c5565b60405180910390fd5b806006600084815260200190815260200160002090816129179190614a17565b507ff8e1a15aba9398e019f0b49df1a4fde98ee17ae345cb5f6b5e2c27f5033e8ce782604051612947919061405e565b60405180910390a15050565b606061295e82611feb565b600060066000848152602001908152602001600020805461297e90614716565b80601f01602080910402602001604051908101604052809291908181526020018280546129aa90614716565b80156129f75780601f106129cc576101008083540402835291602001916129f7565b820191906000526020600020905b8154815290600101906020018083116129da57829003601f168201915b505050505090506000612a08612e98565b90506000815103612a1d578192505050612a60565b600082511115612a52578082604051602001612a3a929190615321565b60405160208183030381529060405292505050612a60565b612a5b84612eaf565b925050505b919050565b60007f780e9d63000000000000000000000000000000000000000000000000000000007bffffffffffffffffffffffffffffffffffffffffffffffffffffffff1916827bffffffffffffffffffffffffffffffffffffffffffffffffffffffff19161480612ad85750612ad782612f17565b5b9050919050565b60008073ffffffffffffffffffffffffffffffffffffffff16612b018361265c565b73ffffffffffffffffffffffffffffffffffffffff1614159050919050565b612b2a82826113dc565b612ba157612b3781612f78565b612b458360001c6020612fa5565b604051602001612b569291906153dd565b6040516020818303038152906040526040517f08c379a0000000000000000000000000000000000000000000000000000000008152600401612b989190613f02565b60405180910390fd5b5050565b600073ffffffffffffffffffffffffffffffffffffffff168473ffffffffffffffffffffffffffffffffffffffff161480612c0c5750600073ffffffffffffffffffffffffffffffffffffffff168373ffffffffffffffffffffffffffffffffffffffff16145b612c4b576040517f08c379a0000000000000000000000000000000000000000000000000000000008152600401612c42906154af565b60405180910390fd5b612c57848484846131e1565b50505050565b50505050565b612c6c8161333f565b6000600660008381526020019081526020016000208054612c8c90614716565b905014612cb357600660008281526020019081526020016000206000612cb29190613d46565b5b50565b6000612cd78473ffffffffffffffffffffffffffffffffffffffff1661348d565b15612e30578373ffffffffffffffffffffffffffffffffffffffff1663150b7a02612d00612036565b8786866040518563ffffffff1660e01b8152600401612d229493929190615524565b6020604051808303816000875af1925050508015612d5e57506040513d601f19601f82011682018060405250810190612d5b9190615585565b60015b612de0573d8060008114612d8e576040519150601f19603f3d011682016040523d82523d6000602084013e612d93565b606091505b506000815103612dd8576040517f08c379a0000000000000000000000000000000000000000000000000000000008152600401612dcf90615233565b60405180910390fd5b805181602001fd5b63150b7a0260e01b7bffffffffffffffffffffffffffffffffffffffffffffffffffffffff1916817bffffffffffffffffffffffffffffffffffffffffffffffffffffffff191614915050612e35565b600190505b949350505050565b612e4783836134b0565b612e546000848484612cb6565b612e93576040517f08c379a0000000000000000000000000000000000000000000000000000000008152600401612e8a90615233565b60405180910390fd5b505050565b606060405180602001604052806000815250905090565b6060612eba82611feb565b6000612ec4612e98565b90506000815111612ee45760405180602001604052806000815250612f0f565b80612eee846136cd565b604051602001612eff929190615321565b6040516020818303038152906040525b915050919050565b6000634906490660e01b7bffffffffffffffffffffffffffffffffffffffffffffffffffffffff1916827bffffffffffffffffffffffffffffffffffffffffffffffffffffffff19161480612f715750612f708261379b565b5b9050919050565b6060612f9e8273ffffffffffffffffffffffffffffffffffffffff16601460ff16612fa5565b9050919050565b606060006002836002612fb891906155b2565b612fc291906155f4565b67ffffffffffffffff811115612fdb57612fda614083565b5b6040519080825280601f01601f19166020018201604052801561300d5781602001600182028036833780820191505090505b5090507f30000000000000000000000000000000000000000000000000000000000000008160008151811061304557613044614d32565b5b60200101907effffffffffffffffffffffffffffffffffffffffffffffffffffffffffffff1916908160001a9053507f7800000000000000000000000000000000000000000000000000000000000000816001815181106130a9576130a8614d32565b5b60200101907effffffffffffffffffffffffffffffffffffffffffffffffffffffffffffff1916908160001a905350600060018460026130e991906155b2565b6130f391906155f4565b90505b6001811115613193577f3031323334353637383961626364656600000000000000000000000000000000600f86166010811061313557613134614d32565b5b1a60f81b82828151811061314c5761314b614d32565b5b60200101907effffffffffffffffffffffffffffffffffffffffffffffffffffffffffffff1916908160001a905350600485901c94508061318c90615628565b90506130f6565b50600084146131d7576040517f08c379a00000000000000000000000000000000000000000000000000000000081526004016131ce9061569d565b60405180910390fd5b8091505092915050565b6131ed8484848461387d565b6001811115613231576040517f08c379a00000000000000000000000000000000000000000000000000000000081526004016132289061572f565b60405180910390fd5b6000829050600073ffffffffffffffffffffffffffffffffffffffff168573ffffffffffffffffffffffffffffffffffffffff16036132785761327381613883565b6132b7565b8373ffffffffffffffffffffffffffffffffffffffff168573ffffffffffffffffffffffffffffffffffffffff16146132b6576132b585826138cc565b5b5b600073ffffffffffffffffffffffffffffffffffffffff168473ffffffffffffffffffffffffffffffffffffffff16036132f9576132f481613a39565b613338565b8473ffffffffffffffffffffffffffffffffffffffff168473ffffffffffffffffffffffffffffffffffffffff1614613337576133368482613b0a565b5b5b5050505050565b600061334a8261127b565b905061335a816000846001612ba5565b6133638261127b565b90506004600083815260200190815260200160002060006101000a81549073ffffffffffffffffffffffffffffffffffffffff02191690556001600360008373ffffffffffffffffffffffffffffffffffffffff1673ffffffffffffffffffffffffffffffffffffffff168152602001908152602001600020600082825403925050819055506002600083815260200190815260200160002060006101000a81549073ffffffffffffffffffffffffffffffffffffffff021916905581600073ffffffffffffffffffffffffffffffffffffffff168273ffffffffffffffffffffffffffffffffffffffff167fddf252ad1be2c89b69c2b068fc378daa952ba7f163c4a11628f55a4df523b3ef60405160405180910390a4613489816000846001612c5d565b5050565b6000808273ffffffffffffffffffffffffffffffffffffffff163b119050919050565b600073ffffffffffffffffffffffffffffffffffffffff168273ffffffffffffffffffffffffffffffffffffffff160361351f576040517f08c379a00000000000000000000000000000000000000000000000000000000081526004016135169061579b565b60405180910390fd5b61352881612adf565b15613568576040517f08c379a000000000000000000000000000000000000000000000000000000000815260040161355f90615807565b60405180910390fd5b613576600083836001612ba5565b61357f81612adf565b156135bf576040517f08c379a00000000000000000000000000000000000000000000000000000000081526004016135b690615807565b60405180910390fd5b6001600360008473ffffffffffffffffffffffffffffffffffffffff1673ffffffffffffffffffffffffffffffffffffffff16815260200190815260200160002060008282540192505081905550816002600083815260200190815260200160002060006101000a81548173ffffffffffffffffffffffffffffffffffffffff021916908373ffffffffffffffffffffffffffffffffffffffff160217905550808273ffffffffffffffffffffffffffffffffffffffff16600073ffffffffffffffffffffffffffffffffffffffff167fddf252ad1be2c89b69c2b068fc378daa952ba7f163c4a11628f55a4df523b3ef60405160405180910390a46136c9600083836001612c5d565b5050565b6060600060016136dc84613b89565b01905060008167ffffffffffffffff8111156136fb576136fa614083565b5b6040519080825280601f01601f19166020018201604052801561372d5781602001600182028036833780820191505090505b509050600082602001820190505b600115613790578080600190039150507f3031323334353637383961626364656600000000000000000000000000000000600a86061a8153600a858161378457613783615827565b5b0494506000850361373b575b819350505050919050565b60007f80ac58cd000000000000000000000000000000000000000000000000000000007bffffffffffffffffffffffffffffffffffffffffffffffffffffffff1916827bffffffffffffffffffffffffffffffffffffffffffffffffffffffff1916148061386657507f5b5e139f000000000000000000000000000000000000000000000000000000007bffffffffffffffffffffffffffffffffffffffffffffffffffffffff1916827bffffffffffffffffffffffffffffffffffffffffffffffffffffffff1916145b80613876575061387582613cdc565b5b9050919050565b50505050565b600980549050600a600083815260200190815260200160002081905550600981908060018154018082558091505060019003906000526020600020016000909190919091505550565b600060016138d984611301565b6138e39190614cfe565b90506000600860008481526020019081526020016000205490508181146139c8576000600760008673ffffffffffffffffffffffffffffffffffffffff1673ffffffffffffffffffffffffffffffffffffffff168152602001908152602001600020600084815260200190815260200160002054905080600760008773ffffffffffffffffffffffffffffffffffffffff1673ffffffffffffffffffffffffffffffffffffffff168152602001908152602001600020600084815260200190815260200160002081905550816008600083815260200190815260200160002081905550505b6008600084815260200190815260200160002060009055600760008573ffffffffffffffffffffffffffffffffffffffff1673ffffffffffffffffffffffffffffffffffffffff16815260200190815260200160002060008381526020019081526020016000206000905550505050565b60006001600980549050613a4d9190614cfe565b90506000600a6000848152602001908152602001600020549050600060098381548110613a7d57613a7c614d32565b5b906000526020600020015490508060098381548110613a9f57613a9e614d32565b5b906000526020600020018190555081600a600083815260200190815260200160002081905550600a6000858152602001908152602001600020600090556009805480613aee57613aed614da9565b5b6001900381819060005260206000200160009055905550505050565b6000613b1583611301565b905081600760008573ffffffffffffffffffffffffffffffffffffffff1673ffffffffffffffffffffffffffffffffffffffff168152602001908152602001600020600083815260200190815260200160002081905550806008600084815260200190815260200160002081905550505050565b600080600090507a184f03e93ff9f4daa797ed6e38ed64bf6a1f0100000000000000008310613be7577a184f03e93ff9f4daa797ed6e38ed64bf6a1f0100000000000000008381613bdd57613bdc615827565b5b0492506040810190505b6d04ee2d6d415b85acef81000000008310613c24576d04ee2d6d415b85acef81000000008381613c1a57613c19615827565b5b0492506020810190505b662386f26fc100008310613c5357662386f26fc100008381613c4957613c48615827565b5b0492506010810190505b6305f5e1008310613c7c576305f5e1008381613c7257613c71615827565b5b0492506008810190505b6127108310613ca1576127108381613c9757613c96615827565b5b0492506004810190505b60648310613cc45760648381613cba57613cb9615827565b5b0492506002810190505b600a8310613cd3576001810190505b80915050919050565b60007f01ffc9a7000000000000000000000000000000000000000000000000000000007bffffffffffffffffffffffffffffffffffffffffffffffffffffffff1916827bffffffffffffffffffffffffffffffffffffffffffffffffffffffff1916149050919050565b508054613d5290614716565b6000825580601f10613d645750613d83565b601f016020900490600052602060002090810190613d829190613d86565b5b50565b5b80821115613d9f576000816000905550600101613d87565b5090565b6000604051905090565b600080fd5b600080fd5b60007fffffffff0000000000000000000000000000000000000000000000000000000082169050919050565b613dec81613db7565b8114613df757600080fd5b50565b600081359050613e0981613de3565b92915050565b600060208284031215613e2557613e24613dad565b5b6000613e3384828501613dfa565b91505092915050565b60008115159050919050565b613e5181613e3c565b82525050565b6000602082019050613e6c6000830184613e48565b92915050565b600081519050919050565b600082825260208201905092915050565b60005b83811015613eac578082015181840152602081019050613e91565b60008484015250505050565b6000601f19601f8301169050919050565b6000613ed482613e72565b613ede8185613e7d565b9350613eee818560208601613e8e565b613ef781613eb8565b840191505092915050565b60006020820190508181036000830152613f1c8184613ec9565b905092915050565b6000819050919050565b613f3781613f24565b8114613f4257600080fd5b50565b600081359050613f5481613f2e565b92915050565b600060208284031215613f7057613f6f613dad565b5b6000613f7e84828501613f45565b91505092915050565b600073ffffffffffffffffffffffffffffffffffffffff82169050919050565b6000613fb282613f87565b9050919050565b613fc281613fa7565b82525050565b6000602082019050613fdd6000830184613fb9565b92915050565b613fec81613fa7565b8114613ff757600080fd5b50565b60008135905061400981613fe3565b92915050565b6000806040838503121561402657614025613dad565b5b600061403485828601613ffa565b925050602061404585828601613f45565b9150509250929050565b61405881613f24565b82525050565b6000602082019050614073600083018461404f565b92915050565b600080fd5b600080fd5b7f4e487b7100000000000000000000000000000000000000000000000000000000600052604160045260246000fd5b6140bb82613eb8565b810181811067ffffffffffffffff821117156140da576140d9614083565b5b80604052505050565b60006140ed613da3565b90506140f982826140b2565b919050565b600067ffffffffffffffff82111561411957614118614083565b5b61412282613eb8565b9050602081019050919050565b82818337600083830152505050565b600061415161414c846140fe565b6140e3565b90508281526020810184848401111561416d5761416c61407e565b5b61417884828561412f565b509392505050565b600082601f83011261419557614194614079565b5b81356141a584826020860161413e565b91505092915050565b600080604083850312156141c5576141c4613dad565b5b60006141d385828601613ffa565b925050602083013567ffffffffffffffff8111156141f4576141f3613db2565b5b61420085828601614180565b9150509250929050565b60008060006060848603121561422357614222613dad565b5b600061423186828701613ffa565b935050602061424286828701613ffa565b925050604061425386828701613f45565b9150509250925092565b6000819050919050565b6142708161425d565b811461427b57600080fd5b50565b60008135905061428d81614267565b92915050565b6000602082840312156142a9576142a8613dad565b5b60006142b78482850161427e565b91505092915050565b6142c98161425d565b82525050565b60006020820190506142e460008301846142c0565b92915050565b6000806040838503121561430157614300613dad565b5b600061430f8582860161427e565b925050602061432085828601613ffa565b9150509250929050565b600081519050919050565b600082825260208201905092915050565b6000819050602082019050919050565b61435f81613fa7565b82525050565b60006143718383614356565b60208301905092915050565b6000602082019050919050565b60006143958261432a565b61439f8185614335565b93506143aa83614346565b8060005b838110156143db5781516143c28882614365565b97506143cd8361437d565b9250506001810190506143ae565b5085935050505092915050565b60006020820190508181036000830152614402818461438a565b905092915050565b6000602082840312156144205761441f613dad565b5b600061442e84828501613ffa565b91505092915050565b600081519050919050565b600082825260208201905092915050565b6000819050602082019050919050565b61446c81613f24565b82525050565b600061447e8383614463565b60208301905092915050565b6000602082019050919050565b60006144a282614437565b6144ac8185614442565b93506144b783614453565b8060005b838110156144e85781516144cf8882614472565b97506144da8361448a565b9250506001810190506144bb565b5085935050505092915050565b6000602082019050818103600083015261450f8184614497565b905092915050565b61452081613e3c565b811461452b57600080fd5b50565b60008135905061453d81614517565b92915050565b6000806040838503121561455a57614559613dad565b5b600061456885828601613ffa565b92505060206145798582860161452e565b9150509250929050565b600067ffffffffffffffff82111561459e5761459d614083565b5b6145a782613eb8565b9050602081019050919050565b60006145c76145c284614583565b6140e3565b9050828152602081018484840111156145e3576145e261407e565b5b6145ee84828561412f565b509392505050565b600082601f83011261460b5761460a614079565b5b813561461b8482602086016145b4565b91505092915050565b6000806000806080858703121561463e5761463d613dad565b5b600061464c87828801613ffa565b945050602061465d87828801613ffa565b935050604061466e87828801613f45565b925050606085013567ffffffffffffffff81111561468f5761468e613db2565b5b61469b878288016145f6565b91505092959194509250565b600080604083850312156146be576146bd613dad565b5b60006146cc85828601613ffa565b92505060206146dd85828601613ffa565b9150509250929050565b7f4e487b7100000000000000000000000000000000000000000000000000000000600052602260045260246000fd5b6000600282049050600182168061472e57607f821691505b602082108103614741576147406146e7565b5b50919050565b7f4552433732313a20617070726f76616c20746f2063757272656e74206f776e6560008201527f7200000000000000000000000000000000000000000000000000000000000000602082015250565b60006147a3602183613e7d565b91506147ae82614747565b604082019050919050565b600060208201905081810360008301526147d281614796565b9050919050565b7f4552433732313a20617070726f76652063616c6c6572206973206e6f7420746f60008201527f6b656e206f776e6572206f7220617070726f76656420666f7220616c6c000000602082015250565b6000614835603d83613e7d565b9150614840826147d9565b604082019050919050565b6000602082019050818103600083015261486481614828565b9050919050565b60008190508160005260206000209050919050565b60006020601f8301049050919050565b600082821b905092915050565b6000600883026148cd7fffffffffffffffffffffffffffffffffffffffffffffffffffffffffffffffff82614890565b6148d78683614890565b95508019841693508086168417925050509392505050565b6000819050919050565b600061491461490f61490a84613f24565b6148ef565b613f24565b9050919050565b6000819050919050565b61492e836148f9565b61494261493a8261491b565b84845461489d565b825550505050565b600090565b61495761494a565b614962818484614925565b505050565b5b818110156149865761497b60008261494f565b600181019050614968565b5050565b601f8211156149cb5761499c8161486b565b6149a584614880565b810160208510156149b4578190505b6149c86149c085614880565b830182614967565b50505b505050565b600082821c905092915050565b60006149ee600019846008026149d0565b1980831691505092915050565b6000614a0783836149dd565b9150826002028217905092915050565b614a2082613e72565b67ffffffffffffffff811115614a3957614a38614083565b5b614a438254614716565b614a4e82828561498a565b600060209050601f831160018114614a815760008415614a6f578287015190505b614a7985826149fb565b865550614ae1565b601f198416614a8f8661486b565b60005b82811015614ab757848901518255600182019150602085019450602081019050614a92565b86831015614ad45784890151614ad0601f8916826149dd565b8355505b6001600288020188555050505b505050505050565b6000604082019050614afe6000830185613fb9565b8181036020830152614b108184613ec9565b90509392505050565b7f4552433732313a2063616c6c6572206973206e6f7420746f6b656e206f776e6560008201527f72206f7220617070726f76656400000000000000000000000000000000000000602082015250565b6000614b75602d83613e7d565b9150614b8082614b19565b604082019050919050565b60006020820190508181036000830152614ba481614b68565b9050919050565b7f455243373231456e756d657261626c653a206f776e657220696e646578206f7560008201527f74206f6620626f756e6473000000000000000000000000000000000000000000602082015250565b6000614c07602b83613e7d565b9150614c1282614bab565b604082019050919050565b60006020820190508181036000830152614c3681614bfa565b9050919050565b7f416363657373436f6e74726f6c3a2063616e206f6e6c792072656e6f756e636560008201527f20726f6c657320666f722073656c660000000000000000000000000000000000602082015250565b6000614c99602f83613e7d565b9150614ca482614c3d565b604082019050919050565b60006020820190508181036000830152614cc881614c8c565b9050919050565b7f4e487b7100000000000000000000000000000000000000000000000000000000600052601160045260246000fd5b6000614d0982613f24565b9150614d1483613f24565b9250828203905081811115614d2c57614d2b614ccf565b5b92915050565b7f4e487b7100000000000000000000000000000000000000000000000000000000600052603260045260246000fd5b6000614d6c82613f24565b91507fffffffffffffffffffffffffffffffffffffffffffffffffffffffffffffffff8203614d9e57614d9d614ccf565b5b600182019050919050565b7f4e487b7100000000000000000000000000000000000000000000000000000000600052603160045260246000fd5b7f455243373231456e756d657261626c653a20676c6f62616c20696e646578206f60008201527f7574206f6620626f756e64730000000000000000000000000000000000000000602082015250565b6000614e34602c83613e7d565b9150614e3f82614dd8565b604082019050919050565b60006020820190508181036000830152614e6381614e27565b9050919050565b7f4552433732313a20696e76616c696420746f6b656e2049440000000000000000600082015250565b6000614ea0601883613e7d565b9150614eab82614e6a565b602082019050919050565b60006020820190508181036000830152614ecf81614e93565b9050919050565b7f4552433732313a2061646472657373207a65726f206973206e6f74206120766160008201527f6c6964206f776e65720000000000000000000000000000000000000000000000602082015250565b6000614f32602983613e7d565b9150614f3d82614ed6565b604082019050919050565b60006020820190508181036000830152614f6181614f25565b9050919050565b7f54686973206365727469666963617465206973206e6f7420697373756564206260008201527f792063757272656e74206973737565722e000000000000000000000000000000602082015250565b6000614fc4603183613e7d565b9150614fcf82614f68565b604082019050919050565b60006020820190508181036000830152614ff381614fb7565b9050919050565b600060608201905061500f6000830186613fb9565b61501c6020830185613fb9565b615029604083018461404f565b949350505050565b7f4552433732313a207472616e736665722066726f6d20696e636f72726563742060008201527f6f776e6572000000000000000000000000000000000000000000000000000000602082015250565b600061508d602583613e7d565b915061509882615031565b604082019050919050565b600060208201905081810360008301526150bc81615080565b9050919050565b7f4552433732313a207472616e7366657220746f20746865207a65726f2061646460008201527f7265737300000000000000000000000000000000000000000000000000000000602082015250565b600061511f602483613e7d565b915061512a826150c3565b604082019050919050565b6000602082019050818103600083015261514e81615112565b9050919050565b7f4552433732313a20617070726f766520746f2063616c6c657200000000000000600082015250565b600061518b601983613e7d565b915061519682615155565b602082019050919050565b600060208201905081810360008301526151ba8161517e565b9050919050565b7f4552433732313a207472616e7366657220746f206e6f6e20455243373231526560008201527f63656976657220696d706c656d656e7465720000000000000000000000000000602082015250565b600061521d603283613e7d565b9150615228826151c1565b604082019050919050565b6000602082019050818103600083015261524c81615210565b9050919050565b7f45524337323155524953746f726167653a2055524920736574206f66206e6f6e60008201527f6578697374656e7420746f6b656e000000000000000000000000000000000000602082015250565b60006152af602e83613e7d565b91506152ba82615253565b604082019050919050565b600060208201905081810360008301526152de816152a2565b9050919050565b600081905092915050565b60006152fb82613e72565b61530581856152e5565b9350615315818560208601613e8e565b80840191505092915050565b600061532d82856152f0565b915061533982846152f0565b91508190509392505050565b7f416363657373436f6e74726f6c3a206163636f756e7420000000000000000000600082015250565b600061537b6017836152e5565b915061538682615345565b601782019050919050565b7f206973206d697373696e6720726f6c6520000000000000000000000000000000600082015250565b60006153c76011836152e5565b91506153d282615391565b601182019050919050565b60006153e88261536e565b91506153f482856152f0565b91506153ff826153ba565b915061540b82846152f0565b91508190509392505050565b7f536f756c626f756e6420746f6b656e732063616e6e6f74206265207472616e7360008201527f6665727265642c20546f6b656e207472616e7366657220697320424c4f434b4560208201527f4400000000000000000000000000000000000000000000000000000000000000604082015250565b6000615499604183613e7d565b91506154a482615417565b606082019050919050565b600060208201905081810360008301526154c88161548c565b9050919050565b600081519050919050565b600082825260208201905092915050565b60006154f6826154cf565b61550081856154da565b9350615510818560208601613e8e565b61551981613eb8565b840191505092915050565b60006080820190506155396000830187613fb9565b6155466020830186613fb9565b615553604083018561404f565b818103606083015261556581846154eb565b905095945050505050565b60008151905061557f81613de3565b92915050565b60006020828403121561559b5761559a613dad565b5b60006155a984828501615570565b91505092915050565b60006155bd82613f24565b91506155c883613f24565b92508282026155d681613f24565b915082820484148315176155ed576155ec614ccf565b5b5092915050565b60006155ff82613f24565b915061560a83613f24565b925082820190508082111561562257615621614ccf565b5b92915050565b600061563382613f24565b91506000820361564657615645614ccf565b5b600182039050919050565b7f537472696e67733a20686578206c656e67746820696e73756666696369656e74600082015250565b6000615687602083613e7d565b915061569282615651565b602082019050919050565b600060208201905081810360008301526156b68161567a565b9050919050565b7f455243373231456e756d657261626c653a20636f6e736563757469766520747260008201527f616e7366657273206e6f7420737570706f727465640000000000000000000000602082015250565b6000615719603583613e7d565b9150615724826156bd565b604082019050919050565b600060208201905081810360008301526157488161570c565b9050919050565b7f4552433732313a206d696e7420746f20746865207a65726f2061646472657373600082015250565b6000615785602083613e7d565b91506157908261574f565b602082019050919050565b600060208201905081810360008301526157b481615778565b9050919050565b7f4552433732313a20746f6b656e20616c7265616479206d696e74656400000000600082015250565b60006157f1601c83613e7d565b91506157fc826157bb565b602082019050919050565b60006020820190508181036000830152615820816157e4565b9050919050565b7f4e487b7100000000000000000000000000000000000000000000000000000000600052601260045260246000fdfea2646970667358221220aeeb709d68471dbd10b2778bac0bae544b42fcf19e52ae96b1538c8eaf241fd264736f6c63430008120033",
  "linkReferences": {},
  "deployedLinkReferences": {}
}