{
  "_format": "hh-sol-artifact-1",
  "contractName": "SiddhiCred",
  "sourceName": "contracts/SiddhiCred.sol",
  "abi": [
    {
      "inputs": [],
      "stateMutability": "nonpayable",
      "type": "constructor"
    },
    {
      "inputs": [
        {
          "internalType": "address",
          "name": "issuerWalletAddress",
          "type": "address"
        }
      ],
      "name": "IssuerNotFound",
      "type": "error"
    },
    {
      "inputs": [
        {
          "internalType": "address",
          "name": "issuerWalletAddress",
          "type": "address"
        }
      ],
      "name": "IssuerRoleAlreadyAssigned",
      "type": "error"
    },
    {
      "inputs": [
        {
          "internalType": "uint256",
          "name": "tokenId",
          "type": "uint256"
        }
      ],
      "name": "TokenNotFound",
      "type": "error"
    },
    {
      "anonymous": false,
      "inputs": [
        {
          "indexed": true,
          "internalType": "address",
          "name": "owner",
          "type": "address"
        },
        {
          "indexed": true,
          "internalType": "address",
          "name": "approved",
          "type": "address"
        },
        {
          "indexed": true,
          "internalType": "uint256",
          "name": "tokenId",
          "type": "uint256"
        }
      ],
      "name": "Approval",
      "type": "event"
    },
    {
      "anonymous": false,
      "inputs": [
        {
          "indexed": true,
          "internalType": "address",
          "name": "owner",
          "type": "address"
        },
        {
          "indexed": true,
          "internalType": "address",
          "name": "operator",
          "type": "address"
        },
        {
          "indexed": false,
          "internalType": "bool",
          "name": "approved",
          "type": "bool"
        }
      ],
      "name": "ApprovalForAll",
      "type": "event"
    },
    {
      "anonymous": false,
      "inputs": [
        {
          "indexed": false,
          "internalType": "uint256",
          "name": "_fromTokenId",
          "type": "uint256"
        },
        {
          "indexed": false,
          "internalType": "uint256",
          "name": "_toTokenId",
          "type": "uint256"
        }
      ],
      "name": "BatchMetadataUpdate",
      "type": "event"
    },
    {
      "anonymous": false,
      "inputs": [
        {
          "indexed": false,
          "internalType": "address",
          "name": "issuerWalletAddress",
          "type": "address"
        },
        {
          "indexed": false,
          "internalType": "address",
          "name": "recipient",
          "type": "address"
        },
        {
          "indexed": false,
          "internalType": "uint256",
          "name": "tokenId",
          "type": "uint256"
        }
      ],
      "name": "CertificateIssued",
      "type": "event"
    },
    {
      "anonymous": false,
      "inputs": [
        {
          "indexed": false,
          "internalType": "address",
          "name": "issuerWalletAddress",
          "type": "address"
        },
        {
          "indexed": false,
          "internalType": "address",
          "name": "owner",
          "type": "address"
        },
        {
          "indexed": false,
          "internalType": "uint256",
          "name": "tokenId",
          "type": "uint256"
        }
      ],
      "name": "CertificateRevoked",
      "type": "event"
    },
    {
      "anonymous": false,
      "inputs": [
        {
          "indexed": false,
          "internalType": "address",
          "name": "issuerWalletAddress",
          "type": "address"
        },
        {
          "indexed": false,
          "internalType": "string",
          "name": "issuerContentHash",
          "type": "string"
        }
      ],
      "name": "IssuerCreated",
      "type": "event"
    },
    {
      "anonymous": false,
      "inputs": [
        {
          "indexed": false,
          "internalType": "address",
          "name": "issuerWalletAddress",
          "type": "address"
        },
        {
          "indexed": false,
          "internalType": "string",
          "name": "issuerContentHash",
          "type": "string"
        }
      ],
      "name": "IssuerRemoved",
      "type": "event"
    },
    {
      "anonymous": false,
      "inputs": [
        {
          "indexed": false,
          "internalType": "address",
          "name": "issuerWalletAddress",
          "type": "address"
        },
        {
          "indexed": false,
          "internalType": "string",
          "name": "issuerContentHash",
          "type": "string"
        }
      ],
      "name": "IssuerUpdated",
      "type": "event"
    },
    {
      "anonymous": false,
      "inputs": [
        {
          "indexed": false,
          "internalType": "uint256",
          "name": "_tokenId",
          "type": "uint256"
        }
      ],
      "name": "MetadataUpdate",
      "type": "event"
    },
    {
      "anonymous": false,
      "inputs": [
        {
          "indexed": true,
          "internalType": "bytes32",
          "name": "role",
          "type": "bytes32"
        },
        {
          "indexed": true,
          "internalType": "bytes32",
          "name": "previousAdminRole",
          "type": "bytes32"
        },
        {
          "indexed": true,
          "internalType": "bytes32",
          "name": "newAdminRole",
          "type": "bytes32"
        }
      ],
      "name": "RoleAdminChanged",
      "type": "event"
    },
    {
      "anonymous": false,
      "inputs": [
        {
          "indexed": true,
          "internalType": "bytes32",
          "name": "role",
          "type": "bytes32"
        },
        {
          "indexed": true,
          "internalType": "address",
          "name": "account",
          "type": "address"
        },
        {
          "indexed": true,
          "internalType": "address",
          "name": "sender",
          "type": "address"
        }
      ],
      "name": "RoleGranted",
      "type": "event"
    },
    {
      "anonymous": false,
      "inputs": [
        {
          "indexed": true,
          "internalType": "bytes32",
          "name": "role",
          "type": "bytes32"
        },
        {
          "indexed": true,
          "internalType": "address",
          "name": "account",
          "type": "address"
        },
        {
          "indexed": true,
          "internalType": "address",
          "name": "sender",
          "type": "address"
        }
      ],
      "name": "RoleRevoked",
      "type": "event"
    },
    {
      "anonymous": false,
      "inputs": [
        {
          "indexed": true,
          "internalType": "address",
          "name": "from",
          "type": "address"
        },
        {
          "indexed": true,
          "internalType": "address",
          "name": "to",
          "type": "address"
        },
        {
          "indexed": true,
          "internalType": "uint256",
          "name": "tokenId",
          "type": "uint256"
        }
      ],
      "name": "Transfer",
      "type": "event"
    },
    {
      "inputs": [],
      "name": "DEFAULT_ADMIN_ROLE",
      "outputs": [
        {
          "internalType": "bytes32",
          "name": "",
          "type": "bytes32"
        }
      ],
      "stateMutability": "view",
      "type": "function"
    },
    {
      "inputs": [],
      "name": "ISSUER_ROLE",
      "outputs": [
        {
          "internalType": "bytes32",
          "name": "",
          "type": "bytes32"
        }
      ],
      "stateMutability": "view",
      "type": "function"
    },
    {
      "inputs": [],
      "name": "admin",
      "outputs": [
        {
          "internalType": "address",
          "name": "",
          "type": "address"
        }
      ],
      "stateMutability": "view",
      "type": "function"
    },
    {
      "inputs": [
        {
          "internalType": "address",
          "name": "to",
          "type": "address"
        },
        {
          "internalType": "uint256",
          "name": "tokenId",
          "type": "uint256"
        }
      ],
      "name": "approve",
      "outputs": [],
      "stateMutability": "nonpayable",
      "type": "function"
    },
    {
      "inputs": [
        {
          "internalType": "address",
          "name": "owner",
          "type": "address"
        }
      ],
      "name": "balanceOf",
      "outputs": [
        {
          "internalType": "uint256",
          "name": "",
          "type": "uint256"
        }
      ],
      "stateMutability": "view",
      "type": "function"
    },
    {
      "inputs": [
        {
          "internalType": "uint256",
          "name": "tokenId",
          "type": "uint256"
        }
      ],
      "name": "burnCertificate",
      "outputs": [],
      "stateMutability": "nonpayable",
      "type": "function"
    },
    {
      "inputs": [
        {
          "internalType": "address",
          "name": "issuerWalletAddress",
          "type": "address"
        },
        {
          "internalType": "string",
          "name": "contentHash",
          "type": "string"
        }
      ],
      "name": "createIssuer",
      "outputs": [],
      "stateMutability": "nonpayable",
      "type": "function"
    },
    {
      "inputs": [
        {
          "internalType": "uint256",
          "name": "tokenId",
          "type": "uint256"
        }
      ],
      "name": "getApproved",
      "outputs": [
        {
          "internalType": "address",
          "name": "",
          "type": "address"
        }
      ],
      "stateMutability": "view",
      "type": "function"
    },
    {
      "inputs": [
        {
          "internalType": "address",
          "name": "issuerWalletAddress",
          "type": "address"
        }
      ],
      "name": "getIssuerInfo",
      "outputs": [
        {
          "internalType": "string",
          "name": "contentHash",
          "type": "string"
        }
      ],
      "stateMutability": "view",
      "type": "function"
    },
    {
      "inputs": [
        {
          "internalType": "bytes32",
          "name": "role",
          "type": "bytes32"
        }
      ],
      "name": "getRoleAdmin",
      "outputs": [
        {
          "internalType": "bytes32",
          "name": "",
          "type": "bytes32"
        }
      ],
      "stateMutability": "view",
      "type": "function"
    },
    {
      "inputs": [
        {
          "internalType": "address",
          "name": "walletAddress",
          "type": "address"
        }
      ],
      "name": "getWalletAddressRole",
      "outputs": [
        {
          "internalType": "string",
          "name": "role",
          "type": "string"
        }
      ],
      "stateMutability": "view",
      "type": "function"
    },
    {
      "inputs": [
        {
          "internalType": "bytes32",
          "name": "role",
          "type": "bytes32"
        },
        {
          "internalType": "address",
          "name": "account",
          "type": "address"
        }
      ],
      "name": "grantRole",
      "outputs": [],
      "stateMutability": "nonpayable",
      "type": "function"
    },
    {
      "inputs": [
        {
          "internalType": "bytes32",
          "name": "role",
          "type": "bytes32"
        },
        {
          "internalType": "address",
          "name": "account",
          "type": "address"
        }
      ],
      "name": "hasRole",
      "outputs": [
        {
          "internalType": "bool",
          "name": "",
          "type": "bool"
        }
      ],
      "stateMutability": "view",
      "type": "function"
    },
    {
      "inputs": [
        {
          "internalType": "address",
          "name": "owner",
          "type": "address"
        },
        {
          "internalType": "address",
          "name": "operator",
          "type": "address"
        }
      ],
      "name": "isApprovedForAll",
      "outputs": [
        {
          "internalType": "bool",
          "name": "",
          "type": "bool"
        }
      ],
      "stateMutability": "view",
      "type": "function"
    },
    {
      "inputs": [
        {
          "internalType": "address",
          "name": "to",
          "type": "address"
        },
        {
          "internalType": "string",
          "name": "contentHash",
          "type": "string"
        }
      ],
      "name": "issueCertificate",
      "outputs": [
        {
          "internalType": "uint256",
          "name": "NFTTokenId",
          "type": "uint256"
        }
      ],
      "stateMutability": "nonpayable",
      "type": "function"
    },
    {
      "inputs": [],
      "name": "name",
      "outputs": [
        {
          "internalType": "string",
          "name": "",
          "type": "string"
        }
      ],
      "stateMutability": "view",
      "type": "function"
    },
    {
      "inputs": [
        {
          "internalType": "uint256",
          "name": "tokenId",
          "type": "uint256"
        }
      ],
      "name": "ownerOf",
      "outputs": [
        {
          "internalType": "address",
          "name": "",
          "type": "address"
        }
      ],
      "stateMutability": "view",
      "type": "function"
    },
    {
      "inputs": [
        {
          "internalType": "address",
          "name": "issuerWalletAddress",
          "type": "address"
        }
      ],
      "name": "removeIssuer",
      "outputs": [],
      "stateMutability": "nonpayable",
      "type": "function"
    },
    {
      "inputs": [
        {
          "internalType": "bytes32",
          "name": "role",
          "type": "bytes32"
        },
        {
          "internalType": "address",
          "name": "account",
          "type": "address"
        }
      ],
      "name": "renounceRole",
      "outputs": [],
      "stateMutability": "nonpayable",
      "type": "function"
    },
    {
      "inputs": [
        {
          "internalType": "bytes32",
          "name": "role",
          "type": "bytes32"
        },
        {
          "internalType": "address",
          "name": "account",
          "type": "address"
        }
      ],
      "name": "revokeRole",
      "outputs": [],
      "stateMutability": "nonpayable",
      "type": "function"
    },
    {
      "inputs": [
        {
          "internalType": "address",
          "name": "from",
          "type": "address"
        },
        {
          "internalType": "address",
          "name": "to",
          "type": "address"
        },
        {
          "internalType": "uint256",
          "name": "tokenId",
          "type": "uint256"
        }
      ],
      "name": "safeTransferFrom",
      "outputs": [],
      "stateMutability": "nonpayable",
      "type": "function"
    },
    {
      "inputs": [
        {
          "internalType": "address",
          "name": "from",
          "type": "address"
        },
        {
          "internalType": "address",
          "name": "to",
          "type": "address"
        },
        {
          "internalType": "uint256",
          "name": "tokenId",
          "type": "uint256"
        },
        {
          "internalType": "bytes",
          "name": "data",
          "type": "bytes"
        }
      ],
      "name": "safeTransferFrom",
      "outputs": [],
      "stateMutability": "nonpayable",
      "type": "function"
    },
    {
      "inputs": [
        {
          "internalType": "address",
          "name": "operator",
          "type": "address"
        },
        {
          "internalType": "bool",
          "name": "approved",
          "type": "bool"
        }
      ],
      "name": "setApprovalForAll",
      "outputs": [],
      "stateMutability": "nonpayable",
      "type": "function"
    },
    {
      "inputs": [
        {
          "internalType": "bytes4",
          "name": "interfaceId",
          "type": "bytes4"
        }
      ],
      "name": "supportsInterface",
      "outputs": [
        {
          "internalType": "bool",
          "name": "",
          "type": "bool"
        }
      ],
      "stateMutability": "view",
      "type": "function"
    },
    {
      "inputs": [],
      "name": "symbol",
      "outputs": [
        {
          "internalType": "string",
          "name": "",
          "type": "string"
        }
      ],
      "stateMutability": "view",
      "type": "function"
    },
    {
      "inputs": [
        {
          "internalType": "uint256",
          "name": "index",
          "type": "uint256"
        }
      ],
      "name": "tokenByIndex",
      "outputs": [
        {
          "internalType": "uint256",
          "name": "",
          "type": "uint256"
        }
      ],
      "stateMutability": "view",
      "type": "function"
    },
    {
      "inputs": [
        {
          "internalType": "address",
          "name": "owner",
          "type": "address"
        },
        {
          "internalType": "uint256",
          "name": "index",
          "type": "uint256"
        }
      ],
      "name": "tokenOfOwnerByIndex",
      "outputs": [
        {
          "internalType": "uint256",
          "name": "",
          "type": "uint256"
        }
      ],
      "stateMutability": "view",
      "type": "function"
    },
    {
      "inputs": [
        {
          "internalType": "uint256",
          "name": "tokenId",
          "type": "uint256"
        }
      ],
      "name": "tokenURI",
      "outputs": [
        {
          "internalType": "string",
          "name": "",
          "type": "string"
        }
      ],
      "stateMutability": "view",
      "type": "function"
    },
    {
      "inputs": [],
      "name": "tokensOfOwner",
      "outputs": [
        {
          "internalType": "uint256[]",
          "name": "tokenId",
          "type": "uint256[]"
        }
      ],
      "stateMutability": "view",
      "type": "function"
    },
    {
      "inputs": [],
      "name": "totalSupply",
      "outputs": [
        {
          "internalType": "uint256",
          "name": "",
          "type": "uint256"
        }
      ],
      "stateMutability": "view",
      "type": "function"
    },
    {
      "inputs": [
        {
          "internalType": "address",
          "name": "from",
          "type": "address"
        },
        {
          "internalType": "address",
          "name": "to",
          "type": "address"
        },
        {
          "internalType": "uint256",
          "name": "tokenId",
          "type": "uint256"
        }
      ],
      "name": "transferFrom",
      "outputs": [],
      "stateMutability": "nonpayable",
      "type": "function"
    },
    {
      "inputs": [
        {
          "internalType": "address",
          "name": "issuerWalletAddress",
          "type": "address"
        },
        {
          "internalType": "string",
          "name": "contentHash",
          "type": "string"
        }
      ],
      "name": "updateIssuer",
      "outputs": [],
      "stateMutability": "nonpayable",
      "type": "function"
    }
  ],
  "bytecode": "0x60806040523480156200001157600080fd5b506040518060400160405280601f81526020017f5369646468692043726564656e7469616c20536f756c626f756e64204e4654008152506040518060400160405280600781526020017f534353424e46540000000000000000000000000000000000000000000000000081525081600090816200008f9190620004df565b508060019081620000a19190620004df565b505050620000b96000801b336200010060201b60201c565b33600c60006101000a81548173ffffffffffffffffffffffffffffffffffffffff021916908373ffffffffffffffffffffffffffffffffffffffff160217905550620005c6565b620001128282620001f260201b60201c565b620001ee576001600b600084815260200190815260200160002060000160008373ffffffffffffffffffffffffffffffffffffffff1673ffffffffffffffffffffffffffffffffffffffff16815260200190815260200160002060006101000a81548160ff021916908315150217905550620001936200025d60201b60201c565b73ffffffffffffffffffffffffffffffffffffffff168173ffffffffffffffffffffffffffffffffffffffff16837f2f8788117e7eff1d82e926ec794901d17c78024a50270940304540a733656f0d60405160405180910390a45b5050565b6000600b600084815260200190815260200160002060000160008373ffffffffffffffffffffffffffffffffffffffff1673ffffffffffffffffffffffffffffffffffffffff16815260200190815260200160002060009054906101000a900460ff16905092915050565b600033905090565b600081519050919050565b7f4e487b7100000000000000000000000000000000000000000000000000000000600052604160045260246000fd5b7f4e487b7100000000000000000000000000000000000000000000000000000000600052602260045260246000fd5b60006002820490506001821680620002e757607f821691505b602082108103620002fd57620002fc6200029f565b5b50919050565b60008190508160005260206000209050919050565b60006020601f8301049050919050565b600082821b905092915050565b600060088302620003677fffffffffffffffffffffffffffffffffffffffffffffffffffffffffffffffff8262000328565b62000373868362000328565b95508019841693508086168417925050509392505050565b6000819050919050565b6000819050919050565b6000620003c0620003ba620003b4846200038b565b62000395565b6200038b565b9050919050565b6000819050919050565b620003dc836200039f565b620003f4620003eb82620003c7565b84845462000335565b825550505050565b600090565b6200040b620003fc565b62000418818484620003d1565b505050565b5b8181101562000440576200043460008262000401565b6001810190506200041e565b5050565b601f8211156200048f57620004598162000303565b620004648462000318565b8101602085101562000474578190505b6200048c620004838562000318565b8301826200041d565b50505b505050565b600082821c905092915050565b6000620004b46000198460080262000494565b1980831691505092915050565b6000620004cf8383620004a1565b9150826002028217905092915050565b620004ea8262000265565b67ffffffffffffffff81111562000506576200050562000270565b5b620005128254620002ce565b6200051f82828562000444565b600060209050601f83116001811462000557576000841562000542578287015190505b6200054e8582620004c1565b865550620005be565b601f198416620005678662000303565b60005b8281101562000591578489015182556001820191506020850194506020810190506200056a565b86831015620005b15784890151620005ad601f891682620004a1565b8355505b6001600288020188555050505b505050505050565b614efc80620005d66000396000f3fe608060405234801561001057600080fd5b50600436106101f05760003560e01c806370a082311161010f578063b88d4fde116100a2578063e985e9c511610071578063e985e9c5146105ed578063f6a03f591461061d578063f851a44014610639578063fa36512f14610657576101f0565b8063b88d4fde14610555578063bb721aab14610571578063c87b56dd146105a1578063d547741f146105d1576101f0565b806395d89b41116100de57806395d89b41146104df57806395ea0f12146104fd578063a217fddf1461051b578063a22cb46514610539576101f0565b806370a082311461044557806382aefa241461047557806391d148541461049357806393b16b45146104c3576101f0565b80632f2ff15d1161018757806347bc70931161015657806347bc7093146103995780634f6ccce7146103b55780635e9aab70146103e55780636352211e14610415576101f0565b80632f2ff15d146103155780632f745c591461033157806336568abe1461036157806342842e0e1461037d576101f0565b806318160ddd116101c357806318160ddd1461028f5780631a969944146102ad57806323b872dd146102c9578063248a9ca3146102e5576101f0565b806301ffc9a7146101f557806306fdde0314610225578063081812fc14610243578063095ea7b314610273575b600080fd5b61020f600480360381019061020a91906135f1565b610687565b60405161021c9190613639565b60405180910390f35b61022d610699565b60405161023a91906136e4565b60405180910390f35b61025d6004803603810190610258919061373c565b61072b565b60405161026a91906137aa565b60405180910390f35b61028d600480360381019061028891906137f1565b610771565b005b610297610888565b6040516102a49190613840565b60405180910390f35b6102c760048036038101906102c29190613990565b610895565b005b6102e360048036038101906102de91906139ec565b6109c3565b005b6102ff60048036038101906102fa9190613a75565b610a23565b60405161030c9190613ab1565b60405180910390f35b61032f600480360381019061032a9190613acc565b610a43565b005b61034b600480360381019061034691906137f1565b610a64565b6040516103589190613840565b60405180910390f35b61037b60048036038101906103769190613acc565b610b09565b005b610397600480360381019061039291906139ec565b610b8c565b005b6103b360048036038101906103ae9190613b0c565b610bac565b005b6103cf60048036038101906103ca919061373c565b610da3565b6040516103dc9190613840565b60405180910390f35b6103ff60048036038101906103fa9190613b0c565b610e14565b60405161040c91906136e4565b60405180910390f35b61042f600480360381019061042a919061373c565b610f50565b60405161043c91906137aa565b60405180910390f35b61045f600480360381019061045a9190613b0c565b610fd6565b60405161046c9190613840565b60405180910390f35b61047d61108d565b60405161048a9190613ab1565b60405180910390f35b6104ad60048036038101906104a89190613acc565b6110b1565b6040516104ba9190613639565b60405180910390f35b6104dd60048036038101906104d8919061373c565b61111c565b005b6104e761120d565b6040516104f491906136e4565b60405180910390f35b61050561129f565b6040516105129190613bf7565b60405180910390f35b61052361134b565b6040516105309190613ab1565b60405180910390f35b610553600480360381019061054e9190613c45565b611352565b005b61056f600480360381019061056a9190613d26565b611368565b005b61058b60048036038101906105869190613990565b6113ca565b6040516105989190613840565b60405180910390f35b6105bb60048036038101906105b6919061373c565b611468565b6040516105c891906136e4565b60405180910390f35b6105eb60048036038101906105e69190613acc565b61147a565b005b61060760048036038101906106029190613da9565b61149b565b6040516106149190613639565b60405180910390f35b61063760048036038101906106329190613990565b61152f565b005b610641611632565b60405161064e91906137aa565b60405180910390f35b610671600480360381019061066c9190613b0c565b611658565b60405161067e91906136e4565b60405180910390f35b600061069282611753565b9050919050565b6060600080546106a890613e18565b80601f01602080910402602001604051908101604052809291908181526020018280546106d490613e18565b80156107215780601f106106f657610100808354040283529160200191610721565b820191906000526020600020905b81548152906001019060200180831161070457829003601f168201915b5050505050905090565b6000610736826117cd565b6004600083815260200190815260200160002060009054906101000a900473ffffffffffffffffffffffffffffffffffffffff169050919050565b600061077c82610f50565b90508073ffffffffffffffffffffffffffffffffffffffff168373ffffffffffffffffffffffffffffffffffffffff16036107ec576040517f08c379a00000000000000000000000000000000000000000000000000000000081526004016107e390613ebb565b60405180910390fd5b8073ffffffffffffffffffffffffffffffffffffffff1661080b611818565b73ffffffffffffffffffffffffffffffffffffffff16148061083a575061083981610834611818565b61149b565b5b610879576040517f08c379a000000000000000000000000000000000000000000000000000000000815260040161087090613f4d565b60405180910390fd5b6108838383611820565b505050565b6000600980549050905090565b6000801b6108a2816118d9565b6108cc7f76afa8a5929fef1b4c03674b2152ae5aaad1d974b8a4021c59477bcc846ccc1e846110b1565b1561090e57826040517fb1d3f1bc00000000000000000000000000000000000000000000000000000000815260040161090591906137aa565b60405180910390fd5b81600d60008573ffffffffffffffffffffffffffffffffffffffff1673ffffffffffffffffffffffffffffffffffffffff168152602001908152602001600020908161095a9190614119565b506109857f76afa8a5929fef1b4c03674b2152ae5aaad1d974b8a4021c59477bcc846ccc1e846118ed565b7f6bb73a24fe81dad9bcb96ff68bb44f5f3725eac06578ae43b30e1636a0b72f1183836040516109b69291906141eb565b60405180910390a1505050565b6109d46109ce611818565b826119ce565b610a13576040517f08c379a0000000000000000000000000000000000000000000000000000000008152600401610a0a9061428d565b60405180910390fd5b610a1e838383611a63565b505050565b6000600b6000838152602001908152602001600020600101549050919050565b610a4c82610a23565b610a55816118d9565b610a5f83836118ed565b505050565b6000610a6f83610fd6565b8210610ab0576040517f08c379a0000000000000000000000000000000000000000000000000000000008152600401610aa79061431f565b60405180910390fd5b600760008473ffffffffffffffffffffffffffffffffffffffff1673ffffffffffffffffffffffffffffffffffffffff168152602001908152602001600020600083815260200190815260200160002054905092915050565b610b11611818565b73ffffffffffffffffffffffffffffffffffffffff168173ffffffffffffffffffffffffffffffffffffffff1614610b7e576040517f08c379a0000000000000000000000000000000000000000000000000000000008152600401610b75906143b1565b60405180910390fd5b610b888282611d5c565b5050565b610ba783838360405180602001604052806000815250611368565b505050565b6000801b610bb9816118d9565b610be37f76afa8a5929fef1b4c03674b2152ae5aaad1d974b8a4021c59477bcc846ccc1e836110b1565b610c2457816040517f6ec3bc85000000000000000000000000000000000000000000000000000000008152600401610c1b91906137aa565b60405180910390fd5b6000600d60008473ffffffffffffffffffffffffffffffffffffffff1673ffffffffffffffffffffffffffffffffffffffff1681526020019081526020016000208054610c7090613e18565b80601f0160208091040260200160405190810160405280929190818152602001828054610c9c90613e18565b8015610ce95780601f10610cbe57610100808354040283529160200191610ce9565b820191906000526020600020905b815481529060010190602001808311610ccc57829003601f168201915b50505050509050610d1a7f76afa8a5929fef1b4c03674b2152ae5aaad1d974b8a4021c59477bcc846ccc1e84611d5c565b7f2d87004a9f2eb39dc280c5cec7e8a334a43871940fb3e3ff72839f70cebff6668382604051610d4b9291906141eb565b60405180910390a1600d60008473ffffffffffffffffffffffffffffffffffffffff1673ffffffffffffffffffffffffffffffffffffffff1681526020019081526020016000206000610d9e9190613528565b505050565b6000610dad610888565b8210610dee576040517f08c379a0000000000000000000000000000000000000000000000000000000008152600401610de590614443565b60405180910390fd5b60098281548110610e0257610e01614463565b5b90600052602060002001549050919050565b6060610e407f76afa8a5929fef1b4c03674b2152ae5aaad1d974b8a4021c59477bcc846ccc1e836110b1565b610e8157816040517f6ec3bc85000000000000000000000000000000000000000000000000000000008152600401610e7891906137aa565b60405180910390fd5b600d60008373ffffffffffffffffffffffffffffffffffffffff1673ffffffffffffffffffffffffffffffffffffffff1681526020019081526020016000208054610ecb90613e18565b80601f0160208091040260200160405190810160405280929190818152602001828054610ef790613e18565b8015610f445780601f10610f1957610100808354040283529160200191610f44565b820191906000526020600020905b815481529060010190602001808311610f2757829003601f168201915b50505050509050919050565b600080610f5c83611e3e565b9050600073ffffffffffffffffffffffffffffffffffffffff168173ffffffffffffffffffffffffffffffffffffffff1603610fcd576040517f08c379a0000000000000000000000000000000000000000000000000000000008152600401610fc4906144de565b60405180910390fd5b80915050919050565b60008073ffffffffffffffffffffffffffffffffffffffff168273ffffffffffffffffffffffffffffffffffffffff1603611046576040517f08c379a000000000000000000000000000000000000000000000000000000000815260040161103d90614570565b60405180910390fd5b600360008373ffffffffffffffffffffffffffffffffffffffff1673ffffffffffffffffffffffffffffffffffffffff168152602001908152602001600020549050919050565b7f76afa8a5929fef1b4c03674b2152ae5aaad1d974b8a4021c59477bcc846ccc1e81565b6000600b600084815260200190815260200160002060000160008373ffffffffffffffffffffffffffffffffffffffff1673ffffffffffffffffffffffffffffffffffffffff16815260200190815260200160002060009054906101000a900460ff16905092915050565b7f76afa8a5929fef1b4c03674b2152ae5aaad1d974b8a4021c59477bcc846ccc1e611146816118d9565b600061115183610f50565b9050600073ffffffffffffffffffffffffffffffffffffffff168173ffffffffffffffffffffffffffffffffffffffff16036111c457826040517f6caeb1300000000000000000000000000000000000000000000000000000000081526004016111bb9190613840565b60405180910390fd5b7f172277909bd1a01a852cbc3f739956f79822e367c309debfefb68db3396a89133382856040516111f793929190614590565b60405180910390a161120883611e7b565b505050565b60606001805461121c90613e18565b80601f016020809104026020016040519081016040528092919081815260200182805461124890613e18565b80156112955780601f1061126a57610100808354040283529160200191611295565b820191906000526020600020905b81548152906001019060200180831161127857829003601f168201915b5050505050905090565b606060006112ac33610fd6565b905060008167ffffffffffffffff8111156112ca576112c9613865565b5b6040519080825280602002602001820160405280156112f85781602001602082028036833780820191505090505b50905060005b82811015611342576113103382610a64565b82828151811061132357611322614463565b5b602002602001018181525050808061133a906145f6565b9150506112fe565b50809250505090565b6000801b81565b61136461135d611818565b8383611e87565b5050565b611379611373611818565b836119ce565b6113b8576040517f08c379a00000000000000000000000000000000000000000000000000000000081526004016113af9061428d565b60405180910390fd5b6113c484848484611ff3565b50505050565b60007f76afa8a5929fef1b4c03674b2152ae5aaad1d974b8a4021c59477bcc846ccc1e6113f6816118d9565b6000611402600e61204f565b905061140e600e61205d565b6114188582612073565b6114228185612091565b7f38852d3790cecf8789b659b361b1b912c0376598019c00c87b8ce9142f3c345333868360405161145593929190614590565b60405180910390a1809250505092915050565b606061147382612135565b9050919050565b61148382610a23565b61148c816118d9565b6114968383611d5c565b505050565b6000600560008473ffffffffffffffffffffffffffffffffffffffff1673ffffffffffffffffffffffffffffffffffffffff16815260200190815260200160002060008373ffffffffffffffffffffffffffffffffffffffff1673ffffffffffffffffffffffffffffffffffffffff16815260200190815260200160002060009054906101000a900460ff16905092915050565b6000801b61153c816118d9565b6115667f76afa8a5929fef1b4c03674b2152ae5aaad1d974b8a4021c59477bcc846ccc1e846110b1565b6115a757826040517f6ec3bc8500000000000000000000000000000000000000000000000000000000815260040161159e91906137aa565b60405180910390fd5b81600d60008573ffffffffffffffffffffffffffffffffffffffff1673ffffffffffffffffffffffffffffffffffffffff16815260200190815260200160002090816115f39190614119565b507f1befe08676699a216ff0efeb784db78fcfaee01d0217bc3efeefa305fb97cbb983836040516116259291906141eb565b60405180910390a1505050565b600c60009054906101000a900473ffffffffffffffffffffffffffffffffffffffff1681565b60606116676000801b836110b1565b156116a9576040518060400160405280600581526020017f41444d494e000000000000000000000000000000000000000000000000000000815250905061174e565b6116d37f76afa8a5929fef1b4c03674b2152ae5aaad1d974b8a4021c59477bcc846ccc1e836110b1565b15611715576040518060400160405280600681526020017f4953535545520000000000000000000000000000000000000000000000000000815250905061174e565b6040518060400160405280600481526020017f555345520000000000000000000000000000000000000000000000000000000081525090505b919050565b60007f7965db0b000000000000000000000000000000000000000000000000000000007bffffffffffffffffffffffffffffffffffffffffffffffffffffffff1916827bffffffffffffffffffffffffffffffffffffffffffffffffffffffff191614806117c657506117c582612247565b5b9050919050565b6117d6816122c1565b611815576040517f08c379a000000000000000000000000000000000000000000000000000000000815260040161180c906144de565b60405180910390fd5b50565b600033905090565b816004600083815260200190815260200160002060006101000a81548173ffffffffffffffffffffffffffffffffffffffff021916908373ffffffffffffffffffffffffffffffffffffffff160217905550808273ffffffffffffffffffffffffffffffffffffffff1661189383610f50565b73ffffffffffffffffffffffffffffffffffffffff167f8c5be1e5ebec7d5bd14f71427d1e84f3dd0314c0f7b2291e5b200ac8c7c3b92560405160405180910390a45050565b6118ea816118e5611818565b612302565b50565b6118f782826110b1565b6119ca576001600b600084815260200190815260200160002060000160008373ffffffffffffffffffffffffffffffffffffffff1673ffffffffffffffffffffffffffffffffffffffff16815260200190815260200160002060006101000a81548160ff02191690831515021790555061196f611818565b73ffffffffffffffffffffffffffffffffffffffff168173ffffffffffffffffffffffffffffffffffffffff16837f2f8788117e7eff1d82e926ec794901d17c78024a50270940304540a733656f0d60405160405180910390a45b5050565b6000806119da83610f50565b90508073ffffffffffffffffffffffffffffffffffffffff168473ffffffffffffffffffffffffffffffffffffffff161480611a1c5750611a1b818561149b565b5b80611a5a57508373ffffffffffffffffffffffffffffffffffffffff16611a428461072b565b73ffffffffffffffffffffffffffffffffffffffff16145b91505092915050565b8273ffffffffffffffffffffffffffffffffffffffff16611a8382610f50565b73ffffffffffffffffffffffffffffffffffffffff1614611ad9576040517f08c379a0000000000000000000000000000000000000000000000000000000008152600401611ad0906146b0565b60405180910390fd5b600073ffffffffffffffffffffffffffffffffffffffff168273ffffffffffffffffffffffffffffffffffffffff1603611b48576040517f08c379a0000000000000000000000000000000000000000000000000000000008152600401611b3f90614742565b60405180910390fd5b611b558383836001612387565b8273ffffffffffffffffffffffffffffffffffffffff16611b7582610f50565b73ffffffffffffffffffffffffffffffffffffffff1614611bcb576040517f08c379a0000000000000000000000000000000000000000000000000000000008152600401611bc2906146b0565b60405180910390fd5b6004600082815260200190815260200160002060006101000a81549073ffffffffffffffffffffffffffffffffffffffff02191690556001600360008573ffffffffffffffffffffffffffffffffffffffff1673ffffffffffffffffffffffffffffffffffffffff168152602001908152602001600020600082825403925050819055506001600360008473ffffffffffffffffffffffffffffffffffffffff1673ffffffffffffffffffffffffffffffffffffffff16815260200190815260200160002060008282540192505081905550816002600083815260200190815260200160002060006101000a81548173ffffffffffffffffffffffffffffffffffffffff021916908373ffffffffffffffffffffffffffffffffffffffff160217905550808273ffffffffffffffffffffffffffffffffffffffff168473ffffffffffffffffffffffffffffffffffffffff167fddf252ad1be2c89b69c2b068fc378daa952ba7f163c4a11628f55a4df523b3ef60405160405180910390a4611d57838383600161243f565b505050565b611d6682826110b1565b15611e3a576000600b600084815260200190815260200160002060000160008373ffffffffffffffffffffffffffffffffffffffff1673ffffffffffffffffffffffffffffffffffffffff16815260200190815260200160002060006101000a81548160ff021916908315150217905550611ddf611818565b73ffffffffffffffffffffffffffffffffffffffff168173ffffffffffffffffffffffffffffffffffffffff16837ff6391f5c32d9c69d2a47ea670b442974b53935d1edc7fd64eb21e047a839171b60405160405180910390a45b5050565b60006002600083815260200190815260200160002060009054906101000a900473ffffffffffffffffffffffffffffffffffffffff169050919050565b611e8481612445565b50565b8173ffffffffffffffffffffffffffffffffffffffff168373ffffffffffffffffffffffffffffffffffffffff1603611ef5576040517f08c379a0000000000000000000000000000000000000000000000000000000008152600401611eec906147ae565b60405180910390fd5b80600560008573ffffffffffffffffffffffffffffffffffffffff1673ffffffffffffffffffffffffffffffffffffffff16815260200190815260200160002060008473ffffffffffffffffffffffffffffffffffffffff1673ffffffffffffffffffffffffffffffffffffffff16815260200190815260200160002060006101000a81548160ff0219169083151502179055508173ffffffffffffffffffffffffffffffffffffffff168373ffffffffffffffffffffffffffffffffffffffff167f17307eab39ab6107e8899845ad3d59bd9653f200f220920489ca2b5937696c3183604051611fe69190613639565b60405180910390a3505050565b611ffe848484611a63565b61200a84848484612498565b612049576040517f08c379a000000000000000000000000000000000000000000000000000000000815260040161204090614840565b60405180910390fd5b50505050565b600081600001549050919050565b6001816000016000828254019250508190555050565b61208d82826040518060200160405280600081525061261f565b5050565b61209a826122c1565b6120d9576040517f08c379a00000000000000000000000000000000000000000000000000000000081526004016120d0906148d2565b60405180910390fd5b806006600084815260200190815260200160002090816120f99190614119565b507ff8e1a15aba9398e019f0b49df1a4fde98ee17ae345cb5f6b5e2c27f5033e8ce7826040516121299190613840565b60405180910390a15050565b6060612140826117cd565b600060066000848152602001908152602001600020805461216090613e18565b80601f016020809104026020016040519081016040528092919081815260200182805461218c90613e18565b80156121d95780601f106121ae576101008083540402835291602001916121d9565b820191906000526020600020905b8154815290600101906020018083116121bc57829003601f168201915b5050505050905060006121ea61267a565b905060008151036121ff578192505050612242565b60008251111561223457808260405160200161221c92919061492e565b60405160208183030381529060405292505050612242565b61223d84612691565b925050505b919050565b60007f780e9d63000000000000000000000000000000000000000000000000000000007bffffffffffffffffffffffffffffffffffffffffffffffffffffffff1916827bffffffffffffffffffffffffffffffffffffffffffffffffffffffff191614806122ba57506122b9826126f9565b5b9050919050565b60008073ffffffffffffffffffffffffffffffffffffffff166122e383611e3e565b73ffffffffffffffffffffffffffffffffffffffff1614159050919050565b61230c82826110b1565b612383576123198161275a565b6123278360001c6020612787565b6040516020016123389291906149ea565b6040516020818303038152906040526040517f08c379a000000000000000000000000000000000000000000000000000000000815260040161237a91906136e4565b60405180910390fd5b5050565b600073ffffffffffffffffffffffffffffffffffffffff168473ffffffffffffffffffffffffffffffffffffffff1614806123ee5750600073ffffffffffffffffffffffffffffffffffffffff168373ffffffffffffffffffffffffffffffffffffffff16145b61242d576040517f08c379a000000000000000000000000000000000000000000000000000000000815260040161242490614abc565b60405180910390fd5b612439848484846129c3565b50505050565b50505050565b61244e81612b21565b600060066000838152602001908152602001600020805461246e90613e18565b905014612495576006600082815260200190815260200160002060006124949190613528565b5b50565b60006124b98473ffffffffffffffffffffffffffffffffffffffff16612c6f565b15612612578373ffffffffffffffffffffffffffffffffffffffff1663150b7a026124e2611818565b8786866040518563ffffffff1660e01b81526004016125049493929190614b31565b6020604051808303816000875af192505050801561254057506040513d601f19601f8201168201806040525081019061253d9190614b92565b60015b6125c2573d8060008114612570576040519150601f19603f3d011682016040523d82523d6000602084013e612575565b606091505b5060008151036125ba576040517f08c379a00000000000000000000000000000000000000000000000000000000081526004016125b190614840565b60405180910390fd5b805181602001fd5b63150b7a0260e01b7bffffffffffffffffffffffffffffffffffffffffffffffffffffffff1916817bffffffffffffffffffffffffffffffffffffffffffffffffffffffff191614915050612617565b600190505b949350505050565b6126298383612c92565b6126366000848484612498565b612675576040517f08c379a000000000000000000000000000000000000000000000000000000000815260040161266c90614840565b60405180910390fd5b505050565b606060405180602001604052806000815250905090565b606061269c826117cd565b60006126a661267a565b905060008151116126c657604051806020016040528060008152506126f1565b806126d084612eaf565b6040516020016126e192919061492e565b6040516020818303038152906040525b915050919050565b6000634906490660e01b7bffffffffffffffffffffffffffffffffffffffffffffffffffffffff1916827bffffffffffffffffffffffffffffffffffffffffffffffffffffffff19161480612753575061275282612f7d565b5b9050919050565b60606127808273ffffffffffffffffffffffffffffffffffffffff16601460ff16612787565b9050919050565b60606000600283600261279a9190614bbf565b6127a49190614c01565b67ffffffffffffffff8111156127bd576127bc613865565b5b6040519080825280601f01601f1916602001820160405280156127ef5781602001600182028036833780820191505090505b5090507f30000000000000000000000000000000000000000000000000000000000000008160008151811061282757612826614463565b5b60200101907effffffffffffffffffffffffffffffffffffffffffffffffffffffffffffff1916908160001a9053507f78000000000000000000000000000000000000000000000000000000000000008160018151811061288b5761288a614463565b5b60200101907effffffffffffffffffffffffffffffffffffffffffffffffffffffffffffff1916908160001a905350600060018460026128cb9190614bbf565b6128d59190614c01565b90505b6001811115612975577f3031323334353637383961626364656600000000000000000000000000000000600f86166010811061291757612916614463565b5b1a60f81b82828151811061292e5761292d614463565b5b60200101907effffffffffffffffffffffffffffffffffffffffffffffffffffffffffffff1916908160001a905350600485901c94508061296e90614c35565b90506128d8565b50600084146129b9576040517f08c379a00000000000000000000000000000000000000000000000000000000081526004016129b090614caa565b60405180910390fd5b8091505092915050565b6129cf8484848461305f565b6001811115612a13576040517f08c379a0000000000000000000000000000000000000000000000000000000008152600401612a0a90614d3c565b60405180910390fd5b6000829050600073ffffffffffffffffffffffffffffffffffffffff168573ffffffffffffffffffffffffffffffffffffffff1603612a5a57612a5581613065565b612a99565b8373ffffffffffffffffffffffffffffffffffffffff168573ffffffffffffffffffffffffffffffffffffffff1614612a9857612a9785826130ae565b5b5b600073ffffffffffffffffffffffffffffffffffffffff168473ffffffffffffffffffffffffffffffffffffffff1603612adb57612ad68161321b565b612b1a565b8473ffffffffffffffffffffffffffffffffffffffff168473ffffffffffffffffffffffffffffffffffffffff1614612b1957612b1884826132ec565b5b5b5050505050565b6000612b2c82610f50565b9050612b3c816000846001612387565b612b4582610f50565b90506004600083815260200190815260200160002060006101000a81549073ffffffffffffffffffffffffffffffffffffffff02191690556001600360008373ffffffffffffffffffffffffffffffffffffffff1673ffffffffffffffffffffffffffffffffffffffff168152602001908152602001600020600082825403925050819055506002600083815260200190815260200160002060006101000a81549073ffffffffffffffffffffffffffffffffffffffff021916905581600073ffffffffffffffffffffffffffffffffffffffff168273ffffffffffffffffffffffffffffffffffffffff167fddf252ad1be2c89b69c2b068fc378daa952ba7f163c4a11628f55a4df523b3ef60405160405180910390a4612c6b81600084600161243f565b5050565b6000808273ffffffffffffffffffffffffffffffffffffffff163b119050919050565b600073ffffffffffffffffffffffffffffffffffffffff168273ffffffffffffffffffffffffffffffffffffffff1603612d01576040517f08c379a0000000000000000000000000000000000000000000000000000000008152600401612cf890614da8565b60405180910390fd5b612d0a816122c1565b15612d4a576040517f08c379a0000000000000000000000000000000000000000000000000000000008152600401612d4190614e14565b60405180910390fd5b612d58600083836001612387565b612d61816122c1565b15612da1576040517f08c379a0000000000000000000000000000000000000000000000000000000008152600401612d9890614e14565b60405180910390fd5b6001600360008473ffffffffffffffffffffffffffffffffffffffff1673ffffffffffffffffffffffffffffffffffffffff16815260200190815260200160002060008282540192505081905550816002600083815260200190815260200160002060006101000a81548173ffffffffffffffffffffffffffffffffffffffff021916908373ffffffffffffffffffffffffffffffffffffffff160217905550808273ffffffffffffffffffffffffffffffffffffffff16600073ffffffffffffffffffffffffffffffffffffffff167fddf252ad1be2c89b69c2b068fc378daa952ba7f163c4a11628f55a4df523b3ef60405160405180910390a4612eab60008383600161243f565b5050565b606060006001612ebe8461336b565b01905060008167ffffffffffffffff811115612edd57612edc613865565b5b6040519080825280601f01601f191660200182016040528015612f0f5781602001600182028036833780820191505090505b509050600082602001820190505b600115612f72578080600190039150507f3031323334353637383961626364656600000000000000000000000000000000600a86061a8153600a8581612f6657612f65614e34565b5b04945060008503612f1d575b819350505050919050565b60007f80ac58cd000000000000000000000000000000000000000000000000000000007bffffffffffffffffffffffffffffffffffffffffffffffffffffffff1916827bffffffffffffffffffffffffffffffffffffffffffffffffffffffff1916148061304857507f5b5e139f000000000000000000000000000000000000000000000000000000007bffffffffffffffffffffffffffffffffffffffffffffffffffffffff1916827bffffffffffffffffffffffffffffffffffffffffffffffffffffffff1916145b806130585750613057826134be565b5b9050919050565b50505050565b600980549050600a600083815260200190815260200160002081905550600981908060018154018082558091505060019003906000526020600020016000909190919091505550565b600060016130bb84610fd6565b6130c59190614e63565b90506000600860008481526020019081526020016000205490508181146131aa576000600760008673ffffffffffffffffffffffffffffffffffffffff1673ffffffffffffffffffffffffffffffffffffffff168152602001908152602001600020600084815260200190815260200160002054905080600760008773ffffffffffffffffffffffffffffffffffffffff1673ffffffffffffffffffffffffffffffffffffffff168152602001908152602001600020600084815260200190815260200160002081905550816008600083815260200190815260200160002081905550505b6008600084815260200190815260200160002060009055600760008573ffffffffffffffffffffffffffffffffffffffff1673ffffffffffffffffffffffffffffffffffffffff16815260200190815260200160002060008381526020019081526020016000206000905550505050565b6000600160098054905061322f9190614e63565b90506000600a600084815260200190815260200160002054905060006009838154811061325f5761325e614463565b5b90600052602060002001549050806009838154811061328157613280614463565b5b906000526020600020018190555081600a600083815260200190815260200160002081905550600a60008581526020019081526020016000206000905560098054806132d0576132cf614e97565b5b6001900381819060005260206000200160009055905550505050565b60006132f783610fd6565b905081600760008573ffffffffffffffffffffffffffffffffffffffff1673ffffffffffffffffffffffffffffffffffffffff168152602001908152602001600020600083815260200190815260200160002081905550806008600084815260200190815260200160002081905550505050565b600080600090507a184f03e93ff9f4daa797ed6e38ed64bf6a1f01000000000000000083106133c9577a184f03e93ff9f4daa797ed6e38ed64bf6a1f01000000000000000083816133bf576133be614e34565b5b0492506040810190505b6d04ee2d6d415b85acef81000000008310613406576d04ee2d6d415b85acef810000000083816133fc576133fb614e34565b5b0492506020810190505b662386f26fc10000831061343557662386f26fc10000838161342b5761342a614e34565b5b0492506010810190505b6305f5e100831061345e576305f5e100838161345457613453614e34565b5b0492506008810190505b612710831061348357612710838161347957613478614e34565b5b0492506004810190505b606483106134a6576064838161349c5761349b614e34565b5b0492506002810190505b600a83106134b5576001810190505b80915050919050565b60007f01ffc9a7000000000000000000000000000000000000000000000000000000007bffffffffffffffffffffffffffffffffffffffffffffffffffffffff1916827bffffffffffffffffffffffffffffffffffffffffffffffffffffffff1916149050919050565b50805461353490613e18565b6000825580601f106135465750613565565b601f0160209004906000526020600020908101906135649190613568565b5b50565b5b80821115613581576000816000905550600101613569565b5090565b6000604051905090565b600080fd5b600080fd5b60007fffffffff0000000000000000000000000000000000000000000000000000000082169050919050565b6135ce81613599565b81146135d957600080fd5b50565b6000813590506135eb816135c5565b92915050565b6000602082840312156136075761360661358f565b5b6000613615848285016135dc565b91505092915050565b60008115159050919050565b6136338161361e565b82525050565b600060208201905061364e600083018461362a565b92915050565b600081519050919050565b600082825260208201905092915050565b60005b8381101561368e578082015181840152602081019050613673565b60008484015250505050565b6000601f19601f8301169050919050565b60006136b682613654565b6136c0818561365f565b93506136d0818560208601613670565b6136d98161369a565b840191505092915050565b600060208201905081810360008301526136fe81846136ab565b905092915050565b6000819050919050565b61371981613706565b811461372457600080fd5b50565b60008135905061373681613710565b92915050565b6000602082840312156137525761375161358f565b5b600061376084828501613727565b91505092915050565b600073ffffffffffffffffffffffffffffffffffffffff82169050919050565b600061379482613769565b9050919050565b6137a481613789565b82525050565b60006020820190506137bf600083018461379b565b92915050565b6137ce81613789565b81146137d957600080fd5b50565b6000813590506137eb816137c5565b92915050565b600080604083850312156138085761380761358f565b5b6000613816858286016137dc565b925050602061382785828601613727565b9150509250929050565b61383a81613706565b82525050565b60006020820190506138556000830184613831565b92915050565b600080fd5b600080fd5b7f4e487b7100000000000000000000000000000000000000000000000000000000600052604160045260246000fd5b61389d8261369a565b810181811067ffffffffffffffff821117156138bc576138bb613865565b5b80604052505050565b60006138cf613585565b90506138db8282613894565b919050565b600067ffffffffffffffff8211156138fb576138fa613865565b5b6139048261369a565b9050602081019050919050565b82818337600083830152505050565b600061393361392e846138e0565b6138c5565b90508281526020810184848401111561394f5761394e613860565b5b61395a848285613911565b509392505050565b600082601f8301126139775761397661385b565b5b8135613987848260208601613920565b91505092915050565b600080604083850312156139a7576139a661358f565b5b60006139b5858286016137dc565b925050602083013567ffffffffffffffff8111156139d6576139d5613594565b5b6139e285828601613962565b9150509250929050565b600080600060608486031215613a0557613a0461358f565b5b6000613a13868287016137dc565b9350506020613a24868287016137dc565b9250506040613a3586828701613727565b9150509250925092565b6000819050919050565b613a5281613a3f565b8114613a5d57600080fd5b50565b600081359050613a6f81613a49565b92915050565b600060208284031215613a8b57613a8a61358f565b5b6000613a9984828501613a60565b91505092915050565b613aab81613a3f565b82525050565b6000602082019050613ac66000830184613aa2565b92915050565b60008060408385031215613ae357613ae261358f565b5b6000613af185828601613a60565b9250506020613b02858286016137dc565b9150509250929050565b600060208284031215613b2257613b2161358f565b5b6000613b30848285016137dc565b91505092915050565b600081519050919050565b600082825260208201905092915050565b6000819050602082019050919050565b613b6e81613706565b82525050565b6000613b808383613b65565b60208301905092915050565b6000602082019050919050565b6000613ba482613b39565b613bae8185613b44565b9350613bb983613b55565b8060005b83811015613bea578151613bd18882613b74565b9750613bdc83613b8c565b925050600181019050613bbd565b5085935050505092915050565b60006020820190508181036000830152613c118184613b99565b905092915050565b613c228161361e565b8114613c2d57600080fd5b50565b600081359050613c3f81613c19565b92915050565b60008060408385031215613c5c57613c5b61358f565b5b6000613c6a858286016137dc565b9250506020613c7b85828601613c30565b9150509250929050565b600067ffffffffffffffff821115613ca057613c9f613865565b5b613ca98261369a565b9050602081019050919050565b6000613cc9613cc484613c85565b6138c5565b905082815260208101848484011115613ce557613ce4613860565b5b613cf0848285613911565b509392505050565b600082601f830112613d0d57613d0c61385b565b5b8135613d1d848260208601613cb6565b91505092915050565b60008060008060808587031215613d4057613d3f61358f565b5b6000613d4e878288016137dc565b9450506020613d5f878288016137dc565b9350506040613d7087828801613727565b925050606085013567ffffffffffffffff811115613d9157613d90613594565b5b613d9d87828801613cf8565b91505092959194509250565b60008060408385031215613dc057613dbf61358f565b5b6000613dce858286016137dc565b9250506020613ddf858286016137dc565b9150509250929050565b7f4e487b7100000000000000000000000000000000000000000000000000000000600052602260045260246000fd5b60006002820490506001821680613e3057607f821691505b602082108103613e4357613e42613de9565b5b50919050565b7f4552433732313a20617070726f76616c20746f2063757272656e74206f776e6560008201527f7200000000000000000000000000000000000000000000000000000000000000602082015250565b6000613ea560218361365f565b9150613eb082613e49565b604082019050919050565b60006020820190508181036000830152613ed481613e98565b9050919050565b7f4552433732313a20617070726f76652063616c6c6572206973206e6f7420746f60008201527f6b656e206f776e6572206f7220617070726f76656420666f7220616c6c000000602082015250565b6000613f37603d8361365f565b9150613f4282613edb565b604082019050919050565b60006020820190508181036000830152613f6681613f2a565b9050919050565b60008190508160005260206000209050919050565b60006020601f8301049050919050565b600082821b905092915050565b600060088302613fcf7fffffffffffffffffffffffffffffffffffffffffffffffffffffffffffffffff82613f92565b613fd98683613f92565b95508019841693508086168417925050509392505050565b6000819050919050565b600061401661401161400c84613706565b613ff1565b613706565b9050919050565b6000819050919050565b61403083613ffb565b61404461403c8261401d565b848454613f9f565b825550505050565b600090565b61405961404c565b614064818484614027565b505050565b5b818110156140885761407d600082614051565b60018101905061406a565b5050565b601f8211156140cd5761409e81613f6d565b6140a784613f82565b810160208510156140b6578190505b6140ca6140c285613f82565b830182614069565b50505b505050565b600082821c905092915050565b60006140f0600019846008026140d2565b1980831691505092915050565b600061410983836140df565b9150826002028217905092915050565b61412282613654565b67ffffffffffffffff81111561413b5761413a613865565b5b6141458254613e18565b61415082828561408c565b600060209050601f8311600181146141835760008415614171578287015190505b61417b85826140fd565b8655506141e3565b601f19841661419186613f6d565b60005b828110156141b957848901518255600182019150602085019450602081019050614194565b868310156141d657848901516141d2601f8916826140df565b8355505b6001600288020188555050505b505050505050565b6000604082019050614200600083018561379b565b818103602083015261421281846136ab565b90509392505050565b7f4552433732313a2063616c6c6572206973206e6f7420746f6b656e206f776e6560008201527f72206f7220617070726f76656400000000000000000000000000000000000000602082015250565b6000614277602d8361365f565b91506142828261421b565b604082019050919050565b600060208201905081810360008301526142a68161426a565b9050919050565b7f455243373231456e756d657261626c653a206f776e657220696e646578206f7560008201527f74206f6620626f756e6473000000000000000000000000000000000000000000602082015250565b6000614309602b8361365f565b9150614314826142ad565b604082019050919050565b60006020820190508181036000830152614338816142fc565b9050919050565b7f416363657373436f6e74726f6c3a2063616e206f6e6c792072656e6f756e636560008201527f20726f6c657320666f722073656c660000000000000000000000000000000000602082015250565b600061439b602f8361365f565b91506143a68261433f565b604082019050919050565b600060208201905081810360008301526143ca8161438e565b9050919050565b7f455243373231456e756d657261626c653a20676c6f62616c20696e646578206f60008201527f7574206f6620626f756e64730000000000000000000000000000000000000000602082015250565b600061442d602c8361365f565b9150614438826143d1565b604082019050919050565b6000602082019050818103600083015261445c81614420565b9050919050565b7f4e487b7100000000000000000000000000000000000000000000000000000000600052603260045260246000fd5b7f4552433732313a20696e76616c696420746f6b656e2049440000000000000000600082015250565b60006144c860188361365f565b91506144d382614492565b602082019050919050565b600060208201905081810360008301526144f7816144bb565b9050919050565b7f4552433732313a2061646472657373207a65726f206973206e6f74206120766160008201527f6c6964206f776e65720000000000000000000000000000000000000000000000602082015250565b600061455a60298361365f565b9150614565826144fe565b604082019050919050565b600060208201905081810360008301526145898161454d565b9050919050565b60006060820190506145a5600083018661379b565b6145b2602083018561379b565b6145bf6040830184613831565b949350505050565b7f4e487b7100000000000000000000000000000000000000000000000000000000600052601160045260246000fd5b600061460182613706565b91507fffffffffffffffffffffffffffffffffffffffffffffffffffffffffffffffff8203614633576146326145c7565b5b600182019050919050565b7f4552433732313a207472616e736665722066726f6d20696e636f72726563742060008201527f6f776e6572000000000000000000000000000000000000000000000000000000602082015250565b600061469a60258361365f565b91506146a58261463e565b604082019050919050565b600060208201905081810360008301526146c98161468d565b9050919050565b7f4552433732313a207472616e7366657220746f20746865207a65726f2061646460008201527f7265737300000000000000000000000000000000000000000000000000000000602082015250565b600061472c60248361365f565b9150614737826146d0565b604082019050919050565b6000602082019050818103600083015261475b8161471f565b9050919050565b7f4552433732313a20617070726f766520746f2063616c6c657200000000000000600082015250565b600061479860198361365f565b91506147a382614762565b602082019050919050565b600060208201905081810360008301526147c78161478b565b9050919050565b7f4552433732313a207472616e7366657220746f206e6f6e20455243373231526560008201527f63656976657220696d706c656d656e7465720000000000000000000000000000602082015250565b600061482a60328361365f565b9150614835826147ce565b604082019050919050565b600060208201905081810360008301526148598161481d565b9050919050565b7f45524337323155524953746f726167653a2055524920736574206f66206e6f6e60008201527f6578697374656e7420746f6b656e000000000000000000000000000000000000602082015250565b60006148bc602e8361365f565b91506148c782614860565b604082019050919050565b600060208201905081810360008301526148eb816148af565b9050919050565b600081905092915050565b600061490882613654565b61491281856148f2565b9350614922818560208601613670565b80840191505092915050565b600061493a82856148fd565b915061494682846148fd565b91508190509392505050565b7f416363657373436f6e74726f6c3a206163636f756e7420000000000000000000600082015250565b60006149886017836148f2565b915061499382614952565b601782019050919050565b7f206973206d697373696e6720726f6c6520000000000000000000000000000000600082015250565b60006149d46011836148f2565b91506149df8261499e565b601182019050919050565b60006149f58261497b565b9150614a0182856148fd565b9150614a0c826149c7565b9150614a1882846148fd565b91508190509392505050565b7f536f756c626f756e6420746f6b656e732063616e6e6f74206265207472616e7360008201527f6665727265642c20546f6b656e207472616e7366657220697320424c4f434b4560208201527f4400000000000000000000000000000000000000000000000000000000000000604082015250565b6000614aa660418361365f565b9150614ab182614a24565b606082019050919050565b60006020820190508181036000830152614ad581614a99565b9050919050565b600081519050919050565b600082825260208201905092915050565b6000614b0382614adc565b614b0d8185614ae7565b9350614b1d818560208601613670565b614b268161369a565b840191505092915050565b6000608082019050614b46600083018761379b565b614b53602083018661379b565b614b606040830185613831565b8181036060830152614b728184614af8565b905095945050505050565b600081519050614b8c816135c5565b92915050565b600060208284031215614ba857614ba761358f565b5b6000614bb684828501614b7d565b91505092915050565b6000614bca82613706565b9150614bd583613706565b9250828202614be381613706565b91508282048414831517614bfa57614bf96145c7565b5b5092915050565b6000614c0c82613706565b9150614c1783613706565b9250828201905080821115614c2f57614c2e6145c7565b5b92915050565b6000614c4082613706565b915060008203614c5357614c526145c7565b5b600182039050919050565b7f537472696e67733a20686578206c656e67746820696e73756666696369656e74600082015250565b6000614c9460208361365f565b9150614c9f82614c5e565b602082019050919050565b60006020820190508181036000830152614cc381614c87565b9050919050565b7f455243373231456e756d657261626c653a20636f6e736563757469766520747260008201527f616e7366657273206e6f7420737570706f727465640000000000000000000000602082015250565b6000614d2660358361365f565b9150614d3182614cca565b604082019050919050565b60006020820190508181036000830152614d5581614d19565b9050919050565b7f4552433732313a206d696e7420746f20746865207a65726f2061646472657373600082015250565b6000614d9260208361365f565b9150614d9d82614d5c565b602082019050919050565b60006020820190508181036000830152614dc181614d85565b9050919050565b7f4552433732313a20746f6b656e20616c7265616479206d696e74656400000000600082015250565b6000614dfe601c8361365f565b9150614e0982614dc8565b602082019050919050565b60006020820190508181036000830152614e2d81614df1565b9050919050565b7f4e487b7100000000000000000000000000000000000000000000000000000000600052601260045260246000fd5b6000614e6e82613706565b9150614e7983613706565b9250828203905081811115614e9157614e906145c7565b5b92915050565b7f4e487b7100000000000000000000000000000000000000000000000000000000600052603160045260246000fdfea2646970667358221220f6ad749c632ea7814ec7b0a40eccefdbec3f8ba43fbdb7f15eba90b5306a351e64736f6c63430008120033",
  "linkReferences": {},
  "deployedLinkReferences": {}
}